{
  "contracts/UTToken.sol": {
    "UTToken": {
      "abi": [
        {
          "inputs": [
            {
              "internalType": "uint256",
              "name": "preMintValue",
              "type": "uint256"
            },
            {
              "internalType": "string",
              "name": "_tokenTicker",
              "type": "string"
            },
            {
              "internalType": "string",
              "name": "_tokenName",
              "type": "string"
            },
            {
              "internalType": "address",
              "name": "_initialAddress",
              "type": "address"
            },
            {
              "components": [
                {
                  "internalType": "bool",
                  "name": "canMint",
                  "type": "bool"
                },
                {
                  "internalType": "bool",
                  "name": "canBurn",
                  "type": "bool"
                },
                {
                  "internalType": "bool",
                  "name": "canPause",
                  "type": "bool"
                },
                {
                  "internalType": "bool",
                  "name": "canBlacklist",
                  "type": "bool"
                },
                {
                  "internalType": "bool",
                  "name": "canChangeOwner",
                  "type": "bool"
                },
                {
                  "internalType": "bool",
                  "name": "canTxTax",
                  "type": "bool"
                },
                {
                  "internalType": "bool",
                  "name": "canBuyBack",
                  "type": "bool"
                },
                {
                  "internalType": "bool",
                  "name": "canStake",
                  "type": "bool"
                }
              ],
              "internalType": "struct UTToken.smartContractActions",
              "name": "_actions",
              "type": "tuple"
            },
            {
              "internalType": "uint8",
              "name": "_txnTaxRate",
              "type": "uint8"
            },
            {
              "internalType": "address",
              "name": "_txnTaxWallet",
              "type": "address"
            },
            {
              "internalType": "uint8",
              "name": "decimals_",
              "type": "uint8"
            }
          ],
          "stateMutability": "nonpayable",
          "type": "constructor"
        },
        {
          "inputs": [
            {
              "internalType": "address",
              "name": "spender",
              "type": "address"
            },
            {
              "internalType": "uint256",
              "name": "allowance",
              "type": "uint256"
            },
            {
              "internalType": "uint256",
              "name": "needed",
              "type": "uint256"
            }
          ],
          "name": "ERC20InsufficientAllowance",
          "type": "error"
        },
        {
          "inputs": [
            {
              "internalType": "address",
              "name": "sender",
              "type": "address"
            },
            {
              "internalType": "uint256",
              "name": "balance",
              "type": "uint256"
            },
            {
              "internalType": "uint256",
              "name": "needed",
              "type": "uint256"
            }
          ],
          "name": "ERC20InsufficientBalance",
          "type": "error"
        },
        {
          "inputs": [
            {
              "internalType": "address",
              "name": "approver",
              "type": "address"
            }
          ],
          "name": "ERC20InvalidApprover",
          "type": "error"
        },
        {
          "inputs": [
            {
              "internalType": "address",
              "name": "receiver",
              "type": "address"
            }
          ],
          "name": "ERC20InvalidReceiver",
          "type": "error"
        },
        {
          "inputs": [
            {
              "internalType": "address",
              "name": "sender",
              "type": "address"
            }
          ],
          "name": "ERC20InvalidSender",
          "type": "error"
        },
        {
          "inputs": [
            {
              "internalType": "address",
              "name": "spender",
              "type": "address"
            }
          ],
          "name": "ERC20InvalidSpender",
          "type": "error"
        },
        {
          "inputs": [],
          "name": "EnforcedPause",
          "type": "error"
        },
        {
          "inputs": [],
          "name": "ExpectedPause",
          "type": "error"
        },
        {
          "inputs": [
            {
              "internalType": "address",
              "name": "owner",
              "type": "address"
            }
          ],
          "name": "OwnableInvalidOwner",
          "type": "error"
        },
        {
          "inputs": [
            {
              "internalType": "address",
              "name": "account",
              "type": "address"
            }
          ],
          "name": "OwnableUnauthorizedAccount",
          "type": "error"
        },
        {
          "inputs": [],
          "name": "ReentrancyGuardReentrantCall",
          "type": "error"
        },
        {
          "anonymous": false,
          "inputs": [
            {
              "indexed": true,
              "internalType": "address",
              "name": "owner",
              "type": "address"
            },
            {
              "indexed": true,
              "internalType": "address",
              "name": "spender",
              "type": "address"
            },
            {
              "indexed": false,
              "internalType": "uint256",
              "name": "value",
              "type": "uint256"
            }
          ],
          "name": "Approval",
          "type": "event"
        },
        {
          "anonymous": false,
          "inputs": [
            {
              "indexed": true,
              "internalType": "address",
              "name": "owner",
              "type": "address"
            },
            {
              "indexed": true,
              "internalType": "address",
              "name": "spender",
              "type": "address"
            },
            {
              "indexed": false,
              "internalType": "uint256",
              "name": "value",
              "type": "uint256"
            }
          ],
          "name": "LogApproval",
          "type": "event"
        },
        {
          "anonymous": false,
          "inputs": [
            {
              "indexed": false,
              "internalType": "uint256",
              "name": "totalSupply",
              "type": "uint256"
            },
            {
              "indexed": false,
              "internalType": "uint256",
              "name": "decimals",
              "type": "uint256"
            }
          ],
          "name": "LogTotalSupply",
          "type": "event"
        },
        {
          "anonymous": false,
          "inputs": [
            {
              "indexed": true,
              "internalType": "address",
              "name": "previousOwner",
              "type": "address"
            },
            {
              "indexed": true,
              "internalType": "address",
              "name": "newOwner",
              "type": "address"
            }
          ],
          "name": "OwnershipTransferred",
          "type": "event"
        },
        {
          "anonymous": false,
          "inputs": [
            {
              "indexed": false,
              "internalType": "address",
              "name": "account",
              "type": "address"
            }
          ],
          "name": "Paused",
          "type": "event"
        },
        {
          "anonymous": false,
          "inputs": [
            {
              "indexed": true,
              "internalType": "address",
              "name": "from",
              "type": "address"
            },
            {
              "indexed": true,
              "internalType": "address",
              "name": "to",
              "type": "address"
            },
            {
              "indexed": false,
              "internalType": "uint256",
              "name": "value",
              "type": "uint256"
            }
          ],
          "name": "Transfer",
          "type": "event"
        },
        {
          "anonymous": false,
          "inputs": [
            {
              "indexed": false,
              "internalType": "address",
              "name": "account",
              "type": "address"
            }
          ],
          "name": "Unpaused",
          "type": "event"
        },
        {
          "inputs": [],
          "name": "actions",
          "outputs": [
            {
              "internalType": "bool",
              "name": "canMint",
              "type": "bool"
            },
            {
              "internalType": "bool",
              "name": "canBurn",
              "type": "bool"
            },
            {
              "internalType": "bool",
              "name": "canPause",
              "type": "bool"
            },
            {
              "internalType": "bool",
              "name": "canBlacklist",
              "type": "bool"
            },
            {
              "internalType": "bool",
              "name": "canChangeOwner",
              "type": "bool"
            },
            {
              "internalType": "bool",
              "name": "canTxTax",
              "type": "bool"
            },
            {
              "internalType": "bool",
              "name": "canBuyBack",
              "type": "bool"
            },
            {
              "internalType": "bool",
              "name": "canStake",
              "type": "bool"
            }
          ],
          "stateMutability": "view",
          "type": "function"
        },
        {
          "inputs": [
            {
              "internalType": "address",
              "name": "owner",
              "type": "address"
            },
            {
              "internalType": "address",
              "name": "spender",
              "type": "address"
            }
          ],
          "name": "allowance",
          "outputs": [
            {
              "internalType": "uint256",
              "name": "",
              "type": "uint256"
            }
          ],
          "stateMutability": "view",
          "type": "function"
        },
        {
          "inputs": [
            {
              "internalType": "address",
              "name": "spender",
              "type": "address"
            },
            {
              "internalType": "uint256",
              "name": "value",
              "type": "uint256"
            }
          ],
          "name": "approve",
          "outputs": [
            {
              "internalType": "bool",
              "name": "",
              "type": "bool"
            }
          ],
          "stateMutability": "nonpayable",
          "type": "function"
        },
        {
          "inputs": [
            {
              "internalType": "address",
              "name": "account",
              "type": "address"
            }
          ],
          "name": "balanceOf",
          "outputs": [
            {
              "internalType": "uint256",
              "name": "",
              "type": "uint256"
            }
          ],
          "stateMutability": "view",
          "type": "function"
        },
        {
          "inputs": [
            {
              "internalType": "address",
              "name": "_user",
              "type": "address"
            }
          ],
          "name": "blackListUser",
          "outputs": [],
          "stateMutability": "nonpayable",
          "type": "function"
        },
        {
          "inputs": [
            {
              "internalType": "address",
              "name": "",
              "type": "address"
            }
          ],
          "name": "blackListedAddress",
          "outputs": [
            {
              "internalType": "bool",
              "name": "",
              "type": "bool"
            }
          ],
          "stateMutability": "view",
          "type": "function"
        },
        {
          "inputs": [
            {
              "internalType": "address",
              "name": "_user",
              "type": "address"
            },
            {
              "internalType": "uint256",
              "name": "_amount",
              "type": "uint256"
            }
          ],
          "name": "burnFrom",
          "outputs": [],
          "stateMutability": "nonpayable",
          "type": "function"
        },
        {
          "inputs": [
            {
              "internalType": "uint256",
              "name": "_amount",
              "type": "uint256"
            }
          ],
          "name": "burnSupply",
          "outputs": [],
          "stateMutability": "nonpayable",
          "type": "function"
        },
        {
          "inputs": [
            {
              "internalType": "uint256",
              "name": "amountOutMin",
              "type": "uint256"
            }
          ],
          "name": "buyBackTokens",
          "outputs": [],
          "stateMutability": "payable",
          "type": "function"
        },
        {
          "inputs": [],
          "name": "decimals",
          "outputs": [
            {
              "internalType": "uint8",
              "name": "",
              "type": "uint8"
            }
          ],
          "stateMutability": "view",
          "type": "function"
        },
        {
          "inputs": [
            {
              "internalType": "uint256",
              "name": "_amount",
              "type": "uint256"
            }
          ],
          "name": "mintSupply",
          "outputs": [],
          "stateMutability": "nonpayable",
          "type": "function"
        },
        {
          "inputs": [],
          "name": "name",
          "outputs": [
            {
              "internalType": "string",
              "name": "",
              "type": "string"
            }
          ],
          "stateMutability": "view",
          "type": "function"
        },
        {
          "inputs": [],
          "name": "owner",
          "outputs": [
            {
              "internalType": "address",
              "name": "",
              "type": "address"
            }
          ],
          "stateMutability": "view",
          "type": "function"
        },
        {
          "inputs": [],
          "name": "pauseTokenTransfers",
          "outputs": [],
          "stateMutability": "nonpayable",
          "type": "function"
        },
        {
          "inputs": [],
          "name": "paused",
          "outputs": [
            {
              "internalType": "bool",
              "name": "",
              "type": "bool"
            }
          ],
          "stateMutability": "view",
          "type": "function"
        },
        {
          "inputs": [],
          "name": "renounceOwnership",
          "outputs": [],
          "stateMutability": "nonpayable",
          "type": "function"
        },
        {
          "inputs": [
            {
              "internalType": "uint8",
              "name": "_rateValue",
              "type": "uint8"
            }
          ],
          "name": "setTxnTaxRate",
          "outputs": [],
          "stateMutability": "nonpayable",
          "type": "function"
        },
        {
          "inputs": [
            {
              "internalType": "address",
              "name": "_txnTaxWallet",
              "type": "address"
            }
          ],
          "name": "setTxnTaxWallet",
          "outputs": [],
          "stateMutability": "nonpayable",
          "type": "function"
        },
        {
          "inputs": [
            {
              "internalType": "uint256",
              "name": "_amount",
              "type": "uint256"
            }
          ],
          "name": "stakeToken",
          "outputs": [],
          "stateMutability": "nonpayable",
          "type": "function"
        },
        {
          "inputs": [
            {
              "internalType": "address",
              "name": "",
              "type": "address"
            }
          ],
          "name": "stakes",
          "outputs": [
            {
              "internalType": "uint256",
              "name": "",
              "type": "uint256"
            }
          ],
          "stateMutability": "view",
          "type": "function"
        },
        {
          "inputs": [],
          "name": "symbol",
          "outputs": [
            {
              "internalType": "string",
              "name": "",
              "type": "string"
            }
          ],
          "stateMutability": "view",
          "type": "function"
        },
        {
          "inputs": [],
          "name": "totalSupply",
          "outputs": [
            {
              "internalType": "uint256",
              "name": "",
              "type": "uint256"
            }
          ],
          "stateMutability": "view",
          "type": "function"
        },
        {
          "inputs": [
            {
              "internalType": "address",
              "name": "to",
              "type": "address"
            },
            {
              "internalType": "uint256",
              "name": "value",
              "type": "uint256"
            }
          ],
          "name": "transfer",
          "outputs": [
            {
              "internalType": "bool",
              "name": "",
              "type": "bool"
            }
          ],
          "stateMutability": "nonpayable",
          "type": "function"
        },
        {
          "inputs": [
            {
              "internalType": "address",
              "name": "from",
              "type": "address"
            },
            {
              "internalType": "address",
              "name": "to",
              "type": "address"
            },
            {
              "internalType": "uint256",
              "name": "value",
              "type": "uint256"
            }
          ],
          "name": "transferFrom",
          "outputs": [
            {
              "internalType": "bool",
              "name": "",
              "type": "bool"
            }
          ],
          "stateMutability": "nonpayable",
          "type": "function"
        },
        {
          "inputs": [
            {
              "internalType": "address",
              "name": "newOwner",
              "type": "address"
            }
          ],
          "name": "transferOwnership",
          "outputs": [],
          "stateMutability": "nonpayable",
          "type": "function"
        },
        {
          "inputs": [
            {
              "internalType": "address",
              "name": "user",
              "type": "address"
            },
            {
              "internalType": "uint256",
              "name": "amount",
              "type": "uint256"
            },
            {
              "internalType": "uint256",
              "name": "_duration",
              "type": "uint256"
            }
          ],
          "name": "transferTokensToUser",
          "outputs": [],
          "stateMutability": "nonpayable",
          "type": "function"
        },
        {
          "inputs": [],
          "name": "txnTaxRate",
          "outputs": [
            {
              "internalType": "uint8",
              "name": "",
              "type": "uint8"
            }
          ],
          "stateMutability": "view",
          "type": "function"
        },
        {
          "inputs": [],
          "name": "txnTaxWallet",
          "outputs": [
            {
              "internalType": "address",
              "name": "",
              "type": "address"
            }
          ],
          "stateMutability": "view",
          "type": "function"
        },
        {
          "inputs": [],
          "name": "unPauseTokenTransfers",
          "outputs": [],
          "stateMutability": "nonpayable",
          "type": "function"
        },
        {
          "inputs": [],
          "name": "uniswapRouter",
          "outputs": [
            {
              "internalType": "contract IUniswapV2Router02",
              "name": "",
              "type": "address"
            }
          ],
          "stateMutability": "view",
          "type": "function"
        },
        {
          "inputs": [
            {
              "internalType": "address",
              "name": "_user",
              "type": "address"
            }
          ],
          "name": "whiteListUser",
          "outputs": [],
          "stateMutability": "nonpayable",
          "type": "function"
        },
        {
          "inputs": [],
          "name": "withdrawFull",
          "outputs": [],
          "stateMutability": "nonpayable",
          "type": "function"
        },
        {
          "inputs": [
            {
              "internalType": "uint256",
              "name": "_amount",
              "type": "uint256"
            }
          ],
          "name": "withdrawTokenAmount",
          "outputs": [],
          "stateMutability": "nonpayable",
          "type": "function"
        }
      ],
      "evm": {
        "bytecode": {
          "linkReferences": {},
          "object": "60806040523480156200001157600080fd5b50604051620055fc380380620055fc833981810160405281019062000037919062000dfc565b84868881600390816200004b919062001147565b5080600490816200005d919062001147565b505050600073ffffffffffffffffffffffffffffffffffffffff168173ffffffffffffffffffffffffffffffffffffffff1603620000d55760006040517f1e4fbdf7000000000000000000000000000000000000000000000000000000008152600401620000cc91906200123f565b60405180910390fd5b620000e6816200016760201b60201c565b506000600560146101000a81548160ff021916908315150217905550600160068190555080600960156101000a81548160ff021916908360ff16021790555062000136886200022d60201b60201c565b620001488383620002d360201b60201c565b6200015984620003ee60201b60201c565b5050505050505050620016a2565b6000600560009054906101000a900473ffffffffffffffffffffffffffffffffffffffff16905081600560006101000a81548173ffffffffffffffffffffffffffffffffffffffff021916908373ffffffffffffffffffffffffffffffffffffffff1602179055508173ffffffffffffffffffffffffffffffffffffffff168173ffffffffffffffffffffffffffffffffffffffff167f8be0079c531659141344cd1fd0a4f28419497f9722a3daafe3b4186f6b6457e060405160405180910390a35050565b60006200024082620004f960201b60201c565b90506200025430826200052d60201b60201c565b6200027562000268620005ba60201b60201c565b82620005e460201b60201c565b507f255d63610a0acc0d201b7200021a02f21438763bd8545af3f4b664719a9dfcad620002a76200061760201b60201c565b620002b76200062160201b60201c565b604051620002c7929190620012a6565b60405180910390a15050565b600073ffffffffffffffffffffffffffffffffffffffff168173ffffffffffffffffffffffffffffffffffffffff160362000345576040517f08c379a00000000000000000000000000000000000000000000000000000000081526004016200033c9062001334565b60405180910390fd5b60008260ff16116200038e576040517f08c379a00000000000000000000000000000000000000000000000000000000081526004016200038590620013cc565b60405180910390fd5b80600960016101000a81548173ffffffffffffffffffffffffffffffffffffffff021916908373ffffffffffffffffffffffffffffffffffffffff16021790555081600960006101000a81548160ff021916908360ff1602179055505050565b8060e00151600b60000160076101000a81548160ff0219169083151502179055508060200151600b60000160016101000a81548160ff0219169083151502179055508060000151600b60000160006101000a81548160ff0219169083151502179055508060400151600b60000160026101000a81548160ff0219169083151502179055508060600151600b60000160036101000a81548160ff0219169083151502179055508060800151600b60000160046101000a81548160ff0219169083151502179055508060a00151600b60000160056101000a81548160ff0219169083151502179055508060c00151600b60000160066101000a81548160ff02191690831515021790555050565b60006200050b6200062160201b60201c565b600a62000519919062001571565b82620005269190620015c2565b9050919050565b600073ffffffffffffffffffffffffffffffffffffffff168273ffffffffffffffffffffffffffffffffffffffff1603620005a25760006040517fec442f050000000000000000000000000000000000000000000000000000000081526004016200059991906200123f565b60405180910390fd5b620005b6600083836200063860201b60201c565b5050565b6000600560009054906101000a900473ffffffffffffffffffffffffffffffffffffffff16905090565b600080620005f76200086860201b60201c565b90506200060c8185856200087060201b60201c565b600191505092915050565b6000600254905090565b6000600960159054906101000a900460ff16905090565b600073ffffffffffffffffffffffffffffffffffffffff168373ffffffffffffffffffffffffffffffffffffffff16036200068e5780600260008282546200068191906200160d565b9250508190555062000764565b60008060008573ffffffffffffffffffffffffffffffffffffffff1673ffffffffffffffffffffffffffffffffffffffff168152602001908152602001600020549050818110156200071d578381836040517fe450d38c000000000000000000000000000000000000000000000000000000008152600401620007149392919062001648565b60405180910390fd5b8181036000808673ffffffffffffffffffffffffffffffffffffffff1673ffffffffffffffffffffffffffffffffffffffff16815260200190815260200160002081905550505b600073ffffffffffffffffffffffffffffffffffffffff168273ffffffffffffffffffffffffffffffffffffffff1603620007af5780600260008282540392505081905550620007fc565b806000808473ffffffffffffffffffffffffffffffffffffffff1673ffffffffffffffffffffffffffffffffffffffff168152602001908152602001600020600082825401925050819055505b8173ffffffffffffffffffffffffffffffffffffffff168373ffffffffffffffffffffffffffffffffffffffff167fddf252ad1be2c89b69c2b068fc378daa952ba7f163c4a11628f55a4df523b3ef836040516200085b919062001685565b60405180910390a3505050565b600033905090565b6200088583838360016200088a60201b60201c565b505050565b600073ffffffffffffffffffffffffffffffffffffffff168473ffffffffffffffffffffffffffffffffffffffff1603620008ff5760006040517fe602df05000000000000000000000000000000000000000000000000000000008152600401620008f691906200123f565b60405180910390fd5b600073ffffffffffffffffffffffffffffffffffffffff168373ffffffffffffffffffffffffffffffffffffffff1603620009745760006040517f94280d620000000000000000000000000000000000000000000000000000000081526004016200096b91906200123f565b60405180910390fd5b81600160008673ffffffffffffffffffffffffffffffffffffffff1673ffffffffffffffffffffffffffffffffffffffff16815260200190815260200160002060008573ffffffffffffffffffffffffffffffffffffffff1673ffffffffffffffffffffffffffffffffffffffff16815260200190815260200160002081905550801562000a64578273ffffffffffffffffffffffffffffffffffffffff168473ffffffffffffffffffffffffffffffffffffffff167f8c5be1e5ebec7d5bd14f71427d1e84f3dd0314c0f7b2291e5b200ac8c7c3b9258460405162000a5b919062001685565b60405180910390a35b50505050565b6000604051905090565b600080fd5b600080fd5b6000819050919050565b62000a938162000a7e565b811462000a9f57600080fd5b50565b60008151905062000ab38162000a88565b92915050565b600080fd5b600080fd5b6000601f19601f8301169050919050565b7f4e487b7100000000000000000000000000000000000000000000000000000000600052604160045260246000fd5b62000b0e8262000ac3565b810181811067ffffffffffffffff8211171562000b305762000b2f62000ad4565b5b80604052505050565b600062000b4562000a6a565b905062000b53828262000b03565b919050565b600067ffffffffffffffff82111562000b765762000b7562000ad4565b5b62000b818262000ac3565b9050602081019050919050565b60005b8381101562000bae57808201518184015260208101905062000b91565b60008484015250505050565b600062000bd162000bcb8462000b58565b62000b39565b90508281526020810184848401111562000bf05762000bef62000abe565b5b62000bfd84828562000b8e565b509392505050565b600082601f83011262000c1d5762000c1c62000ab9565b5b815162000c2f84826020860162000bba565b91505092915050565b600073ffffffffffffffffffffffffffffffffffffffff82169050919050565b600062000c658262000c38565b9050919050565b62000c778162000c58565b811462000c8357600080fd5b50565b60008151905062000c978162000c6c565b92915050565b600080fd5b60008115159050919050565b62000cb98162000ca2565b811462000cc557600080fd5b50565b60008151905062000cd98162000cae565b92915050565b6000610100828403121562000cf95762000cf862000c9d565b5b62000d0661010062000b39565b9050600062000d188482850162000cc8565b600083015250602062000d2e8482850162000cc8565b602083015250604062000d448482850162000cc8565b604083015250606062000d5a8482850162000cc8565b606083015250608062000d708482850162000cc8565b60808301525060a062000d868482850162000cc8565b60a08301525060c062000d9c8482850162000cc8565b60c08301525060e062000db28482850162000cc8565b60e08301525092915050565b600060ff82169050919050565b62000dd68162000dbe565b811462000de257600080fd5b50565b60008151905062000df68162000dcb565b92915050565b6000806000806000806000806101e0898b03121562000e205762000e1f62000a74565b5b600062000e308b828c0162000aa2565b985050602089015167ffffffffffffffff81111562000e545762000e5362000a79565b5b62000e628b828c0162000c05565b975050604089015167ffffffffffffffff81111562000e865762000e8562000a79565b5b62000e948b828c0162000c05565b965050606062000ea78b828c0162000c86565b955050608062000eba8b828c0162000cdf565b94505061018062000ece8b828c0162000de5565b9350506101a062000ee28b828c0162000c86565b9250506101c062000ef68b828c0162000de5565b9150509295985092959890939650565b600081519050919050565b7f4e487b7100000000000000000000000000000000000000000000000000000000600052602260045260246000fd5b6000600282049050600182168062000f5957607f821691505b60208210810362000f6f5762000f6e62000f11565b5b50919050565b60008190508160005260206000209050919050565b60006020601f8301049050919050565b600082821b905092915050565b60006008830262000fd97fffffffffffffffffffffffffffffffffffffffffffffffffffffffffffffffff8262000f9a565b62000fe5868362000f9a565b95508019841693508086168417925050509392505050565b6000819050919050565b600062001028620010226200101c8462000a7e565b62000ffd565b62000a7e565b9050919050565b6000819050919050565b620010448362001007565b6200105c62001053826200102f565b84845462000fa7565b825550505050565b600090565b6200107362001064565b6200108081848462001039565b505050565b5b81811015620010a8576200109c60008262001069565b60018101905062001086565b5050565b601f821115620010f757620010c18162000f75565b620010cc8462000f8a565b81016020851015620010dc578190505b620010f4620010eb8562000f8a565b83018262001085565b50505b505050565b600082821c905092915050565b60006200111c60001984600802620010fc565b1980831691505092915050565b600062001137838362001109565b9150826002028217905092915050565b620011528262000f06565b67ffffffffffffffff8111156200116e576200116d62000ad4565b5b6200117a825462000f40565b62001187828285620010ac565b600060209050601f831160018114620011bf5760008415620011aa578287015190505b620011b6858262001129565b86555062001226565b601f198416620011cf8662000f75565b60005b82811015620011f957848901518255600182019150602085019450602081019050620011d2565b8683101562001219578489015162001215601f89168262001109565b8355505b6001600288020188555050505b505050505050565b620012398162000c58565b82525050565b60006020820190506200125660008301846200122e565b92915050565b620012678162000a7e565b82525050565b60006200128e62001288620012828462000dbe565b62000ffd565b62000a7e565b9050919050565b620012a0816200126d565b82525050565b6000604082019050620012bd60008301856200125c565b620012cc602083018462001295565b9392505050565b600082825260208201905092915050565b7f54786e5461782057616c6c65742063616e277420626520656d70747900000000600082015250565b60006200131c601c83620012d3565b91506200132982620012e4565b602082019050919050565b600060208201905081810360008301526200134f816200130d565b9050919050565b7f5472616e73616374696f6e2072617465206d757374206265206772617465722060008201527f7468616e20300000000000000000000000000000000000000000000000000000602082015250565b6000620013b4602683620012d3565b9150620013c18262001356565b604082019050919050565b60006020820190508181036000830152620013e781620013a5565b9050919050565b7f4e487b7100000000000000000000000000000000000000000000000000000000600052601160045260246000fd5b60008160011c9050919050565b6000808291508390505b60018511156200147c57808604811115620014545762001453620013ee565b5b6001851615620014645780820291505b808102905062001474856200141d565b945062001434565b94509492505050565b6000826200149757600190506200156a565b81620014a757600090506200156a565b8160018114620014c05760028114620014cb5762001501565b60019150506200156a565b60ff841115620014e057620014df620013ee565b5b8360020a915084821115620014fa57620014f9620013ee565b5b506200156a565b5060208310610133831016604e8410600b84101617156200153b5782820a905083811115620015355762001534620013ee565b5b6200156a565b6200154a84848460016200142a565b92509050818404811115620015645762001563620013ee565b5b81810290505b9392505050565b60006200157e8262000a7e565b91506200158b8362000dbe565b9250620015ba7fffffffffffffffffffffffffffffffffffffffffffffffffffffffffffffffff848462001485565b905092915050565b6000620015cf8262000a7e565b9150620015dc8362000a7e565b9250828202620015ec8162000a7e565b91508282048414831517620016065762001605620013ee565b5b5092915050565b60006200161a8262000a7e565b9150620016278362000a7e565b9250828201905080821115620016425762001641620013ee565b5b92915050565b60006060820190506200165f60008301866200122e565b6200166e60208301856200125c565b6200167d60408301846200125c565b949350505050565b60006020820190506200169c60008301846200125c565b92915050565b613f4a80620016b26000396000f3fe6080604052600436106101ee5760003560e01c806374097a801161010d578063a9059cbb116100a0578063dd62ed3e1161006f578063dd62ed3e146106c3578063e0dd89ec14610700578063f2fde38b14610717578063f99e36bc14610740578063fc155d1d14610772576101ee565b8063a9059cbb1461060b578063aace63a314610648578063cda6b84714610671578063d595c3311461069a576101ee565b80638da5cb5b116100dc5780638da5cb5b1461056157806393c7346f1461058c57806395d89b41146105b7578063a8a37906146105e2576101ee565b806374097a80146104e157806377f2ca5e146104f857806378f723df1461050f57806379cc679014610538576101ee565b806326364aec116101855780637057a5c5116101545780637057a5c51461042557806370a0823114610462578063715018a61461049f578063735de9f7146104b6576101ee565b806326364aec1461037b578063313ce567146103a45780633851686f146103cf5780635c975abb146103fa576101ee565b806316f3a12d116101c157806316f3a12d146102c157806317619064146102ea57806318160ddd1461031357806323b872dd1461033e576101ee565b806306fdde03146101f3578063095ea7b31461021e5780631536ca401461025b57806316934fc414610284575b600080fd5b3480156101ff57600080fd5b5061020861078e565b6040516102159190612799565b60405180910390f35b34801561022a57600080fd5b5061024560048036038101906102409190612863565b610820565b60405161025291906128be565b60405180910390f35b34801561026757600080fd5b50610282600480360381019061027d91906128d9565b610843565b005b34801561029057600080fd5b506102ab60048036038101906102a691906128d9565b61098c565b6040516102b89190612915565b60405180910390f35b3480156102cd57600080fd5b506102e860048036038101906102e391906128d9565b6109a4565b005b3480156102f657600080fd5b50610311600480360381019061030c91906128d9565b610aee565b005b34801561031f57600080fd5b50610328610c03565b6040516103359190612915565b60405180910390f35b34801561034a57600080fd5b5061036560048036038101906103609190612930565b610c0d565b60405161037291906128be565b60405180910390f35b34801561038757600080fd5b506103a2600480360381019061039d9190612983565b610c3c565b005b3480156103b057600080fd5b506103b9610cf6565b6040516103c691906129cc565b60405180910390f35b3480156103db57600080fd5b506103e4610d0d565b6040516103f191906129cc565b60405180910390f35b34801561040657600080fd5b5061040f610d20565b60405161041c91906128be565b60405180910390f35b34801561043157600080fd5b5061044c600480360381019061044791906128d9565b610d37565b60405161045991906128be565b60405180910390f35b34801561046e57600080fd5b50610489600480360381019061048491906128d9565b610d57565b6040516104969190612915565b60405180910390f35b3480156104ab57600080fd5b506104b4610d9f565b005b3480156104c257600080fd5b506104cb610db3565b6040516104d89190612a46565b60405180910390f35b3480156104ed57600080fd5b506104f6610dd9565b005b34801561050457600080fd5b5061050d610e85565b005b34801561051b57600080fd5b5061053660048036038101906105319190612a61565b610f30565b005b34801561054457600080fd5b5061055f600480360381019061055a9190612863565b611117565b005b34801561056d57600080fd5b506105766111b0565b6040516105839190612ac3565b60405180910390f35b34801561059857600080fd5b506105a16111da565b6040516105ae9190612ac3565b60405180910390f35b3480156105c357600080fd5b506105cc611200565b6040516105d99190612799565b60405180910390f35b3480156105ee57600080fd5b5061060960048036038101906106049190612983565b611292565b005b34801561061757600080fd5b50610632600480360381019061062d9190612863565b611467565b60405161063f91906128be565b60405180910390f35b34801561065457600080fd5b5061066f600480360381019061066a9190612b0a565b61148a565b005b34801561067d57600080fd5b5061069860048036038101906106939190612983565b611550565b005b3480156106a657600080fd5b506106c160048036038101906106bc9190612983565b6116f6565b005b3480156106cf57600080fd5b506106ea60048036038101906106e59190612b37565b6117b0565b6040516106f79190612915565b60405180910390f35b34801561070c57600080fd5b50610715611837565b005b34801561072357600080fd5b5061073e600480360381019061073991906128d9565b611a41565b005b34801561074c57600080fd5b50610755611aa7565b604051610769989796959493929190612b77565b60405180910390f35b61078c60048036038101906107879190612983565b611b45565b005b60606003805461079d90612c24565b80601f01602080910402602001604051908101604052809291908181526020018280546107c990612c24565b80156108165780601f106107eb57610100808354040283529160200191610816565b820191906000526020600020905b8154815290600101906020018083116107f957829003601f168201915b5050505050905090565b60008061082b611d5b565b9050610838818585611d63565b600191505092915050565b600b60000160039054906101000a900460ff16610895576040517f08c379a000000000000000000000000000000000000000000000000000000000815260040161088c90612ced565b60405180910390fd5b61089d611d75565b6108a5611dfc565b600760008273ffffffffffffffffffffffffffffffffffffffff1673ffffffffffffffffffffffffffffffffffffffff16815260200190815260200160002060009054906101000a900460ff16610931576040517f08c379a000000000000000000000000000000000000000000000000000000000815260040161092890612d59565b60405180910390fd5b6000600760008373ffffffffffffffffffffffffffffffffffffffff1673ffffffffffffffffffffffffffffffffffffffff16815260200190815260200160002060006101000a81548160ff02191690831515021790555050565b60086020528060005260406000206000915090505481565b600b60000160039054906101000a900460ff166109f6576040517f08c379a00000000000000000000000000000000000000000000000000000000081526004016109ed90612ced565b60405180910390fd5b6109fe611d75565b610a06611dfc565b600760008273ffffffffffffffffffffffffffffffffffffffff1673ffffffffffffffffffffffffffffffffffffffff16815260200190815260200160002060009054906101000a900460ff1615610a93576040517f08c379a0000000000000000000000000000000000000000000000000000000008152600401610a8a90612deb565b60405180910390fd5b6001600760008373ffffffffffffffffffffffffffffffffffffffff1673ffffffffffffffffffffffffffffffffffffffff16815260200190815260200160002060006101000a81548160ff02191690831515021790555050565b600b60000160059054906101000a900460ff16610b40576040517f08c379a0000000000000000000000000000000000000000000000000000000008152600401610b3790612e7d565b60405180910390fd5b610b48611d75565b610b50611dfc565b600073ffffffffffffffffffffffffffffffffffffffff168173ffffffffffffffffffffffffffffffffffffffff1603610bbf576040517f08c379a0000000000000000000000000000000000000000000000000000000008152600401610bb690612ee9565b60405180910390fd5b80600960016101000a81548173ffffffffffffffffffffffffffffffffffffffff021916908373ffffffffffffffffffffffffffffffffffffffff16021790555050565b6000600254905090565b600080610c18611d5b565b9050610c25858285611e3d565b610c30858585611ed1565b60019150509392505050565b600b60000160009054906101000a900460ff16610c8e576040517f08c379a0000000000000000000000000000000000000000000000000000000008152600401610c8590612f7b565b60405180910390fd5b610c96611d75565b610c9e611dfc565b60008111610ce1576040517f08c379a0000000000000000000000000000000000000000000000000000000008152600401610cd890612fe7565b60405180910390fd5b610cf330610cee83611fc5565b611fed565b50565b6000600960159054906101000a900460ff16905090565b600960009054906101000a900460ff1681565b6000600560149054906101000a900460ff16905090565b60076020528060005260406000206000915054906101000a900460ff1681565b60008060008373ffffffffffffffffffffffffffffffffffffffff1673ffffffffffffffffffffffffffffffffffffffff168152602001908152602001600020549050919050565b610da7611d75565b610db1600061206f565b565b600a60009054906101000a900473ffffffffffffffffffffffffffffffffffffffff1681565b600b60000160029054906101000a900460ff16610e2b576040517f08c379a0000000000000000000000000000000000000000000000000000000008152600401610e229061309f565b60405180910390fd5b610e33611d75565b610e3b610d20565b15610e7b576040517f08c379a0000000000000000000000000000000000000000000000000000000008152600401610e729061310b565b60405180910390fd5b610e83612135565b565b600b60000160029054906101000a900460ff16610ed7576040517f08c379a0000000000000000000000000000000000000000000000000000000008152600401610ece9061309f565b60405180910390fd5b610edf611d75565b610ee7610d20565b610f26576040517f08c379a0000000000000000000000000000000000000000000000000000000008152600401610f1d90613177565b60405180910390fd5b610f2e612198565b565b610f38611d75565b610f40611dfc565b81610f4a30610d57565b1015610f8b576040517f08c379a0000000000000000000000000000000000000000000000000000000008152600401610f8290613209565b60405180910390fd5b600760008473ffffffffffffffffffffffffffffffffffffffff1673ffffffffffffffffffffffffffffffffffffffff16815260200190815260200160002060009054906101000a900460ff1615611018576040517f08c379a000000000000000000000000000000000000000000000000000000000815260040161100f90613275565b60405180910390fd5b6000821161105b576040517f08c379a000000000000000000000000000000000000000000000000000000000815260040161105290613307565b60405180910390fd5b60008290506000828261106e9190613385565b9050600b60000160059054906101000a900460ff16156110f35760006064600960009054906101000a900460ff1660ff16846110aa91906133b6565b6110b49190613385565b905080836110c291906133f8565b92506110f130600960019054906101000a900473ffffffffffffffffffffffffffffffffffffffff1683611ed1565b505b6110fe308684611ed1565b6111108561110a6111b0565b83611d63565b5050505050565b61111f611d75565b60006111328361112d6111b0565b6117b0565b905081811015611177576040517f08c379a000000000000000000000000000000000000000000000000000000000815260040161116e90613478565b60405180910390fd5b600061118284610d57565b9050600081036111a05761119f846111986111b0565b6000611d63565b5b6111aa84846121fb565b50505050565b6000600560009054906101000a900473ffffffffffffffffffffffffffffffffffffffff16905090565b600960019054906101000a900473ffffffffffffffffffffffffffffffffffffffff1681565b60606004805461120f90612c24565b80601f016020809104026020016040519081016040528092919081815260200182805461123b90612c24565b80156112885780601f1061125d57610100808354040283529160200191611288565b820191906000526020600020905b81548152906001019060200180831161126b57829003601f168201915b5050505050905090565b600b60000160079054906101000a900460ff166112e4576040517f08c379a00000000000000000000000000000000000000000000000000000000081526004016112db90613530565b60405180910390fd5b6112ec61227d565b600760003373ffffffffffffffffffffffffffffffffffffffff1673ffffffffffffffffffffffffffffffffffffffff16815260200190815260200160002060009054906101000a900460ff1615611379576040517f08c379a00000000000000000000000000000000000000000000000000000000081526004016113709061359c565b60405180910390fd5b80600860003373ffffffffffffffffffffffffffffffffffffffff1673ffffffffffffffffffffffffffffffffffffffff1681526020019081526020016000205410156113fb576040517f08c379a00000000000000000000000000000000000000000000000000000000081526004016113f29061362e565b60405180910390fd5b80600860003373ffffffffffffffffffffffffffffffffffffffff1673ffffffffffffffffffffffffffffffffffffffff168152602001908152602001600020600082825461144a91906133f8565b9250508190555061145c303383611ed1565b6114646122c3565b50565b600080611472611d5b565b905061147f818585611ed1565b600191505092915050565b600b60000160059054906101000a900460ff166114dc576040517f08c379a00000000000000000000000000000000000000000000000000000000081526004016114d390612e7d565b60405180910390fd5b6114e4611d75565b6114ec611dfc565b60008160ff1611611532576040517f08c379a00000000000000000000000000000000000000000000000000000000081526004016115299061369a565b60405180910390fd5b80600960006101000a81548160ff021916908360ff16021790555050565b600b60000160079054906101000a900460ff166115a2576040517f08c379a000000000000000000000000000000000000000000000000000000000815260040161159990613530565b60405180910390fd5b6115aa61227d565b6115b2611dfc565b600760003373ffffffffffffffffffffffffffffffffffffffff1673ffffffffffffffffffffffffffffffffffffffff16815260200190815260200160002060009054906101000a900460ff161561163f576040517f08c379a00000000000000000000000000000000000000000000000000000000081526004016116369061359c565b60405180910390fd5b8061164933610d57565b101561168a576040517f08c379a00000000000000000000000000000000000000000000000000000000081526004016116819061372c565b60405180910390fd5b80600860003373ffffffffffffffffffffffffffffffffffffffff1673ffffffffffffffffffffffffffffffffffffffff16815260200190815260200160002060008282546116d9919061374c565b925050819055506116eb333083611ed1565b6116f36122c3565b50565b600b60000160019054906101000a900460ff16611748576040517f08c379a000000000000000000000000000000000000000000000000000000000815260040161173f906137f2565b60405180910390fd5b611750611d75565b611758611dfc565b6000811161179b576040517f08c379a00000000000000000000000000000000000000000000000000000000081526004016117929061385e565b60405180910390fd5b6117ad306117a883611fc5565b6121fb565b50565b6000600160008473ffffffffffffffffffffffffffffffffffffffff1673ffffffffffffffffffffffffffffffffffffffff16815260200190815260200160002060008373ffffffffffffffffffffffffffffffffffffffff1673ffffffffffffffffffffffffffffffffffffffff16815260200190815260200160002054905092915050565b600b60000160079054906101000a900460ff16611889576040517f08c379a000000000000000000000000000000000000000000000000000000000815260040161188090613530565b60405180910390fd5b61189161227d565b611899611dfc565b600760003373ffffffffffffffffffffffffffffffffffffffff1673ffffffffffffffffffffffffffffffffffffffff16815260200190815260200160002060009054906101000a900460ff1615611926576040517f08c379a000000000000000000000000000000000000000000000000000000000815260040161191d9061359c565b60405180910390fd5b6000600860003373ffffffffffffffffffffffffffffffffffffffff1673ffffffffffffffffffffffffffffffffffffffff16815260200190815260200160002054116119a8576040517f08c379a000000000000000000000000000000000000000000000000000000000815260040161199f906138f0565b60405180910390fd5b6000600860003373ffffffffffffffffffffffffffffffffffffffff1673ffffffffffffffffffffffffffffffffffffffff16815260200190815260200160002081905550611a373033600860003373ffffffffffffffffffffffffffffffffffffffff1673ffffffffffffffffffffffffffffffffffffffff16815260200190815260200160002054611ed1565b611a3f6122c3565b565b600b60000160049054906101000a900460ff16611a93576040517f08c379a0000000000000000000000000000000000000000000000000000000008152600401611a8a906139a8565b60405180910390fd5b611a9b611d75565b611aa48161206f565b50565b600b8060000160009054906101000a900460ff16908060000160019054906101000a900460ff16908060000160029054906101000a900460ff16908060000160039054906101000a900460ff16908060000160049054906101000a900460ff16908060000160059054906101000a900460ff16908060000160069054906101000a900460ff16908060000160079054906101000a900460ff16905088565b600b60000160069054906101000a900460ff16611b97576040517f08c379a0000000000000000000000000000000000000000000000000000000008152600401611b8e90613a60565b60405180910390fd5b611b9f611dfc565b6000600267ffffffffffffffff811115611bbc57611bbb613a80565b5b604051908082528060200260200182016040528015611bea5781602001602082028036833780820191505090505b50905073ab8483f64d9c6d1ecf9b849ae677dd3315835cb281600081518110611c1657611c15613aaf565b5b602002602001019073ffffffffffffffffffffffffffffffffffffffff16908173ffffffffffffffffffffffffffffffffffffffff16815250503081600181518110611c6557611c64613aaf565b5b602002602001019073ffffffffffffffffffffffffffffffffffffffff16908173ffffffffffffffffffffffffffffffffffffffff1681525050600a60009054906101000a900473ffffffffffffffffffffffffffffffffffffffff1673ffffffffffffffffffffffffffffffffffffffff16637ff36ab53484843061012c42611cef919061374c565b6040518663ffffffff1660e01b8152600401611d0e9493929190613b9c565b60006040518083038185885af1158015611d2c573d6000803e3d6000fd5b50505050506040513d6000823e3d601f19601f82011682018060405250810190611d569190613d16565b505050565b600033905090565b611d7083838360016122cd565b505050565b611d7d611d5b565b73ffffffffffffffffffffffffffffffffffffffff16611d9b6111b0565b73ffffffffffffffffffffffffffffffffffffffff1614611dfa57611dbe611d5b565b6040517f118cdaa7000000000000000000000000000000000000000000000000000000008152600401611df19190612ac3565b60405180910390fd5b565b611e04610d20565b15611e3b576040517fd93c066500000000000000000000000000000000000000000000000000000000815260040160405180910390fd5b565b6000611e4984846117b0565b90507fffffffffffffffffffffffffffffffffffffffffffffffffffffffffffffffff8114611ecb5781811015611ebb578281836040517ffb8f41b2000000000000000000000000000000000000000000000000000000008152600401611eb293929190613d5f565b60405180910390fd5b611eca848484840360006122cd565b5b50505050565b600073ffffffffffffffffffffffffffffffffffffffff168373ffffffffffffffffffffffffffffffffffffffff1603611f435760006040517f96c6fd1e000000000000000000000000000000000000000000000000000000008152600401611f3a9190612ac3565b60405180910390fd5b600073ffffffffffffffffffffffffffffffffffffffff168273ffffffffffffffffffffffffffffffffffffffff1603611fb55760006040517fec442f05000000000000000000000000000000000000000000000000000000008152600401611fac9190612ac3565b60405180910390fd5b611fc08383836124a4565b505050565b6000611fcf610cf6565b600a611fdb9190613ec9565b82611fe691906133b6565b9050919050565b600073ffffffffffffffffffffffffffffffffffffffff168273ffffffffffffffffffffffffffffffffffffffff160361205f5760006040517fec442f050000000000000000000000000000000000000000000000000000000081526004016120569190612ac3565b60405180910390fd5b61206b600083836124a4565b5050565b6000600560009054906101000a900473ffffffffffffffffffffffffffffffffffffffff16905081600560006101000a81548173ffffffffffffffffffffffffffffffffffffffff021916908373ffffffffffffffffffffffffffffffffffffffff1602179055508173ffffffffffffffffffffffffffffffffffffffff168173ffffffffffffffffffffffffffffffffffffffff167f8be0079c531659141344cd1fd0a4f28419497f9722a3daafe3b4186f6b6457e060405160405180910390a35050565b61213d611dfc565b6001600560146101000a81548160ff0219169083151502179055507f62e78cea01bee320cd4e420270b5ea74000d11b0c9f74754ebdbfc544b05a258612181611d5b565b60405161218e9190612ac3565b60405180910390a1565b6121a06126c9565b6000600560146101000a81548160ff0219169083151502179055507f5db9ee0a495bf2e6ff9c91a7834c1ba4fdd244a5e8aa4e537bd38aeae4b073aa6121e4611d5b565b6040516121f19190612ac3565b60405180910390a1565b600073ffffffffffffffffffffffffffffffffffffffff168273ffffffffffffffffffffffffffffffffffffffff160361226d5760006040517f96c6fd1e0000000000000000000000000000000000000000000000000000000081526004016122649190612ac3565b60405180910390fd5b612279826000836124a4565b5050565b6002600654036122b9576040517f3ee5aeb500000000000000000000000000000000000000000000000000000000815260040160405180910390fd5b6002600681905550565b6001600681905550565b600073ffffffffffffffffffffffffffffffffffffffff168473ffffffffffffffffffffffffffffffffffffffff160361233f5760006040517fe602df050000000000000000000000000000000000000000000000000000000081526004016123369190612ac3565b60405180910390fd5b600073ffffffffffffffffffffffffffffffffffffffff168373ffffffffffffffffffffffffffffffffffffffff16036123b15760006040517f94280d620000000000000000000000000000000000000000000000000000000081526004016123a89190612ac3565b60405180910390fd5b81600160008673ffffffffffffffffffffffffffffffffffffffff1673ffffffffffffffffffffffffffffffffffffffff16815260200190815260200160002060008573ffffffffffffffffffffffffffffffffffffffff1673ffffffffffffffffffffffffffffffffffffffff16815260200190815260200160002081905550801561249e578273ffffffffffffffffffffffffffffffffffffffff168473ffffffffffffffffffffffffffffffffffffffff167f8c5be1e5ebec7d5bd14f71427d1e84f3dd0314c0f7b2291e5b200ac8c7c3b925846040516124959190612915565b60405180910390a35b50505050565b600073ffffffffffffffffffffffffffffffffffffffff168373ffffffffffffffffffffffffffffffffffffffff16036124f65780600260008282546124ea919061374c565b925050819055506125c9565b60008060008573ffffffffffffffffffffffffffffffffffffffff1673ffffffffffffffffffffffffffffffffffffffff16815260200190815260200160002054905081811015612582578381836040517fe450d38c00000000000000000000000000000000000000000000000000000000815260040161257993929190613d5f565b60405180910390fd5b8181036000808673ffffffffffffffffffffffffffffffffffffffff1673ffffffffffffffffffffffffffffffffffffffff16815260200190815260200160002081905550505b600073ffffffffffffffffffffffffffffffffffffffff168273ffffffffffffffffffffffffffffffffffffffff1603612612578060026000828254039250508190555061265f565b806000808473ffffffffffffffffffffffffffffffffffffffff1673ffffffffffffffffffffffffffffffffffffffff168152602001908152602001600020600082825401925050819055505b8173ffffffffffffffffffffffffffffffffffffffff168373ffffffffffffffffffffffffffffffffffffffff167fddf252ad1be2c89b69c2b068fc378daa952ba7f163c4a11628f55a4df523b3ef836040516126bc9190612915565b60405180910390a3505050565b6126d1610d20565b612707576040517f8dfc202b00000000000000000000000000000000000000000000000000000000815260040160405180910390fd5b565b600081519050919050565b600082825260208201905092915050565b60005b83811015612743578082015181840152602081019050612728565b60008484015250505050565b6000601f19601f8301169050919050565b600061276b82612709565b6127758185612714565b9350612785818560208601612725565b61278e8161274f565b840191505092915050565b600060208201905081810360008301526127b38184612760565b905092915050565b6000604051905090565b600080fd5b600080fd5b600073ffffffffffffffffffffffffffffffffffffffff82169050919050565b60006127fa826127cf565b9050919050565b61280a816127ef565b811461281557600080fd5b50565b60008135905061282781612801565b92915050565b6000819050919050565b6128408161282d565b811461284b57600080fd5b50565b60008135905061285d81612837565b92915050565b6000806040838503121561287a576128796127c5565b5b600061288885828601612818565b92505060206128998582860161284e565b9150509250929050565b60008115159050919050565b6128b8816128a3565b82525050565b60006020820190506128d360008301846128af565b92915050565b6000602082840312156128ef576128ee6127c5565b5b60006128fd84828501612818565b91505092915050565b61290f8161282d565b82525050565b600060208201905061292a6000830184612906565b92915050565b600080600060608486031215612949576129486127c5565b5b600061295786828701612818565b935050602061296886828701612818565b92505060406129798682870161284e565b9150509250925092565b600060208284031215612999576129986127c5565b5b60006129a78482850161284e565b91505092915050565b600060ff82169050919050565b6129c6816129b0565b82525050565b60006020820190506129e160008301846129bd565b92915050565b6000819050919050565b6000612a0c612a07612a02846127cf565b6129e7565b6127cf565b9050919050565b6000612a1e826129f1565b9050919050565b6000612a3082612a13565b9050919050565b612a4081612a25565b82525050565b6000602082019050612a5b6000830184612a37565b92915050565b600080600060608486031215612a7a57612a796127c5565b5b6000612a8886828701612818565b9350506020612a998682870161284e565b9250506040612aaa8682870161284e565b9150509250925092565b612abd816127ef565b82525050565b6000602082019050612ad86000830184612ab4565b92915050565b612ae7816129b0565b8114612af257600080fd5b50565b600081359050612b0481612ade565b92915050565b600060208284031215612b2057612b1f6127c5565b5b6000612b2e84828501612af5565b91505092915050565b60008060408385031215612b4e57612b4d6127c5565b5b6000612b5c85828601612818565b9250506020612b6d85828601612818565b9150509250929050565b600061010082019050612b8d600083018b6128af565b612b9a602083018a6128af565b612ba760408301896128af565b612bb460608301886128af565b612bc160808301876128af565b612bce60a08301866128af565b612bdb60c08301856128af565b612be860e08301846128af565b9998505050505050505050565b7f4e487b7100000000000000000000000000000000000000000000000000000000600052602260045260246000fd5b60006002820490506001821680612c3c57607f821691505b602082108103612c4f57612c4e612bf5565b5b50919050565b7f426c61636b6c69737420416464726573732046756e6374696f6e616c6974792060008201527f6973206e6f7420656e61626c656420696e207468697320736d61727420636f6e60208201527f7472616374210000000000000000000000000000000000000000000000000000604082015250565b6000612cd7604683612714565b9150612ce282612c55565b606082019050919050565b60006020820190508181036000830152612d0681612cca565b9050919050565b7f557365722041646472657373206973206e6f7420626c61636b6c697374656400600082015250565b6000612d43601f83612714565b9150612d4e82612d0d565b602082019050919050565b60006020820190508181036000830152612d7281612d36565b9050919050565b7f55736572204164647265737320697320616c726561647920626c61636b6c697360008201527f7465640000000000000000000000000000000000000000000000000000000000602082015250565b6000612dd5602383612714565b9150612de082612d79565b604082019050919050565b60006020820190508181036000830152612e0481612dc8565b9050919050565b7f54786e205461782046756e6374696f6e616c697479206973206e6f7420656e6160008201527f626c656420696e207468697320736d61727420636f6e74726163742100000000602082015250565b6000612e67603c83612714565b9150612e7282612e0b565b604082019050919050565b60006020820190508181036000830152612e9681612e5a565b9050919050565b7f54786e207461782077616c6c65742063616e277420626520656d707479000000600082015250565b6000612ed3601d83612714565b9150612ede82612e9d565b602082019050919050565b60006020820190508181036000830152612f0281612ec6565b9050919050565b7f4d696e74696e672046756e6374696f6e616c697479206973206e6f7420656e6160008201527f626c656420696e207468697320736d61727420636f6e74726163742100000000602082015250565b6000612f65603c83612714565b9150612f7082612f09565b604082019050919050565b60006020820190508181036000830152612f9481612f58565b9050919050565b7f4d696e74206d6f7265207468616e205a65726f00000000000000000000000000600082015250565b6000612fd1601383612714565b9150612fdc82612f9b565b602082019050919050565b6000602082019050818103600083015261300081612fc4565b9050919050565b7f50617573652f556e70617573652046756e6374696f6e616c697479206973206e60008201527f6f7420656e61626c656420696e207468697320736d61727420636f6e7472616360208201527f7421000000000000000000000000000000000000000000000000000000000000604082015250565b6000613089604283612714565b915061309482613007565b606082019050919050565b600060208201905081810360008301526130b88161307c565b9050919050565b7f436f6e747261637420697320616c7265616479207061757365642e0000000000600082015250565b60006130f5601b83612714565b9150613100826130bf565b602082019050919050565b60006020820190508181036000830152613124816130e8565b9050919050565b7f436f6e7472616374206973206e6f74207061757365642e000000000000000000600082015250565b6000613161601783612714565b915061316c8261312b565b602082019050919050565b6000602082019050818103600083015261319081613154565b9050919050565b7f436f6e747261637420646f6573206e6f74206861766520656e6f75676820746f60008201527f6b656e7300000000000000000000000000000000000000000000000000000000602082015250565b60006131f3602483612714565b91506131fe82613197565b604082019050919050565b60006020820190508181036000830152613222816131e6565b9050919050565b7f5573657220697320626c61636b6c697374656400000000000000000000000000600082015250565b600061325f601383612714565b915061326a82613229565b602082019050919050565b6000602082019050818103600083015261328e81613252565b9050919050565b7f5472616e7366657220616d6f756e7420697320677261746572207468616e207a60008201527f65726f0000000000000000000000000000000000000000000000000000000000602082015250565b60006132f1602383612714565b91506132fc82613295565b604082019050919050565b60006020820190508181036000830152613320816132e4565b9050919050565b7f4e487b7100000000000000000000000000000000000000000000000000000000600052601260045260246000fd5b7f4e487b7100000000000000000000000000000000000000000000000000000000600052601160045260246000fd5b60006133908261282d565b915061339b8361282d565b9250826133ab576133aa613327565b5b828204905092915050565b60006133c18261282d565b91506133cc8361282d565b92508282026133da8161282d565b915082820484148315176133f1576133f0613356565b5b5092915050565b60006134038261282d565b915061340e8361282d565b925082820390508181111561342657613425613356565b5b92915050565b7f4275726e20616d6f756e74206578636565647320616c6c6f77616e6365000000600082015250565b6000613462601d83612714565b915061346d8261342c565b602082019050919050565b6000602082019050818103600083015261349181613455565b9050919050565b7f5374616b696e67207265776172642046756e6374696f6e616c6974792069732060008201527f6e6f7420656e61626c656420696e207468697320736d61727420636f6e74726160208201527f6374210000000000000000000000000000000000000000000000000000000000604082015250565b600061351a604383612714565b915061352582613498565b606082019050919050565b600060208201905081810360008301526135498161350d565b9050919050565b7f5573657220697320626c61636b6c697374656421000000000000000000000000600082015250565b6000613586601483612714565b915061359182613550565b602082019050919050565b600060208201905081810360008301526135b581613579565b9050919050565b7f5573657220646f65736e2774206861766520656e6f756768207374616b65642060008201527f746f6b656e210000000000000000000000000000000000000000000000000000602082015250565b6000613618602683612714565b9150613623826135bc565b604082019050919050565b600060208201905081810360008301526136478161360b565b9050919050565b7f52617465206d75737420626520677261746572207468616e2030000000000000600082015250565b6000613684601a83612714565b915061368f8261364e565b602082019050919050565b600060208201905081810360008301526136b381613677565b9050919050565b7f496e73756666696369656e7420746f6b656e2062616c616e636520746f20737460008201527f616b650000000000000000000000000000000000000000000000000000000000602082015250565b6000613716602383612714565b9150613721826136ba565b604082019050919050565b6000602082019050818103600083015261374581613709565b9050919050565b60006137578261282d565b91506137628361282d565b925082820190508082111561377a57613779613356565b5b92915050565b7f4275726e696e672046756e6374696f6e616c697479206973206e6f7420656e6160008201527f626c656420696e207468697320736d61727420636f6e74726163742100000000602082015250565b60006137dc603c83612714565b91506137e782613780565b604082019050919050565b6000602082019050818103600083015261380b816137cf565b9050919050565b7f4275726e206d6f7265207468616e205a65726f00000000000000000000000000600082015250565b6000613848601383612714565b915061385382613812565b602082019050919050565b600060208201905081810360008301526138778161383b565b9050919050565b7f5573657220646f65736e2774206861766520616e79207374616b656420746f6b60008201527f656e210000000000000000000000000000000000000000000000000000000000602082015250565b60006138da602383612714565b91506138e58261387e565b604082019050919050565b60006020820190508181036000830152613909816138cd565b9050919050565b7f4368616e6765204f776e65722046756e6374696f6e616c697479206973206e6f60008201527f7420656e61626c656420696e207468697320736d61727420636f6e747261637460208201527f2100000000000000000000000000000000000000000000000000000000000000604082015250565b6000613992604183612714565b915061399d82613910565b606082019050919050565b600060208201905081810360008301526139c181613985565b9050919050565b7f4275796261636b20546f6b656e2046756e6374696f6e616c697479206973206e60008201527f6f7420656e61626c656420696e207468697320736d61727420636f6e7472616360208201527f7421000000000000000000000000000000000000000000000000000000000000604082015250565b6000613a4a604283612714565b9150613a55826139c8565b606082019050919050565b60006020820190508181036000830152613a7981613a3d565b9050919050565b7f4e487b7100000000000000000000000000000000000000000000000000000000600052604160045260246000fd5b7f4e487b7100000000000000000000000000000000000000000000000000000000600052603260045260246000fd5b600081519050919050565b600082825260208201905092915050565b6000819050602082019050919050565b613b13816127ef565b82525050565b6000613b258383613b0a565b60208301905092915050565b6000602082019050919050565b6000613b4982613ade565b613b538185613ae9565b9350613b5e83613afa565b8060005b83811015613b8f578151613b768882613b19565b9750613b8183613b31565b925050600181019050613b62565b5085935050505092915050565b6000608082019050613bb16000830187612906565b8181036020830152613bc38186613b3e565b9050613bd26040830185612ab4565b613bdf6060830184612906565b95945050505050565b600080fd5b613bf68261274f565b810181811067ffffffffffffffff82111715613c1557613c14613a80565b5b80604052505050565b6000613c286127bb565b9050613c348282613bed565b919050565b600067ffffffffffffffff821115613c5457613c53613a80565b5b602082029050602081019050919050565b600080fd5b600081519050613c7981612837565b92915050565b6000613c92613c8d84613c39565b613c1e565b90508083825260208201905060208402830185811115613cb557613cb4613c65565b5b835b81811015613cde5780613cca8882613c6a565b845260208401935050602081019050613cb7565b5050509392505050565b600082601f830112613cfd57613cfc613be8565b5b8151613d0d848260208601613c7f565b91505092915050565b600060208284031215613d2c57613d2b6127c5565b5b600082015167ffffffffffffffff811115613d4a57613d496127ca565b5b613d5684828501613ce8565b91505092915050565b6000606082019050613d746000830186612ab4565b613d816020830185612906565b613d8e6040830184612906565b949350505050565b60008160011c9050919050565b6000808291508390505b6001851115613ded57808604811115613dc957613dc8613356565b5b6001851615613dd85780820291505b8081029050613de685613d96565b9450613dad565b94509492505050565b600082613e065760019050613ec2565b81613e145760009050613ec2565b8160018114613e2a5760028114613e3457613e63565b6001915050613ec2565b60ff841115613e4657613e45613356565b5b8360020a915084821115613e5d57613e5c613356565b5b50613ec2565b5060208310610133831016604e8410600b8410161715613e985782820a905083811115613e9357613e92613356565b5b613ec2565b613ea58484846001613da3565b92509050818404811115613ebc57613ebb613356565b5b81810290505b9392505050565b6000613ed48261282d565b9150613edf836129b0565b9250613f0c7fffffffffffffffffffffffffffffffffffffffffffffffffffffffffffffffff8484613df6565b90509291505056fea264697066735822122085c77d2bded8548adab3b8a852d7532ba6766cb5365cebc5b0f9ec82f4558b5a64736f6c63430008140033",
          "opcodes": "PUSH1 0x80 PUSH1 0x40 MSTORE CALLVALUE DUP1 ISZERO PUSH3 0x11 JUMPI PUSH1 0x0 DUP1 REVERT JUMPDEST POP PUSH1 0x40 MLOAD PUSH3 0x55FC CODESIZE SUB DUP1 PUSH3 0x55FC DUP4 CODECOPY DUP2 DUP2 ADD PUSH1 0x40 MSTORE DUP2 ADD SWAP1 PUSH3 0x37 SWAP2 SWAP1 PUSH3 0xDFC JUMP JUMPDEST DUP5 DUP7 DUP9 DUP2 PUSH1 0x3 SWAP1 DUP2 PUSH3 0x4B SWAP2 SWAP1 PUSH3 0x1147 JUMP JUMPDEST POP DUP1 PUSH1 0x4 SWAP1 DUP2 PUSH3 0x5D SWAP2 SWAP1 PUSH3 0x1147 JUMP JUMPDEST POP POP POP PUSH1 0x0 PUSH20 0xFFFFFFFFFFFFFFFFFFFFFFFFFFFFFFFFFFFFFFFF AND DUP2 PUSH20 0xFFFFFFFFFFFFFFFFFFFFFFFFFFFFFFFFFFFFFFFF AND SUB PUSH3 0xD5 JUMPI PUSH1 0x0 PUSH1 0x40 MLOAD PUSH32 0x1E4FBDF700000000000000000000000000000000000000000000000000000000 DUP2 MSTORE PUSH1 0x4 ADD PUSH3 0xCC SWAP2 SWAP1 PUSH3 0x123F JUMP JUMPDEST PUSH1 0x40 MLOAD DUP1 SWAP2 SUB SWAP1 REVERT JUMPDEST PUSH3 0xE6 DUP2 PUSH3 0x167 PUSH1 0x20 SHL PUSH1 0x20 SHR JUMP JUMPDEST POP PUSH1 0x0 PUSH1 0x5 PUSH1 0x14 PUSH2 0x100 EXP DUP2 SLOAD DUP2 PUSH1 0xFF MUL NOT AND SWAP1 DUP4 ISZERO ISZERO MUL OR SWAP1 SSTORE POP PUSH1 0x1 PUSH1 0x6 DUP2 SWAP1 SSTORE POP DUP1 PUSH1 0x9 PUSH1 0x15 PUSH2 0x100 EXP DUP2 SLOAD DUP2 PUSH1 0xFF MUL NOT AND SWAP1 DUP4 PUSH1 0xFF AND MUL OR SWAP1 SSTORE POP PUSH3 0x136 DUP9 PUSH3 0x22D PUSH1 0x20 SHL PUSH1 0x20 SHR JUMP JUMPDEST PUSH3 0x148 DUP4 DUP4 PUSH3 0x2D3 PUSH1 0x20 SHL PUSH1 0x20 SHR JUMP JUMPDEST PUSH3 0x159 DUP5 PUSH3 0x3EE PUSH1 0x20 SHL PUSH1 0x20 SHR JUMP JUMPDEST POP POP POP POP POP POP POP POP PUSH3 0x16A2 JUMP JUMPDEST PUSH1 0x0 PUSH1 0x5 PUSH1 0x0 SWAP1 SLOAD SWAP1 PUSH2 0x100 EXP SWAP1 DIV PUSH20 0xFFFFFFFFFFFFFFFFFFFFFFFFFFFFFFFFFFFFFFFF AND SWAP1 POP DUP2 PUSH1 0x5 PUSH1 0x0 PUSH2 0x100 EXP DUP2 SLOAD DUP2 PUSH20 0xFFFFFFFFFFFFFFFFFFFFFFFFFFFFFFFFFFFFFFFF MUL NOT AND SWAP1 DUP4 PUSH20 0xFFFFFFFFFFFFFFFFFFFFFFFFFFFFFFFFFFFFFFFF AND MUL OR SWAP1 SSTORE POP DUP2 PUSH20 0xFFFFFFFFFFFFFFFFFFFFFFFFFFFFFFFFFFFFFFFF AND DUP2 PUSH20 0xFFFFFFFFFFFFFFFFFFFFFFFFFFFFFFFFFFFFFFFF AND PUSH32 0x8BE0079C531659141344CD1FD0A4F28419497F9722A3DAAFE3B4186F6B6457E0 PUSH1 0x40 MLOAD PUSH1 0x40 MLOAD DUP1 SWAP2 SUB SWAP1 LOG3 POP POP JUMP JUMPDEST PUSH1 0x0 PUSH3 0x240 DUP3 PUSH3 0x4F9 PUSH1 0x20 SHL PUSH1 0x20 SHR JUMP JUMPDEST SWAP1 POP PUSH3 0x254 ADDRESS DUP3 PUSH3 0x52D PUSH1 0x20 SHL PUSH1 0x20 SHR JUMP JUMPDEST PUSH3 0x275 PUSH3 0x268 PUSH3 0x5BA PUSH1 0x20 SHL PUSH1 0x20 SHR JUMP JUMPDEST DUP3 PUSH3 0x5E4 PUSH1 0x20 SHL PUSH1 0x20 SHR JUMP JUMPDEST POP PUSH32 0x255D63610A0ACC0D201B7200021A02F21438763BD8545AF3F4B664719A9DFCAD PUSH3 0x2A7 PUSH3 0x617 PUSH1 0x20 SHL PUSH1 0x20 SHR JUMP JUMPDEST PUSH3 0x2B7 PUSH3 0x621 PUSH1 0x20 SHL PUSH1 0x20 SHR JUMP JUMPDEST PUSH1 0x40 MLOAD PUSH3 0x2C7 SWAP3 SWAP2 SWAP1 PUSH3 0x12A6 JUMP JUMPDEST PUSH1 0x40 MLOAD DUP1 SWAP2 SUB SWAP1 LOG1 POP POP JUMP JUMPDEST PUSH1 0x0 PUSH20 0xFFFFFFFFFFFFFFFFFFFFFFFFFFFFFFFFFFFFFFFF AND DUP2 PUSH20 0xFFFFFFFFFFFFFFFFFFFFFFFFFFFFFFFFFFFFFFFF AND SUB PUSH3 0x345 JUMPI PUSH1 0x40 MLOAD PUSH32 0x8C379A000000000000000000000000000000000000000000000000000000000 DUP2 MSTORE PUSH1 0x4 ADD PUSH3 0x33C SWAP1 PUSH3 0x1334 JUMP JUMPDEST PUSH1 0x40 MLOAD DUP1 SWAP2 SUB SWAP1 REVERT JUMPDEST PUSH1 0x0 DUP3 PUSH1 0xFF AND GT PUSH3 0x38E JUMPI PUSH1 0x40 MLOAD PUSH32 0x8C379A000000000000000000000000000000000000000000000000000000000 DUP2 MSTORE PUSH1 0x4 ADD PUSH3 0x385 SWAP1 PUSH3 0x13CC JUMP JUMPDEST PUSH1 0x40 MLOAD DUP1 SWAP2 SUB SWAP1 REVERT JUMPDEST DUP1 PUSH1 0x9 PUSH1 0x1 PUSH2 0x100 EXP DUP2 SLOAD DUP2 PUSH20 0xFFFFFFFFFFFFFFFFFFFFFFFFFFFFFFFFFFFFFFFF MUL NOT AND SWAP1 DUP4 PUSH20 0xFFFFFFFFFFFFFFFFFFFFFFFFFFFFFFFFFFFFFFFF AND MUL OR SWAP1 SSTORE POP DUP2 PUSH1 0x9 PUSH1 0x0 PUSH2 0x100 EXP DUP2 SLOAD DUP2 PUSH1 0xFF MUL NOT AND SWAP1 DUP4 PUSH1 0xFF AND MUL OR SWAP1 SSTORE POP POP POP JUMP JUMPDEST DUP1 PUSH1 0xE0 ADD MLOAD PUSH1 0xB PUSH1 0x0 ADD PUSH1 0x7 PUSH2 0x100 EXP DUP2 SLOAD DUP2 PUSH1 0xFF MUL NOT AND SWAP1 DUP4 ISZERO ISZERO MUL OR SWAP1 SSTORE POP DUP1 PUSH1 0x20 ADD MLOAD PUSH1 0xB PUSH1 0x0 ADD PUSH1 0x1 PUSH2 0x100 EXP DUP2 SLOAD DUP2 PUSH1 0xFF MUL NOT AND SWAP1 DUP4 ISZERO ISZERO MUL OR SWAP1 SSTORE POP DUP1 PUSH1 0x0 ADD MLOAD PUSH1 0xB PUSH1 0x0 ADD PUSH1 0x0 PUSH2 0x100 EXP DUP2 SLOAD DUP2 PUSH1 0xFF MUL NOT AND SWAP1 DUP4 ISZERO ISZERO MUL OR SWAP1 SSTORE POP DUP1 PUSH1 0x40 ADD MLOAD PUSH1 0xB PUSH1 0x0 ADD PUSH1 0x2 PUSH2 0x100 EXP DUP2 SLOAD DUP2 PUSH1 0xFF MUL NOT AND SWAP1 DUP4 ISZERO ISZERO MUL OR SWAP1 SSTORE POP DUP1 PUSH1 0x60 ADD MLOAD PUSH1 0xB PUSH1 0x0 ADD PUSH1 0x3 PUSH2 0x100 EXP DUP2 SLOAD DUP2 PUSH1 0xFF MUL NOT AND SWAP1 DUP4 ISZERO ISZERO MUL OR SWAP1 SSTORE POP DUP1 PUSH1 0x80 ADD MLOAD PUSH1 0xB PUSH1 0x0 ADD PUSH1 0x4 PUSH2 0x100 EXP DUP2 SLOAD DUP2 PUSH1 0xFF MUL NOT AND SWAP1 DUP4 ISZERO ISZERO MUL OR SWAP1 SSTORE POP DUP1 PUSH1 0xA0 ADD MLOAD PUSH1 0xB PUSH1 0x0 ADD PUSH1 0x5 PUSH2 0x100 EXP DUP2 SLOAD DUP2 PUSH1 0xFF MUL NOT AND SWAP1 DUP4 ISZERO ISZERO MUL OR SWAP1 SSTORE POP DUP1 PUSH1 0xC0 ADD MLOAD PUSH1 0xB PUSH1 0x0 ADD PUSH1 0x6 PUSH2 0x100 EXP DUP2 SLOAD DUP2 PUSH1 0xFF MUL NOT AND SWAP1 DUP4 ISZERO ISZERO MUL OR SWAP1 SSTORE POP POP JUMP JUMPDEST PUSH1 0x0 PUSH3 0x50B PUSH3 0x621 PUSH1 0x20 SHL PUSH1 0x20 SHR JUMP JUMPDEST PUSH1 0xA PUSH3 0x519 SWAP2 SWAP1 PUSH3 0x1571 JUMP JUMPDEST DUP3 PUSH3 0x526 SWAP2 SWAP1 PUSH3 0x15C2 JUMP JUMPDEST SWAP1 POP SWAP2 SWAP1 POP JUMP JUMPDEST PUSH1 0x0 PUSH20 0xFFFFFFFFFFFFFFFFFFFFFFFFFFFFFFFFFFFFFFFF AND DUP3 PUSH20 0xFFFFFFFFFFFFFFFFFFFFFFFFFFFFFFFFFFFFFFFF AND SUB PUSH3 0x5A2 JUMPI PUSH1 0x0 PUSH1 0x40 MLOAD PUSH32 0xEC442F0500000000000000000000000000000000000000000000000000000000 DUP2 MSTORE PUSH1 0x4 ADD PUSH3 0x599 SWAP2 SWAP1 PUSH3 0x123F JUMP JUMPDEST PUSH1 0x40 MLOAD DUP1 SWAP2 SUB SWAP1 REVERT JUMPDEST PUSH3 0x5B6 PUSH1 0x0 DUP4 DUP4 PUSH3 0x638 PUSH1 0x20 SHL PUSH1 0x20 SHR JUMP JUMPDEST POP POP JUMP JUMPDEST PUSH1 0x0 PUSH1 0x5 PUSH1 0x0 SWAP1 SLOAD SWAP1 PUSH2 0x100 EXP SWAP1 DIV PUSH20 0xFFFFFFFFFFFFFFFFFFFFFFFFFFFFFFFFFFFFFFFF AND SWAP1 POP SWAP1 JUMP JUMPDEST PUSH1 0x0 DUP1 PUSH3 0x5F7 PUSH3 0x868 PUSH1 0x20 SHL PUSH1 0x20 SHR JUMP JUMPDEST SWAP1 POP PUSH3 0x60C DUP2 DUP6 DUP6 PUSH3 0x870 PUSH1 0x20 SHL PUSH1 0x20 SHR JUMP JUMPDEST PUSH1 0x1 SWAP2 POP POP SWAP3 SWAP2 POP POP JUMP JUMPDEST PUSH1 0x0 PUSH1 0x2 SLOAD SWAP1 POP SWAP1 JUMP JUMPDEST PUSH1 0x0 PUSH1 0x9 PUSH1 0x15 SWAP1 SLOAD SWAP1 PUSH2 0x100 EXP SWAP1 DIV PUSH1 0xFF AND SWAP1 POP SWAP1 JUMP JUMPDEST PUSH1 0x0 PUSH20 0xFFFFFFFFFFFFFFFFFFFFFFFFFFFFFFFFFFFFFFFF AND DUP4 PUSH20 0xFFFFFFFFFFFFFFFFFFFFFFFFFFFFFFFFFFFFFFFF AND SUB PUSH3 0x68E JUMPI DUP1 PUSH1 0x2 PUSH1 0x0 DUP3 DUP3 SLOAD PUSH3 0x681 SWAP2 SWAP1 PUSH3 0x160D JUMP JUMPDEST SWAP3 POP POP DUP2 SWAP1 SSTORE POP PUSH3 0x764 JUMP JUMPDEST PUSH1 0x0 DUP1 PUSH1 0x0 DUP6 PUSH20 0xFFFFFFFFFFFFFFFFFFFFFFFFFFFFFFFFFFFFFFFF AND PUSH20 0xFFFFFFFFFFFFFFFFFFFFFFFFFFFFFFFFFFFFFFFF AND DUP2 MSTORE PUSH1 0x20 ADD SWAP1 DUP2 MSTORE PUSH1 0x20 ADD PUSH1 0x0 KECCAK256 SLOAD SWAP1 POP DUP2 DUP2 LT ISZERO PUSH3 0x71D JUMPI DUP4 DUP2 DUP4 PUSH1 0x40 MLOAD PUSH32 0xE450D38C00000000000000000000000000000000000000000000000000000000 DUP2 MSTORE PUSH1 0x4 ADD PUSH3 0x714 SWAP4 SWAP3 SWAP2 SWAP1 PUSH3 0x1648 JUMP JUMPDEST PUSH1 0x40 MLOAD DUP1 SWAP2 SUB SWAP1 REVERT JUMPDEST DUP2 DUP2 SUB PUSH1 0x0 DUP1 DUP7 PUSH20 0xFFFFFFFFFFFFFFFFFFFFFFFFFFFFFFFFFFFFFFFF AND PUSH20 0xFFFFFFFFFFFFFFFFFFFFFFFFFFFFFFFFFFFFFFFF AND DUP2 MSTORE PUSH1 0x20 ADD SWAP1 DUP2 MSTORE PUSH1 0x20 ADD PUSH1 0x0 KECCAK256 DUP2 SWAP1 SSTORE POP POP JUMPDEST PUSH1 0x0 PUSH20 0xFFFFFFFFFFFFFFFFFFFFFFFFFFFFFFFFFFFFFFFF AND DUP3 PUSH20 0xFFFFFFFFFFFFFFFFFFFFFFFFFFFFFFFFFFFFFFFF AND SUB PUSH3 0x7AF JUMPI DUP1 PUSH1 0x2 PUSH1 0x0 DUP3 DUP3 SLOAD SUB SWAP3 POP POP DUP2 SWAP1 SSTORE POP PUSH3 0x7FC JUMP JUMPDEST DUP1 PUSH1 0x0 DUP1 DUP5 PUSH20 0xFFFFFFFFFFFFFFFFFFFFFFFFFFFFFFFFFFFFFFFF AND PUSH20 0xFFFFFFFFFFFFFFFFFFFFFFFFFFFFFFFFFFFFFFFF AND DUP2 MSTORE PUSH1 0x20 ADD SWAP1 DUP2 MSTORE PUSH1 0x20 ADD PUSH1 0x0 KECCAK256 PUSH1 0x0 DUP3 DUP3 SLOAD ADD SWAP3 POP POP DUP2 SWAP1 SSTORE POP JUMPDEST DUP2 PUSH20 0xFFFFFFFFFFFFFFFFFFFFFFFFFFFFFFFFFFFFFFFF AND DUP4 PUSH20 0xFFFFFFFFFFFFFFFFFFFFFFFFFFFFFFFFFFFFFFFF AND PUSH32 0xDDF252AD1BE2C89B69C2B068FC378DAA952BA7F163C4A11628F55A4DF523B3EF DUP4 PUSH1 0x40 MLOAD PUSH3 0x85B SWAP2 SWAP1 PUSH3 0x1685 JUMP JUMPDEST PUSH1 0x40 MLOAD DUP1 SWAP2 SUB SWAP1 LOG3 POP POP POP JUMP JUMPDEST PUSH1 0x0 CALLER SWAP1 POP SWAP1 JUMP JUMPDEST PUSH3 0x885 DUP4 DUP4 DUP4 PUSH1 0x1 PUSH3 0x88A PUSH1 0x20 SHL PUSH1 0x20 SHR JUMP JUMPDEST POP POP POP JUMP JUMPDEST PUSH1 0x0 PUSH20 0xFFFFFFFFFFFFFFFFFFFFFFFFFFFFFFFFFFFFFFFF AND DUP5 PUSH20 0xFFFFFFFFFFFFFFFFFFFFFFFFFFFFFFFFFFFFFFFF AND SUB PUSH3 0x8FF JUMPI PUSH1 0x0 PUSH1 0x40 MLOAD PUSH32 0xE602DF0500000000000000000000000000000000000000000000000000000000 DUP2 MSTORE PUSH1 0x4 ADD PUSH3 0x8F6 SWAP2 SWAP1 PUSH3 0x123F JUMP JUMPDEST PUSH1 0x40 MLOAD DUP1 SWAP2 SUB SWAP1 REVERT JUMPDEST PUSH1 0x0 PUSH20 0xFFFFFFFFFFFFFFFFFFFFFFFFFFFFFFFFFFFFFFFF AND DUP4 PUSH20 0xFFFFFFFFFFFFFFFFFFFFFFFFFFFFFFFFFFFFFFFF AND SUB PUSH3 0x974 JUMPI PUSH1 0x0 PUSH1 0x40 MLOAD PUSH32 0x94280D6200000000000000000000000000000000000000000000000000000000 DUP2 MSTORE PUSH1 0x4 ADD PUSH3 0x96B SWAP2 SWAP1 PUSH3 0x123F JUMP JUMPDEST PUSH1 0x40 MLOAD DUP1 SWAP2 SUB SWAP1 REVERT JUMPDEST DUP2 PUSH1 0x1 PUSH1 0x0 DUP7 PUSH20 0xFFFFFFFFFFFFFFFFFFFFFFFFFFFFFFFFFFFFFFFF AND PUSH20 0xFFFFFFFFFFFFFFFFFFFFFFFFFFFFFFFFFFFFFFFF AND DUP2 MSTORE PUSH1 0x20 ADD SWAP1 DUP2 MSTORE PUSH1 0x20 ADD PUSH1 0x0 KECCAK256 PUSH1 0x0 DUP6 PUSH20 0xFFFFFFFFFFFFFFFFFFFFFFFFFFFFFFFFFFFFFFFF AND PUSH20 0xFFFFFFFFFFFFFFFFFFFFFFFFFFFFFFFFFFFFFFFF AND DUP2 MSTORE PUSH1 0x20 ADD SWAP1 DUP2 MSTORE PUSH1 0x20 ADD PUSH1 0x0 KECCAK256 DUP2 SWAP1 SSTORE POP DUP1 ISZERO PUSH3 0xA64 JUMPI DUP3 PUSH20 0xFFFFFFFFFFFFFFFFFFFFFFFFFFFFFFFFFFFFFFFF AND DUP5 PUSH20 0xFFFFFFFFFFFFFFFFFFFFFFFFFFFFFFFFFFFFFFFF AND PUSH32 0x8C5BE1E5EBEC7D5BD14F71427D1E84F3DD0314C0F7B2291E5B200AC8C7C3B925 DUP5 PUSH1 0x40 MLOAD PUSH3 0xA5B SWAP2 SWAP1 PUSH3 0x1685 JUMP JUMPDEST PUSH1 0x40 MLOAD DUP1 SWAP2 SUB SWAP1 LOG3 JUMPDEST POP POP POP POP JUMP JUMPDEST PUSH1 0x0 PUSH1 0x40 MLOAD SWAP1 POP SWAP1 JUMP JUMPDEST PUSH1 0x0 DUP1 REVERT JUMPDEST PUSH1 0x0 DUP1 REVERT JUMPDEST PUSH1 0x0 DUP2 SWAP1 POP SWAP2 SWAP1 POP JUMP JUMPDEST PUSH3 0xA93 DUP2 PUSH3 0xA7E JUMP JUMPDEST DUP2 EQ PUSH3 0xA9F JUMPI PUSH1 0x0 DUP1 REVERT JUMPDEST POP JUMP JUMPDEST PUSH1 0x0 DUP2 MLOAD SWAP1 POP PUSH3 0xAB3 DUP2 PUSH3 0xA88 JUMP JUMPDEST SWAP3 SWAP2 POP POP JUMP JUMPDEST PUSH1 0x0 DUP1 REVERT JUMPDEST PUSH1 0x0 DUP1 REVERT JUMPDEST PUSH1 0x0 PUSH1 0x1F NOT PUSH1 0x1F DUP4 ADD AND SWAP1 POP SWAP2 SWAP1 POP JUMP JUMPDEST PUSH32 0x4E487B7100000000000000000000000000000000000000000000000000000000 PUSH1 0x0 MSTORE PUSH1 0x41 PUSH1 0x4 MSTORE PUSH1 0x24 PUSH1 0x0 REVERT JUMPDEST PUSH3 0xB0E DUP3 PUSH3 0xAC3 JUMP JUMPDEST DUP2 ADD DUP2 DUP2 LT PUSH8 0xFFFFFFFFFFFFFFFF DUP3 GT OR ISZERO PUSH3 0xB30 JUMPI PUSH3 0xB2F PUSH3 0xAD4 JUMP JUMPDEST JUMPDEST DUP1 PUSH1 0x40 MSTORE POP POP POP JUMP JUMPDEST PUSH1 0x0 PUSH3 0xB45 PUSH3 0xA6A JUMP JUMPDEST SWAP1 POP PUSH3 0xB53 DUP3 DUP3 PUSH3 0xB03 JUMP JUMPDEST SWAP2 SWAP1 POP JUMP JUMPDEST PUSH1 0x0 PUSH8 0xFFFFFFFFFFFFFFFF DUP3 GT ISZERO PUSH3 0xB76 JUMPI PUSH3 0xB75 PUSH3 0xAD4 JUMP JUMPDEST JUMPDEST PUSH3 0xB81 DUP3 PUSH3 0xAC3 JUMP JUMPDEST SWAP1 POP PUSH1 0x20 DUP2 ADD SWAP1 POP SWAP2 SWAP1 POP JUMP JUMPDEST PUSH1 0x0 JUMPDEST DUP4 DUP2 LT ISZERO PUSH3 0xBAE JUMPI DUP1 DUP3 ADD MLOAD DUP2 DUP5 ADD MSTORE PUSH1 0x20 DUP2 ADD SWAP1 POP PUSH3 0xB91 JUMP JUMPDEST PUSH1 0x0 DUP5 DUP5 ADD MSTORE POP POP POP POP JUMP JUMPDEST PUSH1 0x0 PUSH3 0xBD1 PUSH3 0xBCB DUP5 PUSH3 0xB58 JUMP JUMPDEST PUSH3 0xB39 JUMP JUMPDEST SWAP1 POP DUP3 DUP2 MSTORE PUSH1 0x20 DUP2 ADD DUP5 DUP5 DUP5 ADD GT ISZERO PUSH3 0xBF0 JUMPI PUSH3 0xBEF PUSH3 0xABE JUMP JUMPDEST JUMPDEST PUSH3 0xBFD DUP5 DUP3 DUP6 PUSH3 0xB8E JUMP JUMPDEST POP SWAP4 SWAP3 POP POP POP JUMP JUMPDEST PUSH1 0x0 DUP3 PUSH1 0x1F DUP4 ADD SLT PUSH3 0xC1D JUMPI PUSH3 0xC1C PUSH3 0xAB9 JUMP JUMPDEST JUMPDEST DUP2 MLOAD PUSH3 0xC2F DUP5 DUP3 PUSH1 0x20 DUP7 ADD PUSH3 0xBBA JUMP JUMPDEST SWAP2 POP POP SWAP3 SWAP2 POP POP JUMP JUMPDEST PUSH1 0x0 PUSH20 0xFFFFFFFFFFFFFFFFFFFFFFFFFFFFFFFFFFFFFFFF DUP3 AND SWAP1 POP SWAP2 SWAP1 POP JUMP JUMPDEST PUSH1 0x0 PUSH3 0xC65 DUP3 PUSH3 0xC38 JUMP JUMPDEST SWAP1 POP SWAP2 SWAP1 POP JUMP JUMPDEST PUSH3 0xC77 DUP2 PUSH3 0xC58 JUMP JUMPDEST DUP2 EQ PUSH3 0xC83 JUMPI PUSH1 0x0 DUP1 REVERT JUMPDEST POP JUMP JUMPDEST PUSH1 0x0 DUP2 MLOAD SWAP1 POP PUSH3 0xC97 DUP2 PUSH3 0xC6C JUMP JUMPDEST SWAP3 SWAP2 POP POP JUMP JUMPDEST PUSH1 0x0 DUP1 REVERT JUMPDEST PUSH1 0x0 DUP2 ISZERO ISZERO SWAP1 POP SWAP2 SWAP1 POP JUMP JUMPDEST PUSH3 0xCB9 DUP2 PUSH3 0xCA2 JUMP JUMPDEST DUP2 EQ PUSH3 0xCC5 JUMPI PUSH1 0x0 DUP1 REVERT JUMPDEST POP JUMP JUMPDEST PUSH1 0x0 DUP2 MLOAD SWAP1 POP PUSH3 0xCD9 DUP2 PUSH3 0xCAE JUMP JUMPDEST SWAP3 SWAP2 POP POP JUMP JUMPDEST PUSH1 0x0 PUSH2 0x100 DUP3 DUP5 SUB SLT ISZERO PUSH3 0xCF9 JUMPI PUSH3 0xCF8 PUSH3 0xC9D JUMP JUMPDEST JUMPDEST PUSH3 0xD06 PUSH2 0x100 PUSH3 0xB39 JUMP JUMPDEST SWAP1 POP PUSH1 0x0 PUSH3 0xD18 DUP5 DUP3 DUP6 ADD PUSH3 0xCC8 JUMP JUMPDEST PUSH1 0x0 DUP4 ADD MSTORE POP PUSH1 0x20 PUSH3 0xD2E DUP5 DUP3 DUP6 ADD PUSH3 0xCC8 JUMP JUMPDEST PUSH1 0x20 DUP4 ADD MSTORE POP PUSH1 0x40 PUSH3 0xD44 DUP5 DUP3 DUP6 ADD PUSH3 0xCC8 JUMP JUMPDEST PUSH1 0x40 DUP4 ADD MSTORE POP PUSH1 0x60 PUSH3 0xD5A DUP5 DUP3 DUP6 ADD PUSH3 0xCC8 JUMP JUMPDEST PUSH1 0x60 DUP4 ADD MSTORE POP PUSH1 0x80 PUSH3 0xD70 DUP5 DUP3 DUP6 ADD PUSH3 0xCC8 JUMP JUMPDEST PUSH1 0x80 DUP4 ADD MSTORE POP PUSH1 0xA0 PUSH3 0xD86 DUP5 DUP3 DUP6 ADD PUSH3 0xCC8 JUMP JUMPDEST PUSH1 0xA0 DUP4 ADD MSTORE POP PUSH1 0xC0 PUSH3 0xD9C DUP5 DUP3 DUP6 ADD PUSH3 0xCC8 JUMP JUMPDEST PUSH1 0xC0 DUP4 ADD MSTORE POP PUSH1 0xE0 PUSH3 0xDB2 DUP5 DUP3 DUP6 ADD PUSH3 0xCC8 JUMP JUMPDEST PUSH1 0xE0 DUP4 ADD MSTORE POP SWAP3 SWAP2 POP POP JUMP JUMPDEST PUSH1 0x0 PUSH1 0xFF DUP3 AND SWAP1 POP SWAP2 SWAP1 POP JUMP JUMPDEST PUSH3 0xDD6 DUP2 PUSH3 0xDBE JUMP JUMPDEST DUP2 EQ PUSH3 0xDE2 JUMPI PUSH1 0x0 DUP1 REVERT JUMPDEST POP JUMP JUMPDEST PUSH1 0x0 DUP2 MLOAD SWAP1 POP PUSH3 0xDF6 DUP2 PUSH3 0xDCB JUMP JUMPDEST SWAP3 SWAP2 POP POP JUMP JUMPDEST PUSH1 0x0 DUP1 PUSH1 0x0 DUP1 PUSH1 0x0 DUP1 PUSH1 0x0 DUP1 PUSH2 0x1E0 DUP10 DUP12 SUB SLT ISZERO PUSH3 0xE20 JUMPI PUSH3 0xE1F PUSH3 0xA74 JUMP JUMPDEST JUMPDEST PUSH1 0x0 PUSH3 0xE30 DUP12 DUP3 DUP13 ADD PUSH3 0xAA2 JUMP JUMPDEST SWAP9 POP POP PUSH1 0x20 DUP10 ADD MLOAD PUSH8 0xFFFFFFFFFFFFFFFF DUP2 GT ISZERO PUSH3 0xE54 JUMPI PUSH3 0xE53 PUSH3 0xA79 JUMP JUMPDEST JUMPDEST PUSH3 0xE62 DUP12 DUP3 DUP13 ADD PUSH3 0xC05 JUMP JUMPDEST SWAP8 POP POP PUSH1 0x40 DUP10 ADD MLOAD PUSH8 0xFFFFFFFFFFFFFFFF DUP2 GT ISZERO PUSH3 0xE86 JUMPI PUSH3 0xE85 PUSH3 0xA79 JUMP JUMPDEST JUMPDEST PUSH3 0xE94 DUP12 DUP3 DUP13 ADD PUSH3 0xC05 JUMP JUMPDEST SWAP7 POP POP PUSH1 0x60 PUSH3 0xEA7 DUP12 DUP3 DUP13 ADD PUSH3 0xC86 JUMP JUMPDEST SWAP6 POP POP PUSH1 0x80 PUSH3 0xEBA DUP12 DUP3 DUP13 ADD PUSH3 0xCDF JUMP JUMPDEST SWAP5 POP POP PUSH2 0x180 PUSH3 0xECE DUP12 DUP3 DUP13 ADD PUSH3 0xDE5 JUMP JUMPDEST SWAP4 POP POP PUSH2 0x1A0 PUSH3 0xEE2 DUP12 DUP3 DUP13 ADD PUSH3 0xC86 JUMP JUMPDEST SWAP3 POP POP PUSH2 0x1C0 PUSH3 0xEF6 DUP12 DUP3 DUP13 ADD PUSH3 0xDE5 JUMP JUMPDEST SWAP2 POP POP SWAP3 SWAP6 SWAP9 POP SWAP3 SWAP6 SWAP9 SWAP1 SWAP4 SWAP7 POP JUMP JUMPDEST PUSH1 0x0 DUP2 MLOAD SWAP1 POP SWAP2 SWAP1 POP JUMP JUMPDEST PUSH32 0x4E487B7100000000000000000000000000000000000000000000000000000000 PUSH1 0x0 MSTORE PUSH1 0x22 PUSH1 0x4 MSTORE PUSH1 0x24 PUSH1 0x0 REVERT JUMPDEST PUSH1 0x0 PUSH1 0x2 DUP3 DIV SWAP1 POP PUSH1 0x1 DUP3 AND DUP1 PUSH3 0xF59 JUMPI PUSH1 0x7F DUP3 AND SWAP2 POP JUMPDEST PUSH1 0x20 DUP3 LT DUP2 SUB PUSH3 0xF6F JUMPI PUSH3 0xF6E PUSH3 0xF11 JUMP JUMPDEST JUMPDEST POP SWAP2 SWAP1 POP JUMP JUMPDEST PUSH1 0x0 DUP2 SWAP1 POP DUP2 PUSH1 0x0 MSTORE PUSH1 0x20 PUSH1 0x0 KECCAK256 SWAP1 POP SWAP2 SWAP1 POP JUMP JUMPDEST PUSH1 0x0 PUSH1 0x20 PUSH1 0x1F DUP4 ADD DIV SWAP1 POP SWAP2 SWAP1 POP JUMP JUMPDEST PUSH1 0x0 DUP3 DUP3 SHL SWAP1 POP SWAP3 SWAP2 POP POP JUMP JUMPDEST PUSH1 0x0 PUSH1 0x8 DUP4 MUL PUSH3 0xFD9 PUSH32 0xFFFFFFFFFFFFFFFFFFFFFFFFFFFFFFFFFFFFFFFFFFFFFFFFFFFFFFFFFFFFFFFF DUP3 PUSH3 0xF9A JUMP JUMPDEST PUSH3 0xFE5 DUP7 DUP4 PUSH3 0xF9A JUMP JUMPDEST SWAP6 POP DUP1 NOT DUP5 AND SWAP4 POP DUP1 DUP7 AND DUP5 OR SWAP3 POP POP POP SWAP4 SWAP3 POP POP POP JUMP JUMPDEST PUSH1 0x0 DUP2 SWAP1 POP SWAP2 SWAP1 POP JUMP JUMPDEST PUSH1 0x0 PUSH3 0x1028 PUSH3 0x1022 PUSH3 0x101C DUP5 PUSH3 0xA7E JUMP JUMPDEST PUSH3 0xFFD JUMP JUMPDEST PUSH3 0xA7E JUMP JUMPDEST SWAP1 POP SWAP2 SWAP1 POP JUMP JUMPDEST PUSH1 0x0 DUP2 SWAP1 POP SWAP2 SWAP1 POP JUMP JUMPDEST PUSH3 0x1044 DUP4 PUSH3 0x1007 JUMP JUMPDEST PUSH3 0x105C PUSH3 0x1053 DUP3 PUSH3 0x102F JUMP JUMPDEST DUP5 DUP5 SLOAD PUSH3 0xFA7 JUMP JUMPDEST DUP3 SSTORE POP POP POP POP JUMP JUMPDEST PUSH1 0x0 SWAP1 JUMP JUMPDEST PUSH3 0x1073 PUSH3 0x1064 JUMP JUMPDEST PUSH3 0x1080 DUP2 DUP5 DUP5 PUSH3 0x1039 JUMP JUMPDEST POP POP POP JUMP JUMPDEST JUMPDEST DUP2 DUP2 LT ISZERO PUSH3 0x10A8 JUMPI PUSH3 0x109C PUSH1 0x0 DUP3 PUSH3 0x1069 JUMP JUMPDEST PUSH1 0x1 DUP2 ADD SWAP1 POP PUSH3 0x1086 JUMP JUMPDEST POP POP JUMP JUMPDEST PUSH1 0x1F DUP3 GT ISZERO PUSH3 0x10F7 JUMPI PUSH3 0x10C1 DUP2 PUSH3 0xF75 JUMP JUMPDEST PUSH3 0x10CC DUP5 PUSH3 0xF8A JUMP JUMPDEST DUP2 ADD PUSH1 0x20 DUP6 LT ISZERO PUSH3 0x10DC JUMPI DUP2 SWAP1 POP JUMPDEST PUSH3 0x10F4 PUSH3 0x10EB DUP6 PUSH3 0xF8A JUMP JUMPDEST DUP4 ADD DUP3 PUSH3 0x1085 JUMP JUMPDEST POP POP JUMPDEST POP POP POP JUMP JUMPDEST PUSH1 0x0 DUP3 DUP3 SHR SWAP1 POP SWAP3 SWAP2 POP POP JUMP JUMPDEST PUSH1 0x0 PUSH3 0x111C PUSH1 0x0 NOT DUP5 PUSH1 0x8 MUL PUSH3 0x10FC JUMP JUMPDEST NOT DUP1 DUP4 AND SWAP2 POP POP SWAP3 SWAP2 POP POP JUMP JUMPDEST PUSH1 0x0 PUSH3 0x1137 DUP4 DUP4 PUSH3 0x1109 JUMP JUMPDEST SWAP2 POP DUP3 PUSH1 0x2 MUL DUP3 OR SWAP1 POP SWAP3 SWAP2 POP POP JUMP JUMPDEST PUSH3 0x1152 DUP3 PUSH3 0xF06 JUMP JUMPDEST PUSH8 0xFFFFFFFFFFFFFFFF DUP2 GT ISZERO PUSH3 0x116E JUMPI PUSH3 0x116D PUSH3 0xAD4 JUMP JUMPDEST JUMPDEST PUSH3 0x117A DUP3 SLOAD PUSH3 0xF40 JUMP JUMPDEST PUSH3 0x1187 DUP3 DUP3 DUP6 PUSH3 0x10AC JUMP JUMPDEST PUSH1 0x0 PUSH1 0x20 SWAP1 POP PUSH1 0x1F DUP4 GT PUSH1 0x1 DUP2 EQ PUSH3 0x11BF JUMPI PUSH1 0x0 DUP5 ISZERO PUSH3 0x11AA JUMPI DUP3 DUP8 ADD MLOAD SWAP1 POP JUMPDEST PUSH3 0x11B6 DUP6 DUP3 PUSH3 0x1129 JUMP JUMPDEST DUP7 SSTORE POP PUSH3 0x1226 JUMP JUMPDEST PUSH1 0x1F NOT DUP5 AND PUSH3 0x11CF DUP7 PUSH3 0xF75 JUMP JUMPDEST PUSH1 0x0 JUMPDEST DUP3 DUP2 LT ISZERO PUSH3 0x11F9 JUMPI DUP5 DUP10 ADD MLOAD DUP3 SSTORE PUSH1 0x1 DUP3 ADD SWAP2 POP PUSH1 0x20 DUP6 ADD SWAP5 POP PUSH1 0x20 DUP2 ADD SWAP1 POP PUSH3 0x11D2 JUMP JUMPDEST DUP7 DUP4 LT ISZERO PUSH3 0x1219 JUMPI DUP5 DUP10 ADD MLOAD PUSH3 0x1215 PUSH1 0x1F DUP10 AND DUP3 PUSH3 0x1109 JUMP JUMPDEST DUP4 SSTORE POP JUMPDEST PUSH1 0x1 PUSH1 0x2 DUP9 MUL ADD DUP9 SSTORE POP POP POP JUMPDEST POP POP POP POP POP POP JUMP JUMPDEST PUSH3 0x1239 DUP2 PUSH3 0xC58 JUMP JUMPDEST DUP3 MSTORE POP POP JUMP JUMPDEST PUSH1 0x0 PUSH1 0x20 DUP3 ADD SWAP1 POP PUSH3 0x1256 PUSH1 0x0 DUP4 ADD DUP5 PUSH3 0x122E JUMP JUMPDEST SWAP3 SWAP2 POP POP JUMP JUMPDEST PUSH3 0x1267 DUP2 PUSH3 0xA7E JUMP JUMPDEST DUP3 MSTORE POP POP JUMP JUMPDEST PUSH1 0x0 PUSH3 0x128E PUSH3 0x1288 PUSH3 0x1282 DUP5 PUSH3 0xDBE JUMP JUMPDEST PUSH3 0xFFD JUMP JUMPDEST PUSH3 0xA7E JUMP JUMPDEST SWAP1 POP SWAP2 SWAP1 POP JUMP JUMPDEST PUSH3 0x12A0 DUP2 PUSH3 0x126D JUMP JUMPDEST DUP3 MSTORE POP POP JUMP JUMPDEST PUSH1 0x0 PUSH1 0x40 DUP3 ADD SWAP1 POP PUSH3 0x12BD PUSH1 0x0 DUP4 ADD DUP6 PUSH3 0x125C JUMP JUMPDEST PUSH3 0x12CC PUSH1 0x20 DUP4 ADD DUP5 PUSH3 0x1295 JUMP JUMPDEST SWAP4 SWAP3 POP POP POP JUMP JUMPDEST PUSH1 0x0 DUP3 DUP3 MSTORE PUSH1 0x20 DUP3 ADD SWAP1 POP SWAP3 SWAP2 POP POP JUMP JUMPDEST PUSH32 0x54786E5461782057616C6C65742063616E277420626520656D70747900000000 PUSH1 0x0 DUP3 ADD MSTORE POP JUMP JUMPDEST PUSH1 0x0 PUSH3 0x131C PUSH1 0x1C DUP4 PUSH3 0x12D3 JUMP JUMPDEST SWAP2 POP PUSH3 0x1329 DUP3 PUSH3 0x12E4 JUMP JUMPDEST PUSH1 0x20 DUP3 ADD SWAP1 POP SWAP2 SWAP1 POP JUMP JUMPDEST PUSH1 0x0 PUSH1 0x20 DUP3 ADD SWAP1 POP DUP2 DUP2 SUB PUSH1 0x0 DUP4 ADD MSTORE PUSH3 0x134F DUP2 PUSH3 0x130D JUMP JUMPDEST SWAP1 POP SWAP2 SWAP1 POP JUMP JUMPDEST PUSH32 0x5472616E73616374696F6E2072617465206D7573742062652067726174657220 PUSH1 0x0 DUP3 ADD MSTORE PUSH32 0x7468616E20300000000000000000000000000000000000000000000000000000 PUSH1 0x20 DUP3 ADD MSTORE POP JUMP JUMPDEST PUSH1 0x0 PUSH3 0x13B4 PUSH1 0x26 DUP4 PUSH3 0x12D3 JUMP JUMPDEST SWAP2 POP PUSH3 0x13C1 DUP3 PUSH3 0x1356 JUMP JUMPDEST PUSH1 0x40 DUP3 ADD SWAP1 POP SWAP2 SWAP1 POP JUMP JUMPDEST PUSH1 0x0 PUSH1 0x20 DUP3 ADD SWAP1 POP DUP2 DUP2 SUB PUSH1 0x0 DUP4 ADD MSTORE PUSH3 0x13E7 DUP2 PUSH3 0x13A5 JUMP JUMPDEST SWAP1 POP SWAP2 SWAP1 POP JUMP JUMPDEST PUSH32 0x4E487B7100000000000000000000000000000000000000000000000000000000 PUSH1 0x0 MSTORE PUSH1 0x11 PUSH1 0x4 MSTORE PUSH1 0x24 PUSH1 0x0 REVERT JUMPDEST PUSH1 0x0 DUP2 PUSH1 0x1 SHR SWAP1 POP SWAP2 SWAP1 POP JUMP JUMPDEST PUSH1 0x0 DUP1 DUP3 SWAP2 POP DUP4 SWAP1 POP JUMPDEST PUSH1 0x1 DUP6 GT ISZERO PUSH3 0x147C JUMPI DUP1 DUP7 DIV DUP2 GT ISZERO PUSH3 0x1454 JUMPI PUSH3 0x1453 PUSH3 0x13EE JUMP JUMPDEST JUMPDEST PUSH1 0x1 DUP6 AND ISZERO PUSH3 0x1464 JUMPI DUP1 DUP3 MUL SWAP2 POP JUMPDEST DUP1 DUP2 MUL SWAP1 POP PUSH3 0x1474 DUP6 PUSH3 0x141D JUMP JUMPDEST SWAP5 POP PUSH3 0x1434 JUMP JUMPDEST SWAP5 POP SWAP5 SWAP3 POP POP POP JUMP JUMPDEST PUSH1 0x0 DUP3 PUSH3 0x1497 JUMPI PUSH1 0x1 SWAP1 POP PUSH3 0x156A JUMP JUMPDEST DUP2 PUSH3 0x14A7 JUMPI PUSH1 0x0 SWAP1 POP PUSH3 0x156A JUMP JUMPDEST DUP2 PUSH1 0x1 DUP2 EQ PUSH3 0x14C0 JUMPI PUSH1 0x2 DUP2 EQ PUSH3 0x14CB JUMPI PUSH3 0x1501 JUMP JUMPDEST PUSH1 0x1 SWAP2 POP POP PUSH3 0x156A JUMP JUMPDEST PUSH1 0xFF DUP5 GT ISZERO PUSH3 0x14E0 JUMPI PUSH3 0x14DF PUSH3 0x13EE JUMP JUMPDEST JUMPDEST DUP4 PUSH1 0x2 EXP SWAP2 POP DUP5 DUP3 GT ISZERO PUSH3 0x14FA JUMPI PUSH3 0x14F9 PUSH3 0x13EE JUMP JUMPDEST JUMPDEST POP PUSH3 0x156A JUMP JUMPDEST POP PUSH1 0x20 DUP4 LT PUSH2 0x133 DUP4 LT AND PUSH1 0x4E DUP5 LT PUSH1 0xB DUP5 LT AND OR ISZERO PUSH3 0x153B JUMPI DUP3 DUP3 EXP SWAP1 POP DUP4 DUP2 GT ISZERO PUSH3 0x1535 JUMPI PUSH3 0x1534 PUSH3 0x13EE JUMP JUMPDEST JUMPDEST PUSH3 0x156A JUMP JUMPDEST PUSH3 0x154A DUP5 DUP5 DUP5 PUSH1 0x1 PUSH3 0x142A JUMP JUMPDEST SWAP3 POP SWAP1 POP DUP2 DUP5 DIV DUP2 GT ISZERO PUSH3 0x1564 JUMPI PUSH3 0x1563 PUSH3 0x13EE JUMP JUMPDEST JUMPDEST DUP2 DUP2 MUL SWAP1 POP JUMPDEST SWAP4 SWAP3 POP POP POP JUMP JUMPDEST PUSH1 0x0 PUSH3 0x157E DUP3 PUSH3 0xA7E JUMP JUMPDEST SWAP2 POP PUSH3 0x158B DUP4 PUSH3 0xDBE JUMP JUMPDEST SWAP3 POP PUSH3 0x15BA PUSH32 0xFFFFFFFFFFFFFFFFFFFFFFFFFFFFFFFFFFFFFFFFFFFFFFFFFFFFFFFFFFFFFFFF DUP5 DUP5 PUSH3 0x1485 JUMP JUMPDEST SWAP1 POP SWAP3 SWAP2 POP POP JUMP JUMPDEST PUSH1 0x0 PUSH3 0x15CF DUP3 PUSH3 0xA7E JUMP JUMPDEST SWAP2 POP PUSH3 0x15DC DUP4 PUSH3 0xA7E JUMP JUMPDEST SWAP3 POP DUP3 DUP3 MUL PUSH3 0x15EC DUP2 PUSH3 0xA7E JUMP JUMPDEST SWAP2 POP DUP3 DUP3 DIV DUP5 EQ DUP4 ISZERO OR PUSH3 0x1606 JUMPI PUSH3 0x1605 PUSH3 0x13EE JUMP JUMPDEST JUMPDEST POP SWAP3 SWAP2 POP POP JUMP JUMPDEST PUSH1 0x0 PUSH3 0x161A DUP3 PUSH3 0xA7E JUMP JUMPDEST SWAP2 POP PUSH3 0x1627 DUP4 PUSH3 0xA7E JUMP JUMPDEST SWAP3 POP DUP3 DUP3 ADD SWAP1 POP DUP1 DUP3 GT ISZERO PUSH3 0x1642 JUMPI PUSH3 0x1641 PUSH3 0x13EE JUMP JUMPDEST JUMPDEST SWAP3 SWAP2 POP POP JUMP JUMPDEST PUSH1 0x0 PUSH1 0x60 DUP3 ADD SWAP1 POP PUSH3 0x165F PUSH1 0x0 DUP4 ADD DUP7 PUSH3 0x122E JUMP JUMPDEST PUSH3 0x166E PUSH1 0x20 DUP4 ADD DUP6 PUSH3 0x125C JUMP JUMPDEST PUSH3 0x167D PUSH1 0x40 DUP4 ADD DUP5 PUSH3 0x125C JUMP JUMPDEST SWAP5 SWAP4 POP POP POP POP JUMP JUMPDEST PUSH1 0x0 PUSH1 0x20 DUP3 ADD SWAP1 POP PUSH3 0x169C PUSH1 0x0 DUP4 ADD DUP5 PUSH3 0x125C JUMP JUMPDEST SWAP3 SWAP2 POP POP JUMP JUMPDEST PUSH2 0x3F4A DUP1 PUSH3 0x16B2 PUSH1 0x0 CODECOPY PUSH1 0x0 RETURN INVALID PUSH1 0x80 PUSH1 0x40 MSTORE PUSH1 0x4 CALLDATASIZE LT PUSH2 0x1EE JUMPI PUSH1 0x0 CALLDATALOAD PUSH1 0xE0 SHR DUP1 PUSH4 0x74097A80 GT PUSH2 0x10D JUMPI DUP1 PUSH4 0xA9059CBB GT PUSH2 0xA0 JUMPI DUP1 PUSH4 0xDD62ED3E GT PUSH2 0x6F JUMPI DUP1 PUSH4 0xDD62ED3E EQ PUSH2 0x6C3 JUMPI DUP1 PUSH4 0xE0DD89EC EQ PUSH2 0x700 JUMPI DUP1 PUSH4 0xF2FDE38B EQ PUSH2 0x717 JUMPI DUP1 PUSH4 0xF99E36BC EQ PUSH2 0x740 JUMPI DUP1 PUSH4 0xFC155D1D EQ PUSH2 0x772 JUMPI PUSH2 0x1EE JUMP JUMPDEST DUP1 PUSH4 0xA9059CBB EQ PUSH2 0x60B JUMPI DUP1 PUSH4 0xAACE63A3 EQ PUSH2 0x648 JUMPI DUP1 PUSH4 0xCDA6B847 EQ PUSH2 0x671 JUMPI DUP1 PUSH4 0xD595C331 EQ PUSH2 0x69A JUMPI PUSH2 0x1EE JUMP JUMPDEST DUP1 PUSH4 0x8DA5CB5B GT PUSH2 0xDC JUMPI DUP1 PUSH4 0x8DA5CB5B EQ PUSH2 0x561 JUMPI DUP1 PUSH4 0x93C7346F EQ PUSH2 0x58C JUMPI DUP1 PUSH4 0x95D89B41 EQ PUSH2 0x5B7 JUMPI DUP1 PUSH4 0xA8A37906 EQ PUSH2 0x5E2 JUMPI PUSH2 0x1EE JUMP JUMPDEST DUP1 PUSH4 0x74097A80 EQ PUSH2 0x4E1 JUMPI DUP1 PUSH4 0x77F2CA5E EQ PUSH2 0x4F8 JUMPI DUP1 PUSH4 0x78F723DF EQ PUSH2 0x50F JUMPI DUP1 PUSH4 0x79CC6790 EQ PUSH2 0x538 JUMPI PUSH2 0x1EE JUMP JUMPDEST DUP1 PUSH4 0x26364AEC GT PUSH2 0x185 JUMPI DUP1 PUSH4 0x7057A5C5 GT PUSH2 0x154 JUMPI DUP1 PUSH4 0x7057A5C5 EQ PUSH2 0x425 JUMPI DUP1 PUSH4 0x70A08231 EQ PUSH2 0x462 JUMPI DUP1 PUSH4 0x715018A6 EQ PUSH2 0x49F JUMPI DUP1 PUSH4 0x735DE9F7 EQ PUSH2 0x4B6 JUMPI PUSH2 0x1EE JUMP JUMPDEST DUP1 PUSH4 0x26364AEC EQ PUSH2 0x37B JUMPI DUP1 PUSH4 0x313CE567 EQ PUSH2 0x3A4 JUMPI DUP1 PUSH4 0x3851686F EQ PUSH2 0x3CF JUMPI DUP1 PUSH4 0x5C975ABB EQ PUSH2 0x3FA JUMPI PUSH2 0x1EE JUMP JUMPDEST DUP1 PUSH4 0x16F3A12D GT PUSH2 0x1C1 JUMPI DUP1 PUSH4 0x16F3A12D EQ PUSH2 0x2C1 JUMPI DUP1 PUSH4 0x17619064 EQ PUSH2 0x2EA JUMPI DUP1 PUSH4 0x18160DDD EQ PUSH2 0x313 JUMPI DUP1 PUSH4 0x23B872DD EQ PUSH2 0x33E JUMPI PUSH2 0x1EE JUMP JUMPDEST DUP1 PUSH4 0x6FDDE03 EQ PUSH2 0x1F3 JUMPI DUP1 PUSH4 0x95EA7B3 EQ PUSH2 0x21E JUMPI DUP1 PUSH4 0x1536CA40 EQ PUSH2 0x25B JUMPI DUP1 PUSH4 0x16934FC4 EQ PUSH2 0x284 JUMPI JUMPDEST PUSH1 0x0 DUP1 REVERT JUMPDEST CALLVALUE DUP1 ISZERO PUSH2 0x1FF JUMPI PUSH1 0x0 DUP1 REVERT JUMPDEST POP PUSH2 0x208 PUSH2 0x78E JUMP JUMPDEST PUSH1 0x40 MLOAD PUSH2 0x215 SWAP2 SWAP1 PUSH2 0x2799 JUMP JUMPDEST PUSH1 0x40 MLOAD DUP1 SWAP2 SUB SWAP1 RETURN JUMPDEST CALLVALUE DUP1 ISZERO PUSH2 0x22A JUMPI PUSH1 0x0 DUP1 REVERT JUMPDEST POP PUSH2 0x245 PUSH1 0x4 DUP1 CALLDATASIZE SUB DUP2 ADD SWAP1 PUSH2 0x240 SWAP2 SWAP1 PUSH2 0x2863 JUMP JUMPDEST PUSH2 0x820 JUMP JUMPDEST PUSH1 0x40 MLOAD PUSH2 0x252 SWAP2 SWAP1 PUSH2 0x28BE JUMP JUMPDEST PUSH1 0x40 MLOAD DUP1 SWAP2 SUB SWAP1 RETURN JUMPDEST CALLVALUE DUP1 ISZERO PUSH2 0x267 JUMPI PUSH1 0x0 DUP1 REVERT JUMPDEST POP PUSH2 0x282 PUSH1 0x4 DUP1 CALLDATASIZE SUB DUP2 ADD SWAP1 PUSH2 0x27D SWAP2 SWAP1 PUSH2 0x28D9 JUMP JUMPDEST PUSH2 0x843 JUMP JUMPDEST STOP JUMPDEST CALLVALUE DUP1 ISZERO PUSH2 0x290 JUMPI PUSH1 0x0 DUP1 REVERT JUMPDEST POP PUSH2 0x2AB PUSH1 0x4 DUP1 CALLDATASIZE SUB DUP2 ADD SWAP1 PUSH2 0x2A6 SWAP2 SWAP1 PUSH2 0x28D9 JUMP JUMPDEST PUSH2 0x98C JUMP JUMPDEST PUSH1 0x40 MLOAD PUSH2 0x2B8 SWAP2 SWAP1 PUSH2 0x2915 JUMP JUMPDEST PUSH1 0x40 MLOAD DUP1 SWAP2 SUB SWAP1 RETURN JUMPDEST CALLVALUE DUP1 ISZERO PUSH2 0x2CD JUMPI PUSH1 0x0 DUP1 REVERT JUMPDEST POP PUSH2 0x2E8 PUSH1 0x4 DUP1 CALLDATASIZE SUB DUP2 ADD SWAP1 PUSH2 0x2E3 SWAP2 SWAP1 PUSH2 0x28D9 JUMP JUMPDEST PUSH2 0x9A4 JUMP JUMPDEST STOP JUMPDEST CALLVALUE DUP1 ISZERO PUSH2 0x2F6 JUMPI PUSH1 0x0 DUP1 REVERT JUMPDEST POP PUSH2 0x311 PUSH1 0x4 DUP1 CALLDATASIZE SUB DUP2 ADD SWAP1 PUSH2 0x30C SWAP2 SWAP1 PUSH2 0x28D9 JUMP JUMPDEST PUSH2 0xAEE JUMP JUMPDEST STOP JUMPDEST CALLVALUE DUP1 ISZERO PUSH2 0x31F JUMPI PUSH1 0x0 DUP1 REVERT JUMPDEST POP PUSH2 0x328 PUSH2 0xC03 JUMP JUMPDEST PUSH1 0x40 MLOAD PUSH2 0x335 SWAP2 SWAP1 PUSH2 0x2915 JUMP JUMPDEST PUSH1 0x40 MLOAD DUP1 SWAP2 SUB SWAP1 RETURN JUMPDEST CALLVALUE DUP1 ISZERO PUSH2 0x34A JUMPI PUSH1 0x0 DUP1 REVERT JUMPDEST POP PUSH2 0x365 PUSH1 0x4 DUP1 CALLDATASIZE SUB DUP2 ADD SWAP1 PUSH2 0x360 SWAP2 SWAP1 PUSH2 0x2930 JUMP JUMPDEST PUSH2 0xC0D JUMP JUMPDEST PUSH1 0x40 MLOAD PUSH2 0x372 SWAP2 SWAP1 PUSH2 0x28BE JUMP JUMPDEST PUSH1 0x40 MLOAD DUP1 SWAP2 SUB SWAP1 RETURN JUMPDEST CALLVALUE DUP1 ISZERO PUSH2 0x387 JUMPI PUSH1 0x0 DUP1 REVERT JUMPDEST POP PUSH2 0x3A2 PUSH1 0x4 DUP1 CALLDATASIZE SUB DUP2 ADD SWAP1 PUSH2 0x39D SWAP2 SWAP1 PUSH2 0x2983 JUMP JUMPDEST PUSH2 0xC3C JUMP JUMPDEST STOP JUMPDEST CALLVALUE DUP1 ISZERO PUSH2 0x3B0 JUMPI PUSH1 0x0 DUP1 REVERT JUMPDEST POP PUSH2 0x3B9 PUSH2 0xCF6 JUMP JUMPDEST PUSH1 0x40 MLOAD PUSH2 0x3C6 SWAP2 SWAP1 PUSH2 0x29CC JUMP JUMPDEST PUSH1 0x40 MLOAD DUP1 SWAP2 SUB SWAP1 RETURN JUMPDEST CALLVALUE DUP1 ISZERO PUSH2 0x3DB JUMPI PUSH1 0x0 DUP1 REVERT JUMPDEST POP PUSH2 0x3E4 PUSH2 0xD0D JUMP JUMPDEST PUSH1 0x40 MLOAD PUSH2 0x3F1 SWAP2 SWAP1 PUSH2 0x29CC JUMP JUMPDEST PUSH1 0x40 MLOAD DUP1 SWAP2 SUB SWAP1 RETURN JUMPDEST CALLVALUE DUP1 ISZERO PUSH2 0x406 JUMPI PUSH1 0x0 DUP1 REVERT JUMPDEST POP PUSH2 0x40F PUSH2 0xD20 JUMP JUMPDEST PUSH1 0x40 MLOAD PUSH2 0x41C SWAP2 SWAP1 PUSH2 0x28BE JUMP JUMPDEST PUSH1 0x40 MLOAD DUP1 SWAP2 SUB SWAP1 RETURN JUMPDEST CALLVALUE DUP1 ISZERO PUSH2 0x431 JUMPI PUSH1 0x0 DUP1 REVERT JUMPDEST POP PUSH2 0x44C PUSH1 0x4 DUP1 CALLDATASIZE SUB DUP2 ADD SWAP1 PUSH2 0x447 SWAP2 SWAP1 PUSH2 0x28D9 JUMP JUMPDEST PUSH2 0xD37 JUMP JUMPDEST PUSH1 0x40 MLOAD PUSH2 0x459 SWAP2 SWAP1 PUSH2 0x28BE JUMP JUMPDEST PUSH1 0x40 MLOAD DUP1 SWAP2 SUB SWAP1 RETURN JUMPDEST CALLVALUE DUP1 ISZERO PUSH2 0x46E JUMPI PUSH1 0x0 DUP1 REVERT JUMPDEST POP PUSH2 0x489 PUSH1 0x4 DUP1 CALLDATASIZE SUB DUP2 ADD SWAP1 PUSH2 0x484 SWAP2 SWAP1 PUSH2 0x28D9 JUMP JUMPDEST PUSH2 0xD57 JUMP JUMPDEST PUSH1 0x40 MLOAD PUSH2 0x496 SWAP2 SWAP1 PUSH2 0x2915 JUMP JUMPDEST PUSH1 0x40 MLOAD DUP1 SWAP2 SUB SWAP1 RETURN JUMPDEST CALLVALUE DUP1 ISZERO PUSH2 0x4AB JUMPI PUSH1 0x0 DUP1 REVERT JUMPDEST POP PUSH2 0x4B4 PUSH2 0xD9F JUMP JUMPDEST STOP JUMPDEST CALLVALUE DUP1 ISZERO PUSH2 0x4C2 JUMPI PUSH1 0x0 DUP1 REVERT JUMPDEST POP PUSH2 0x4CB PUSH2 0xDB3 JUMP JUMPDEST PUSH1 0x40 MLOAD PUSH2 0x4D8 SWAP2 SWAP1 PUSH2 0x2A46 JUMP JUMPDEST PUSH1 0x40 MLOAD DUP1 SWAP2 SUB SWAP1 RETURN JUMPDEST CALLVALUE DUP1 ISZERO PUSH2 0x4ED JUMPI PUSH1 0x0 DUP1 REVERT JUMPDEST POP PUSH2 0x4F6 PUSH2 0xDD9 JUMP JUMPDEST STOP JUMPDEST CALLVALUE DUP1 ISZERO PUSH2 0x504 JUMPI PUSH1 0x0 DUP1 REVERT JUMPDEST POP PUSH2 0x50D PUSH2 0xE85 JUMP JUMPDEST STOP JUMPDEST CALLVALUE DUP1 ISZERO PUSH2 0x51B JUMPI PUSH1 0x0 DUP1 REVERT JUMPDEST POP PUSH2 0x536 PUSH1 0x4 DUP1 CALLDATASIZE SUB DUP2 ADD SWAP1 PUSH2 0x531 SWAP2 SWAP1 PUSH2 0x2A61 JUMP JUMPDEST PUSH2 0xF30 JUMP JUMPDEST STOP JUMPDEST CALLVALUE DUP1 ISZERO PUSH2 0x544 JUMPI PUSH1 0x0 DUP1 REVERT JUMPDEST POP PUSH2 0x55F PUSH1 0x4 DUP1 CALLDATASIZE SUB DUP2 ADD SWAP1 PUSH2 0x55A SWAP2 SWAP1 PUSH2 0x2863 JUMP JUMPDEST PUSH2 0x1117 JUMP JUMPDEST STOP JUMPDEST CALLVALUE DUP1 ISZERO PUSH2 0x56D JUMPI PUSH1 0x0 DUP1 REVERT JUMPDEST POP PUSH2 0x576 PUSH2 0x11B0 JUMP JUMPDEST PUSH1 0x40 MLOAD PUSH2 0x583 SWAP2 SWAP1 PUSH2 0x2AC3 JUMP JUMPDEST PUSH1 0x40 MLOAD DUP1 SWAP2 SUB SWAP1 RETURN JUMPDEST CALLVALUE DUP1 ISZERO PUSH2 0x598 JUMPI PUSH1 0x0 DUP1 REVERT JUMPDEST POP PUSH2 0x5A1 PUSH2 0x11DA JUMP JUMPDEST PUSH1 0x40 MLOAD PUSH2 0x5AE SWAP2 SWAP1 PUSH2 0x2AC3 JUMP JUMPDEST PUSH1 0x40 MLOAD DUP1 SWAP2 SUB SWAP1 RETURN JUMPDEST CALLVALUE DUP1 ISZERO PUSH2 0x5C3 JUMPI PUSH1 0x0 DUP1 REVERT JUMPDEST POP PUSH2 0x5CC PUSH2 0x1200 JUMP JUMPDEST PUSH1 0x40 MLOAD PUSH2 0x5D9 SWAP2 SWAP1 PUSH2 0x2799 JUMP JUMPDEST PUSH1 0x40 MLOAD DUP1 SWAP2 SUB SWAP1 RETURN JUMPDEST CALLVALUE DUP1 ISZERO PUSH2 0x5EE JUMPI PUSH1 0x0 DUP1 REVERT JUMPDEST POP PUSH2 0x609 PUSH1 0x4 DUP1 CALLDATASIZE SUB DUP2 ADD SWAP1 PUSH2 0x604 SWAP2 SWAP1 PUSH2 0x2983 JUMP JUMPDEST PUSH2 0x1292 JUMP JUMPDEST STOP JUMPDEST CALLVALUE DUP1 ISZERO PUSH2 0x617 JUMPI PUSH1 0x0 DUP1 REVERT JUMPDEST POP PUSH2 0x632 PUSH1 0x4 DUP1 CALLDATASIZE SUB DUP2 ADD SWAP1 PUSH2 0x62D SWAP2 SWAP1 PUSH2 0x2863 JUMP JUMPDEST PUSH2 0x1467 JUMP JUMPDEST PUSH1 0x40 MLOAD PUSH2 0x63F SWAP2 SWAP1 PUSH2 0x28BE JUMP JUMPDEST PUSH1 0x40 MLOAD DUP1 SWAP2 SUB SWAP1 RETURN JUMPDEST CALLVALUE DUP1 ISZERO PUSH2 0x654 JUMPI PUSH1 0x0 DUP1 REVERT JUMPDEST POP PUSH2 0x66F PUSH1 0x4 DUP1 CALLDATASIZE SUB DUP2 ADD SWAP1 PUSH2 0x66A SWAP2 SWAP1 PUSH2 0x2B0A JUMP JUMPDEST PUSH2 0x148A JUMP JUMPDEST STOP JUMPDEST CALLVALUE DUP1 ISZERO PUSH2 0x67D JUMPI PUSH1 0x0 DUP1 REVERT JUMPDEST POP PUSH2 0x698 PUSH1 0x4 DUP1 CALLDATASIZE SUB DUP2 ADD SWAP1 PUSH2 0x693 SWAP2 SWAP1 PUSH2 0x2983 JUMP JUMPDEST PUSH2 0x1550 JUMP JUMPDEST STOP JUMPDEST CALLVALUE DUP1 ISZERO PUSH2 0x6A6 JUMPI PUSH1 0x0 DUP1 REVERT JUMPDEST POP PUSH2 0x6C1 PUSH1 0x4 DUP1 CALLDATASIZE SUB DUP2 ADD SWAP1 PUSH2 0x6BC SWAP2 SWAP1 PUSH2 0x2983 JUMP JUMPDEST PUSH2 0x16F6 JUMP JUMPDEST STOP JUMPDEST CALLVALUE DUP1 ISZERO PUSH2 0x6CF JUMPI PUSH1 0x0 DUP1 REVERT JUMPDEST POP PUSH2 0x6EA PUSH1 0x4 DUP1 CALLDATASIZE SUB DUP2 ADD SWAP1 PUSH2 0x6E5 SWAP2 SWAP1 PUSH2 0x2B37 JUMP JUMPDEST PUSH2 0x17B0 JUMP JUMPDEST PUSH1 0x40 MLOAD PUSH2 0x6F7 SWAP2 SWAP1 PUSH2 0x2915 JUMP JUMPDEST PUSH1 0x40 MLOAD DUP1 SWAP2 SUB SWAP1 RETURN JUMPDEST CALLVALUE DUP1 ISZERO PUSH2 0x70C JUMPI PUSH1 0x0 DUP1 REVERT JUMPDEST POP PUSH2 0x715 PUSH2 0x1837 JUMP JUMPDEST STOP JUMPDEST CALLVALUE DUP1 ISZERO PUSH2 0x723 JUMPI PUSH1 0x0 DUP1 REVERT JUMPDEST POP PUSH2 0x73E PUSH1 0x4 DUP1 CALLDATASIZE SUB DUP2 ADD SWAP1 PUSH2 0x739 SWAP2 SWAP1 PUSH2 0x28D9 JUMP JUMPDEST PUSH2 0x1A41 JUMP JUMPDEST STOP JUMPDEST CALLVALUE DUP1 ISZERO PUSH2 0x74C JUMPI PUSH1 0x0 DUP1 REVERT JUMPDEST POP PUSH2 0x755 PUSH2 0x1AA7 JUMP JUMPDEST PUSH1 0x40 MLOAD PUSH2 0x769 SWAP9 SWAP8 SWAP7 SWAP6 SWAP5 SWAP4 SWAP3 SWAP2 SWAP1 PUSH2 0x2B77 JUMP JUMPDEST PUSH1 0x40 MLOAD DUP1 SWAP2 SUB SWAP1 RETURN JUMPDEST PUSH2 0x78C PUSH1 0x4 DUP1 CALLDATASIZE SUB DUP2 ADD SWAP1 PUSH2 0x787 SWAP2 SWAP1 PUSH2 0x2983 JUMP JUMPDEST PUSH2 0x1B45 JUMP JUMPDEST STOP JUMPDEST PUSH1 0x60 PUSH1 0x3 DUP1 SLOAD PUSH2 0x79D SWAP1 PUSH2 0x2C24 JUMP JUMPDEST DUP1 PUSH1 0x1F ADD PUSH1 0x20 DUP1 SWAP2 DIV MUL PUSH1 0x20 ADD PUSH1 0x40 MLOAD SWAP1 DUP2 ADD PUSH1 0x40 MSTORE DUP1 SWAP3 SWAP2 SWAP1 DUP2 DUP2 MSTORE PUSH1 0x20 ADD DUP3 DUP1 SLOAD PUSH2 0x7C9 SWAP1 PUSH2 0x2C24 JUMP JUMPDEST DUP1 ISZERO PUSH2 0x816 JUMPI DUP1 PUSH1 0x1F LT PUSH2 0x7EB JUMPI PUSH2 0x100 DUP1 DUP4 SLOAD DIV MUL DUP4 MSTORE SWAP2 PUSH1 0x20 ADD SWAP2 PUSH2 0x816 JUMP JUMPDEST DUP3 ADD SWAP2 SWAP1 PUSH1 0x0 MSTORE PUSH1 0x20 PUSH1 0x0 KECCAK256 SWAP1 JUMPDEST DUP2 SLOAD DUP2 MSTORE SWAP1 PUSH1 0x1 ADD SWAP1 PUSH1 0x20 ADD DUP1 DUP4 GT PUSH2 0x7F9 JUMPI DUP3 SWAP1 SUB PUSH1 0x1F AND DUP3 ADD SWAP2 JUMPDEST POP POP POP POP POP SWAP1 POP SWAP1 JUMP JUMPDEST PUSH1 0x0 DUP1 PUSH2 0x82B PUSH2 0x1D5B JUMP JUMPDEST SWAP1 POP PUSH2 0x838 DUP2 DUP6 DUP6 PUSH2 0x1D63 JUMP JUMPDEST PUSH1 0x1 SWAP2 POP POP SWAP3 SWAP2 POP POP JUMP JUMPDEST PUSH1 0xB PUSH1 0x0 ADD PUSH1 0x3 SWAP1 SLOAD SWAP1 PUSH2 0x100 EXP SWAP1 DIV PUSH1 0xFF AND PUSH2 0x895 JUMPI PUSH1 0x40 MLOAD PUSH32 0x8C379A000000000000000000000000000000000000000000000000000000000 DUP2 MSTORE PUSH1 0x4 ADD PUSH2 0x88C SWAP1 PUSH2 0x2CED JUMP JUMPDEST PUSH1 0x40 MLOAD DUP1 SWAP2 SUB SWAP1 REVERT JUMPDEST PUSH2 0x89D PUSH2 0x1D75 JUMP JUMPDEST PUSH2 0x8A5 PUSH2 0x1DFC JUMP JUMPDEST PUSH1 0x7 PUSH1 0x0 DUP3 PUSH20 0xFFFFFFFFFFFFFFFFFFFFFFFFFFFFFFFFFFFFFFFF AND PUSH20 0xFFFFFFFFFFFFFFFFFFFFFFFFFFFFFFFFFFFFFFFF AND DUP2 MSTORE PUSH1 0x20 ADD SWAP1 DUP2 MSTORE PUSH1 0x20 ADD PUSH1 0x0 KECCAK256 PUSH1 0x0 SWAP1 SLOAD SWAP1 PUSH2 0x100 EXP SWAP1 DIV PUSH1 0xFF AND PUSH2 0x931 JUMPI PUSH1 0x40 MLOAD PUSH32 0x8C379A000000000000000000000000000000000000000000000000000000000 DUP2 MSTORE PUSH1 0x4 ADD PUSH2 0x928 SWAP1 PUSH2 0x2D59 JUMP JUMPDEST PUSH1 0x40 MLOAD DUP1 SWAP2 SUB SWAP1 REVERT JUMPDEST PUSH1 0x0 PUSH1 0x7 PUSH1 0x0 DUP4 PUSH20 0xFFFFFFFFFFFFFFFFFFFFFFFFFFFFFFFFFFFFFFFF AND PUSH20 0xFFFFFFFFFFFFFFFFFFFFFFFFFFFFFFFFFFFFFFFF AND DUP2 MSTORE PUSH1 0x20 ADD SWAP1 DUP2 MSTORE PUSH1 0x20 ADD PUSH1 0x0 KECCAK256 PUSH1 0x0 PUSH2 0x100 EXP DUP2 SLOAD DUP2 PUSH1 0xFF MUL NOT AND SWAP1 DUP4 ISZERO ISZERO MUL OR SWAP1 SSTORE POP POP JUMP JUMPDEST PUSH1 0x8 PUSH1 0x20 MSTORE DUP1 PUSH1 0x0 MSTORE PUSH1 0x40 PUSH1 0x0 KECCAK256 PUSH1 0x0 SWAP2 POP SWAP1 POP SLOAD DUP2 JUMP JUMPDEST PUSH1 0xB PUSH1 0x0 ADD PUSH1 0x3 SWAP1 SLOAD SWAP1 PUSH2 0x100 EXP SWAP1 DIV PUSH1 0xFF AND PUSH2 0x9F6 JUMPI PUSH1 0x40 MLOAD PUSH32 0x8C379A000000000000000000000000000000000000000000000000000000000 DUP2 MSTORE PUSH1 0x4 ADD PUSH2 0x9ED SWAP1 PUSH2 0x2CED JUMP JUMPDEST PUSH1 0x40 MLOAD DUP1 SWAP2 SUB SWAP1 REVERT JUMPDEST PUSH2 0x9FE PUSH2 0x1D75 JUMP JUMPDEST PUSH2 0xA06 PUSH2 0x1DFC JUMP JUMPDEST PUSH1 0x7 PUSH1 0x0 DUP3 PUSH20 0xFFFFFFFFFFFFFFFFFFFFFFFFFFFFFFFFFFFFFFFF AND PUSH20 0xFFFFFFFFFFFFFFFFFFFFFFFFFFFFFFFFFFFFFFFF AND DUP2 MSTORE PUSH1 0x20 ADD SWAP1 DUP2 MSTORE PUSH1 0x20 ADD PUSH1 0x0 KECCAK256 PUSH1 0x0 SWAP1 SLOAD SWAP1 PUSH2 0x100 EXP SWAP1 DIV PUSH1 0xFF AND ISZERO PUSH2 0xA93 JUMPI PUSH1 0x40 MLOAD PUSH32 0x8C379A000000000000000000000000000000000000000000000000000000000 DUP2 MSTORE PUSH1 0x4 ADD PUSH2 0xA8A SWAP1 PUSH2 0x2DEB JUMP JUMPDEST PUSH1 0x40 MLOAD DUP1 SWAP2 SUB SWAP1 REVERT JUMPDEST PUSH1 0x1 PUSH1 0x7 PUSH1 0x0 DUP4 PUSH20 0xFFFFFFFFFFFFFFFFFFFFFFFFFFFFFFFFFFFFFFFF AND PUSH20 0xFFFFFFFFFFFFFFFFFFFFFFFFFFFFFFFFFFFFFFFF AND DUP2 MSTORE PUSH1 0x20 ADD SWAP1 DUP2 MSTORE PUSH1 0x20 ADD PUSH1 0x0 KECCAK256 PUSH1 0x0 PUSH2 0x100 EXP DUP2 SLOAD DUP2 PUSH1 0xFF MUL NOT AND SWAP1 DUP4 ISZERO ISZERO MUL OR SWAP1 SSTORE POP POP JUMP JUMPDEST PUSH1 0xB PUSH1 0x0 ADD PUSH1 0x5 SWAP1 SLOAD SWAP1 PUSH2 0x100 EXP SWAP1 DIV PUSH1 0xFF AND PUSH2 0xB40 JUMPI PUSH1 0x40 MLOAD PUSH32 0x8C379A000000000000000000000000000000000000000000000000000000000 DUP2 MSTORE PUSH1 0x4 ADD PUSH2 0xB37 SWAP1 PUSH2 0x2E7D JUMP JUMPDEST PUSH1 0x40 MLOAD DUP1 SWAP2 SUB SWAP1 REVERT JUMPDEST PUSH2 0xB48 PUSH2 0x1D75 JUMP JUMPDEST PUSH2 0xB50 PUSH2 0x1DFC JUMP JUMPDEST PUSH1 0x0 PUSH20 0xFFFFFFFFFFFFFFFFFFFFFFFFFFFFFFFFFFFFFFFF AND DUP2 PUSH20 0xFFFFFFFFFFFFFFFFFFFFFFFFFFFFFFFFFFFFFFFF AND SUB PUSH2 0xBBF JUMPI PUSH1 0x40 MLOAD PUSH32 0x8C379A000000000000000000000000000000000000000000000000000000000 DUP2 MSTORE PUSH1 0x4 ADD PUSH2 0xBB6 SWAP1 PUSH2 0x2EE9 JUMP JUMPDEST PUSH1 0x40 MLOAD DUP1 SWAP2 SUB SWAP1 REVERT JUMPDEST DUP1 PUSH1 0x9 PUSH1 0x1 PUSH2 0x100 EXP DUP2 SLOAD DUP2 PUSH20 0xFFFFFFFFFFFFFFFFFFFFFFFFFFFFFFFFFFFFFFFF MUL NOT AND SWAP1 DUP4 PUSH20 0xFFFFFFFFFFFFFFFFFFFFFFFFFFFFFFFFFFFFFFFF AND MUL OR SWAP1 SSTORE POP POP JUMP JUMPDEST PUSH1 0x0 PUSH1 0x2 SLOAD SWAP1 POP SWAP1 JUMP JUMPDEST PUSH1 0x0 DUP1 PUSH2 0xC18 PUSH2 0x1D5B JUMP JUMPDEST SWAP1 POP PUSH2 0xC25 DUP6 DUP3 DUP6 PUSH2 0x1E3D JUMP JUMPDEST PUSH2 0xC30 DUP6 DUP6 DUP6 PUSH2 0x1ED1 JUMP JUMPDEST PUSH1 0x1 SWAP2 POP POP SWAP4 SWAP3 POP POP POP JUMP JUMPDEST PUSH1 0xB PUSH1 0x0 ADD PUSH1 0x0 SWAP1 SLOAD SWAP1 PUSH2 0x100 EXP SWAP1 DIV PUSH1 0xFF AND PUSH2 0xC8E JUMPI PUSH1 0x40 MLOAD PUSH32 0x8C379A000000000000000000000000000000000000000000000000000000000 DUP2 MSTORE PUSH1 0x4 ADD PUSH2 0xC85 SWAP1 PUSH2 0x2F7B JUMP JUMPDEST PUSH1 0x40 MLOAD DUP1 SWAP2 SUB SWAP1 REVERT JUMPDEST PUSH2 0xC96 PUSH2 0x1D75 JUMP JUMPDEST PUSH2 0xC9E PUSH2 0x1DFC JUMP JUMPDEST PUSH1 0x0 DUP2 GT PUSH2 0xCE1 JUMPI PUSH1 0x40 MLOAD PUSH32 0x8C379A000000000000000000000000000000000000000000000000000000000 DUP2 MSTORE PUSH1 0x4 ADD PUSH2 0xCD8 SWAP1 PUSH2 0x2FE7 JUMP JUMPDEST PUSH1 0x40 MLOAD DUP1 SWAP2 SUB SWAP1 REVERT JUMPDEST PUSH2 0xCF3 ADDRESS PUSH2 0xCEE DUP4 PUSH2 0x1FC5 JUMP JUMPDEST PUSH2 0x1FED JUMP JUMPDEST POP JUMP JUMPDEST PUSH1 0x0 PUSH1 0x9 PUSH1 0x15 SWAP1 SLOAD SWAP1 PUSH2 0x100 EXP SWAP1 DIV PUSH1 0xFF AND SWAP1 POP SWAP1 JUMP JUMPDEST PUSH1 0x9 PUSH1 0x0 SWAP1 SLOAD SWAP1 PUSH2 0x100 EXP SWAP1 DIV PUSH1 0xFF AND DUP2 JUMP JUMPDEST PUSH1 0x0 PUSH1 0x5 PUSH1 0x14 SWAP1 SLOAD SWAP1 PUSH2 0x100 EXP SWAP1 DIV PUSH1 0xFF AND SWAP1 POP SWAP1 JUMP JUMPDEST PUSH1 0x7 PUSH1 0x20 MSTORE DUP1 PUSH1 0x0 MSTORE PUSH1 0x40 PUSH1 0x0 KECCAK256 PUSH1 0x0 SWAP2 POP SLOAD SWAP1 PUSH2 0x100 EXP SWAP1 DIV PUSH1 0xFF AND DUP2 JUMP JUMPDEST PUSH1 0x0 DUP1 PUSH1 0x0 DUP4 PUSH20 0xFFFFFFFFFFFFFFFFFFFFFFFFFFFFFFFFFFFFFFFF AND PUSH20 0xFFFFFFFFFFFFFFFFFFFFFFFFFFFFFFFFFFFFFFFF AND DUP2 MSTORE PUSH1 0x20 ADD SWAP1 DUP2 MSTORE PUSH1 0x20 ADD PUSH1 0x0 KECCAK256 SLOAD SWAP1 POP SWAP2 SWAP1 POP JUMP JUMPDEST PUSH2 0xDA7 PUSH2 0x1D75 JUMP JUMPDEST PUSH2 0xDB1 PUSH1 0x0 PUSH2 0x206F JUMP JUMPDEST JUMP JUMPDEST PUSH1 0xA PUSH1 0x0 SWAP1 SLOAD SWAP1 PUSH2 0x100 EXP SWAP1 DIV PUSH20 0xFFFFFFFFFFFFFFFFFFFFFFFFFFFFFFFFFFFFFFFF AND DUP2 JUMP JUMPDEST PUSH1 0xB PUSH1 0x0 ADD PUSH1 0x2 SWAP1 SLOAD SWAP1 PUSH2 0x100 EXP SWAP1 DIV PUSH1 0xFF AND PUSH2 0xE2B JUMPI PUSH1 0x40 MLOAD PUSH32 0x8C379A000000000000000000000000000000000000000000000000000000000 DUP2 MSTORE PUSH1 0x4 ADD PUSH2 0xE22 SWAP1 PUSH2 0x309F JUMP JUMPDEST PUSH1 0x40 MLOAD DUP1 SWAP2 SUB SWAP1 REVERT JUMPDEST PUSH2 0xE33 PUSH2 0x1D75 JUMP JUMPDEST PUSH2 0xE3B PUSH2 0xD20 JUMP JUMPDEST ISZERO PUSH2 0xE7B JUMPI PUSH1 0x40 MLOAD PUSH32 0x8C379A000000000000000000000000000000000000000000000000000000000 DUP2 MSTORE PUSH1 0x4 ADD PUSH2 0xE72 SWAP1 PUSH2 0x310B JUMP JUMPDEST PUSH1 0x40 MLOAD DUP1 SWAP2 SUB SWAP1 REVERT JUMPDEST PUSH2 0xE83 PUSH2 0x2135 JUMP JUMPDEST JUMP JUMPDEST PUSH1 0xB PUSH1 0x0 ADD PUSH1 0x2 SWAP1 SLOAD SWAP1 PUSH2 0x100 EXP SWAP1 DIV PUSH1 0xFF AND PUSH2 0xED7 JUMPI PUSH1 0x40 MLOAD PUSH32 0x8C379A000000000000000000000000000000000000000000000000000000000 DUP2 MSTORE PUSH1 0x4 ADD PUSH2 0xECE SWAP1 PUSH2 0x309F JUMP JUMPDEST PUSH1 0x40 MLOAD DUP1 SWAP2 SUB SWAP1 REVERT JUMPDEST PUSH2 0xEDF PUSH2 0x1D75 JUMP JUMPDEST PUSH2 0xEE7 PUSH2 0xD20 JUMP JUMPDEST PUSH2 0xF26 JUMPI PUSH1 0x40 MLOAD PUSH32 0x8C379A000000000000000000000000000000000000000000000000000000000 DUP2 MSTORE PUSH1 0x4 ADD PUSH2 0xF1D SWAP1 PUSH2 0x3177 JUMP JUMPDEST PUSH1 0x40 MLOAD DUP1 SWAP2 SUB SWAP1 REVERT JUMPDEST PUSH2 0xF2E PUSH2 0x2198 JUMP JUMPDEST JUMP JUMPDEST PUSH2 0xF38 PUSH2 0x1D75 JUMP JUMPDEST PUSH2 0xF40 PUSH2 0x1DFC JUMP JUMPDEST DUP2 PUSH2 0xF4A ADDRESS PUSH2 0xD57 JUMP JUMPDEST LT ISZERO PUSH2 0xF8B JUMPI PUSH1 0x40 MLOAD PUSH32 0x8C379A000000000000000000000000000000000000000000000000000000000 DUP2 MSTORE PUSH1 0x4 ADD PUSH2 0xF82 SWAP1 PUSH2 0x3209 JUMP JUMPDEST PUSH1 0x40 MLOAD DUP1 SWAP2 SUB SWAP1 REVERT JUMPDEST PUSH1 0x7 PUSH1 0x0 DUP5 PUSH20 0xFFFFFFFFFFFFFFFFFFFFFFFFFFFFFFFFFFFFFFFF AND PUSH20 0xFFFFFFFFFFFFFFFFFFFFFFFFFFFFFFFFFFFFFFFF AND DUP2 MSTORE PUSH1 0x20 ADD SWAP1 DUP2 MSTORE PUSH1 0x20 ADD PUSH1 0x0 KECCAK256 PUSH1 0x0 SWAP1 SLOAD SWAP1 PUSH2 0x100 EXP SWAP1 DIV PUSH1 0xFF AND ISZERO PUSH2 0x1018 JUMPI PUSH1 0x40 MLOAD PUSH32 0x8C379A000000000000000000000000000000000000000000000000000000000 DUP2 MSTORE PUSH1 0x4 ADD PUSH2 0x100F SWAP1 PUSH2 0x3275 JUMP JUMPDEST PUSH1 0x40 MLOAD DUP1 SWAP2 SUB SWAP1 REVERT JUMPDEST PUSH1 0x0 DUP3 GT PUSH2 0x105B JUMPI PUSH1 0x40 MLOAD PUSH32 0x8C379A000000000000000000000000000000000000000000000000000000000 DUP2 MSTORE PUSH1 0x4 ADD PUSH2 0x1052 SWAP1 PUSH2 0x3307 JUMP JUMPDEST PUSH1 0x40 MLOAD DUP1 SWAP2 SUB SWAP1 REVERT JUMPDEST PUSH1 0x0 DUP3 SWAP1 POP PUSH1 0x0 DUP3 DUP3 PUSH2 0x106E SWAP2 SWAP1 PUSH2 0x3385 JUMP JUMPDEST SWAP1 POP PUSH1 0xB PUSH1 0x0 ADD PUSH1 0x5 SWAP1 SLOAD SWAP1 PUSH2 0x100 EXP SWAP1 DIV PUSH1 0xFF AND ISZERO PUSH2 0x10F3 JUMPI PUSH1 0x0 PUSH1 0x64 PUSH1 0x9 PUSH1 0x0 SWAP1 SLOAD SWAP1 PUSH2 0x100 EXP SWAP1 DIV PUSH1 0xFF AND PUSH1 0xFF AND DUP5 PUSH2 0x10AA SWAP2 SWAP1 PUSH2 0x33B6 JUMP JUMPDEST PUSH2 0x10B4 SWAP2 SWAP1 PUSH2 0x3385 JUMP JUMPDEST SWAP1 POP DUP1 DUP4 PUSH2 0x10C2 SWAP2 SWAP1 PUSH2 0x33F8 JUMP JUMPDEST SWAP3 POP PUSH2 0x10F1 ADDRESS PUSH1 0x9 PUSH1 0x1 SWAP1 SLOAD SWAP1 PUSH2 0x100 EXP SWAP1 DIV PUSH20 0xFFFFFFFFFFFFFFFFFFFFFFFFFFFFFFFFFFFFFFFF AND DUP4 PUSH2 0x1ED1 JUMP JUMPDEST POP JUMPDEST PUSH2 0x10FE ADDRESS DUP7 DUP5 PUSH2 0x1ED1 JUMP JUMPDEST PUSH2 0x1110 DUP6 PUSH2 0x110A PUSH2 0x11B0 JUMP JUMPDEST DUP4 PUSH2 0x1D63 JUMP JUMPDEST POP POP POP POP POP JUMP JUMPDEST PUSH2 0x111F PUSH2 0x1D75 JUMP JUMPDEST PUSH1 0x0 PUSH2 0x1132 DUP4 PUSH2 0x112D PUSH2 0x11B0 JUMP JUMPDEST PUSH2 0x17B0 JUMP JUMPDEST SWAP1 POP DUP2 DUP2 LT ISZERO PUSH2 0x1177 JUMPI PUSH1 0x40 MLOAD PUSH32 0x8C379A000000000000000000000000000000000000000000000000000000000 DUP2 MSTORE PUSH1 0x4 ADD PUSH2 0x116E SWAP1 PUSH2 0x3478 JUMP JUMPDEST PUSH1 0x40 MLOAD DUP1 SWAP2 SUB SWAP1 REVERT JUMPDEST PUSH1 0x0 PUSH2 0x1182 DUP5 PUSH2 0xD57 JUMP JUMPDEST SWAP1 POP PUSH1 0x0 DUP2 SUB PUSH2 0x11A0 JUMPI PUSH2 0x119F DUP5 PUSH2 0x1198 PUSH2 0x11B0 JUMP JUMPDEST PUSH1 0x0 PUSH2 0x1D63 JUMP JUMPDEST JUMPDEST PUSH2 0x11AA DUP5 DUP5 PUSH2 0x21FB JUMP JUMPDEST POP POP POP POP JUMP JUMPDEST PUSH1 0x0 PUSH1 0x5 PUSH1 0x0 SWAP1 SLOAD SWAP1 PUSH2 0x100 EXP SWAP1 DIV PUSH20 0xFFFFFFFFFFFFFFFFFFFFFFFFFFFFFFFFFFFFFFFF AND SWAP1 POP SWAP1 JUMP JUMPDEST PUSH1 0x9 PUSH1 0x1 SWAP1 SLOAD SWAP1 PUSH2 0x100 EXP SWAP1 DIV PUSH20 0xFFFFFFFFFFFFFFFFFFFFFFFFFFFFFFFFFFFFFFFF AND DUP2 JUMP JUMPDEST PUSH1 0x60 PUSH1 0x4 DUP1 SLOAD PUSH2 0x120F SWAP1 PUSH2 0x2C24 JUMP JUMPDEST DUP1 PUSH1 0x1F ADD PUSH1 0x20 DUP1 SWAP2 DIV MUL PUSH1 0x20 ADD PUSH1 0x40 MLOAD SWAP1 DUP2 ADD PUSH1 0x40 MSTORE DUP1 SWAP3 SWAP2 SWAP1 DUP2 DUP2 MSTORE PUSH1 0x20 ADD DUP3 DUP1 SLOAD PUSH2 0x123B SWAP1 PUSH2 0x2C24 JUMP JUMPDEST DUP1 ISZERO PUSH2 0x1288 JUMPI DUP1 PUSH1 0x1F LT PUSH2 0x125D JUMPI PUSH2 0x100 DUP1 DUP4 SLOAD DIV MUL DUP4 MSTORE SWAP2 PUSH1 0x20 ADD SWAP2 PUSH2 0x1288 JUMP JUMPDEST DUP3 ADD SWAP2 SWAP1 PUSH1 0x0 MSTORE PUSH1 0x20 PUSH1 0x0 KECCAK256 SWAP1 JUMPDEST DUP2 SLOAD DUP2 MSTORE SWAP1 PUSH1 0x1 ADD SWAP1 PUSH1 0x20 ADD DUP1 DUP4 GT PUSH2 0x126B JUMPI DUP3 SWAP1 SUB PUSH1 0x1F AND DUP3 ADD SWAP2 JUMPDEST POP POP POP POP POP SWAP1 POP SWAP1 JUMP JUMPDEST PUSH1 0xB PUSH1 0x0 ADD PUSH1 0x7 SWAP1 SLOAD SWAP1 PUSH2 0x100 EXP SWAP1 DIV PUSH1 0xFF AND PUSH2 0x12E4 JUMPI PUSH1 0x40 MLOAD PUSH32 0x8C379A000000000000000000000000000000000000000000000000000000000 DUP2 MSTORE PUSH1 0x4 ADD PUSH2 0x12DB SWAP1 PUSH2 0x3530 JUMP JUMPDEST PUSH1 0x40 MLOAD DUP1 SWAP2 SUB SWAP1 REVERT JUMPDEST PUSH2 0x12EC PUSH2 0x227D JUMP JUMPDEST PUSH1 0x7 PUSH1 0x0 CALLER PUSH20 0xFFFFFFFFFFFFFFFFFFFFFFFFFFFFFFFFFFFFFFFF AND PUSH20 0xFFFFFFFFFFFFFFFFFFFFFFFFFFFFFFFFFFFFFFFF AND DUP2 MSTORE PUSH1 0x20 ADD SWAP1 DUP2 MSTORE PUSH1 0x20 ADD PUSH1 0x0 KECCAK256 PUSH1 0x0 SWAP1 SLOAD SWAP1 PUSH2 0x100 EXP SWAP1 DIV PUSH1 0xFF AND ISZERO PUSH2 0x1379 JUMPI PUSH1 0x40 MLOAD PUSH32 0x8C379A000000000000000000000000000000000000000000000000000000000 DUP2 MSTORE PUSH1 0x4 ADD PUSH2 0x1370 SWAP1 PUSH2 0x359C JUMP JUMPDEST PUSH1 0x40 MLOAD DUP1 SWAP2 SUB SWAP1 REVERT JUMPDEST DUP1 PUSH1 0x8 PUSH1 0x0 CALLER PUSH20 0xFFFFFFFFFFFFFFFFFFFFFFFFFFFFFFFFFFFFFFFF AND PUSH20 0xFFFFFFFFFFFFFFFFFFFFFFFFFFFFFFFFFFFFFFFF AND DUP2 MSTORE PUSH1 0x20 ADD SWAP1 DUP2 MSTORE PUSH1 0x20 ADD PUSH1 0x0 KECCAK256 SLOAD LT ISZERO PUSH2 0x13FB JUMPI PUSH1 0x40 MLOAD PUSH32 0x8C379A000000000000000000000000000000000000000000000000000000000 DUP2 MSTORE PUSH1 0x4 ADD PUSH2 0x13F2 SWAP1 PUSH2 0x362E JUMP JUMPDEST PUSH1 0x40 MLOAD DUP1 SWAP2 SUB SWAP1 REVERT JUMPDEST DUP1 PUSH1 0x8 PUSH1 0x0 CALLER PUSH20 0xFFFFFFFFFFFFFFFFFFFFFFFFFFFFFFFFFFFFFFFF AND PUSH20 0xFFFFFFFFFFFFFFFFFFFFFFFFFFFFFFFFFFFFFFFF AND DUP2 MSTORE PUSH1 0x20 ADD SWAP1 DUP2 MSTORE PUSH1 0x20 ADD PUSH1 0x0 KECCAK256 PUSH1 0x0 DUP3 DUP3 SLOAD PUSH2 0x144A SWAP2 SWAP1 PUSH2 0x33F8 JUMP JUMPDEST SWAP3 POP POP DUP2 SWAP1 SSTORE POP PUSH2 0x145C ADDRESS CALLER DUP4 PUSH2 0x1ED1 JUMP JUMPDEST PUSH2 0x1464 PUSH2 0x22C3 JUMP JUMPDEST POP JUMP JUMPDEST PUSH1 0x0 DUP1 PUSH2 0x1472 PUSH2 0x1D5B JUMP JUMPDEST SWAP1 POP PUSH2 0x147F DUP2 DUP6 DUP6 PUSH2 0x1ED1 JUMP JUMPDEST PUSH1 0x1 SWAP2 POP POP SWAP3 SWAP2 POP POP JUMP JUMPDEST PUSH1 0xB PUSH1 0x0 ADD PUSH1 0x5 SWAP1 SLOAD SWAP1 PUSH2 0x100 EXP SWAP1 DIV PUSH1 0xFF AND PUSH2 0x14DC JUMPI PUSH1 0x40 MLOAD PUSH32 0x8C379A000000000000000000000000000000000000000000000000000000000 DUP2 MSTORE PUSH1 0x4 ADD PUSH2 0x14D3 SWAP1 PUSH2 0x2E7D JUMP JUMPDEST PUSH1 0x40 MLOAD DUP1 SWAP2 SUB SWAP1 REVERT JUMPDEST PUSH2 0x14E4 PUSH2 0x1D75 JUMP JUMPDEST PUSH2 0x14EC PUSH2 0x1DFC JUMP JUMPDEST PUSH1 0x0 DUP2 PUSH1 0xFF AND GT PUSH2 0x1532 JUMPI PUSH1 0x40 MLOAD PUSH32 0x8C379A000000000000000000000000000000000000000000000000000000000 DUP2 MSTORE PUSH1 0x4 ADD PUSH2 0x1529 SWAP1 PUSH2 0x369A JUMP JUMPDEST PUSH1 0x40 MLOAD DUP1 SWAP2 SUB SWAP1 REVERT JUMPDEST DUP1 PUSH1 0x9 PUSH1 0x0 PUSH2 0x100 EXP DUP2 SLOAD DUP2 PUSH1 0xFF MUL NOT AND SWAP1 DUP4 PUSH1 0xFF AND MUL OR SWAP1 SSTORE POP POP JUMP JUMPDEST PUSH1 0xB PUSH1 0x0 ADD PUSH1 0x7 SWAP1 SLOAD SWAP1 PUSH2 0x100 EXP SWAP1 DIV PUSH1 0xFF AND PUSH2 0x15A2 JUMPI PUSH1 0x40 MLOAD PUSH32 0x8C379A000000000000000000000000000000000000000000000000000000000 DUP2 MSTORE PUSH1 0x4 ADD PUSH2 0x1599 SWAP1 PUSH2 0x3530 JUMP JUMPDEST PUSH1 0x40 MLOAD DUP1 SWAP2 SUB SWAP1 REVERT JUMPDEST PUSH2 0x15AA PUSH2 0x227D JUMP JUMPDEST PUSH2 0x15B2 PUSH2 0x1DFC JUMP JUMPDEST PUSH1 0x7 PUSH1 0x0 CALLER PUSH20 0xFFFFFFFFFFFFFFFFFFFFFFFFFFFFFFFFFFFFFFFF AND PUSH20 0xFFFFFFFFFFFFFFFFFFFFFFFFFFFFFFFFFFFFFFFF AND DUP2 MSTORE PUSH1 0x20 ADD SWAP1 DUP2 MSTORE PUSH1 0x20 ADD PUSH1 0x0 KECCAK256 PUSH1 0x0 SWAP1 SLOAD SWAP1 PUSH2 0x100 EXP SWAP1 DIV PUSH1 0xFF AND ISZERO PUSH2 0x163F JUMPI PUSH1 0x40 MLOAD PUSH32 0x8C379A000000000000000000000000000000000000000000000000000000000 DUP2 MSTORE PUSH1 0x4 ADD PUSH2 0x1636 SWAP1 PUSH2 0x359C JUMP JUMPDEST PUSH1 0x40 MLOAD DUP1 SWAP2 SUB SWAP1 REVERT JUMPDEST DUP1 PUSH2 0x1649 CALLER PUSH2 0xD57 JUMP JUMPDEST LT ISZERO PUSH2 0x168A JUMPI PUSH1 0x40 MLOAD PUSH32 0x8C379A000000000000000000000000000000000000000000000000000000000 DUP2 MSTORE PUSH1 0x4 ADD PUSH2 0x1681 SWAP1 PUSH2 0x372C JUMP JUMPDEST PUSH1 0x40 MLOAD DUP1 SWAP2 SUB SWAP1 REVERT JUMPDEST DUP1 PUSH1 0x8 PUSH1 0x0 CALLER PUSH20 0xFFFFFFFFFFFFFFFFFFFFFFFFFFFFFFFFFFFFFFFF AND PUSH20 0xFFFFFFFFFFFFFFFFFFFFFFFFFFFFFFFFFFFFFFFF AND DUP2 MSTORE PUSH1 0x20 ADD SWAP1 DUP2 MSTORE PUSH1 0x20 ADD PUSH1 0x0 KECCAK256 PUSH1 0x0 DUP3 DUP3 SLOAD PUSH2 0x16D9 SWAP2 SWAP1 PUSH2 0x374C JUMP JUMPDEST SWAP3 POP POP DUP2 SWAP1 SSTORE POP PUSH2 0x16EB CALLER ADDRESS DUP4 PUSH2 0x1ED1 JUMP JUMPDEST PUSH2 0x16F3 PUSH2 0x22C3 JUMP JUMPDEST POP JUMP JUMPDEST PUSH1 0xB PUSH1 0x0 ADD PUSH1 0x1 SWAP1 SLOAD SWAP1 PUSH2 0x100 EXP SWAP1 DIV PUSH1 0xFF AND PUSH2 0x1748 JUMPI PUSH1 0x40 MLOAD PUSH32 0x8C379A000000000000000000000000000000000000000000000000000000000 DUP2 MSTORE PUSH1 0x4 ADD PUSH2 0x173F SWAP1 PUSH2 0x37F2 JUMP JUMPDEST PUSH1 0x40 MLOAD DUP1 SWAP2 SUB SWAP1 REVERT JUMPDEST PUSH2 0x1750 PUSH2 0x1D75 JUMP JUMPDEST PUSH2 0x1758 PUSH2 0x1DFC JUMP JUMPDEST PUSH1 0x0 DUP2 GT PUSH2 0x179B JUMPI PUSH1 0x40 MLOAD PUSH32 0x8C379A000000000000000000000000000000000000000000000000000000000 DUP2 MSTORE PUSH1 0x4 ADD PUSH2 0x1792 SWAP1 PUSH2 0x385E JUMP JUMPDEST PUSH1 0x40 MLOAD DUP1 SWAP2 SUB SWAP1 REVERT JUMPDEST PUSH2 0x17AD ADDRESS PUSH2 0x17A8 DUP4 PUSH2 0x1FC5 JUMP JUMPDEST PUSH2 0x21FB JUMP JUMPDEST POP JUMP JUMPDEST PUSH1 0x0 PUSH1 0x1 PUSH1 0x0 DUP5 PUSH20 0xFFFFFFFFFFFFFFFFFFFFFFFFFFFFFFFFFFFFFFFF AND PUSH20 0xFFFFFFFFFFFFFFFFFFFFFFFFFFFFFFFFFFFFFFFF AND DUP2 MSTORE PUSH1 0x20 ADD SWAP1 DUP2 MSTORE PUSH1 0x20 ADD PUSH1 0x0 KECCAK256 PUSH1 0x0 DUP4 PUSH20 0xFFFFFFFFFFFFFFFFFFFFFFFFFFFFFFFFFFFFFFFF AND PUSH20 0xFFFFFFFFFFFFFFFFFFFFFFFFFFFFFFFFFFFFFFFF AND DUP2 MSTORE PUSH1 0x20 ADD SWAP1 DUP2 MSTORE PUSH1 0x20 ADD PUSH1 0x0 KECCAK256 SLOAD SWAP1 POP SWAP3 SWAP2 POP POP JUMP JUMPDEST PUSH1 0xB PUSH1 0x0 ADD PUSH1 0x7 SWAP1 SLOAD SWAP1 PUSH2 0x100 EXP SWAP1 DIV PUSH1 0xFF AND PUSH2 0x1889 JUMPI PUSH1 0x40 MLOAD PUSH32 0x8C379A000000000000000000000000000000000000000000000000000000000 DUP2 MSTORE PUSH1 0x4 ADD PUSH2 0x1880 SWAP1 PUSH2 0x3530 JUMP JUMPDEST PUSH1 0x40 MLOAD DUP1 SWAP2 SUB SWAP1 REVERT JUMPDEST PUSH2 0x1891 PUSH2 0x227D JUMP JUMPDEST PUSH2 0x1899 PUSH2 0x1DFC JUMP JUMPDEST PUSH1 0x7 PUSH1 0x0 CALLER PUSH20 0xFFFFFFFFFFFFFFFFFFFFFFFFFFFFFFFFFFFFFFFF AND PUSH20 0xFFFFFFFFFFFFFFFFFFFFFFFFFFFFFFFFFFFFFFFF AND DUP2 MSTORE PUSH1 0x20 ADD SWAP1 DUP2 MSTORE PUSH1 0x20 ADD PUSH1 0x0 KECCAK256 PUSH1 0x0 SWAP1 SLOAD SWAP1 PUSH2 0x100 EXP SWAP1 DIV PUSH1 0xFF AND ISZERO PUSH2 0x1926 JUMPI PUSH1 0x40 MLOAD PUSH32 0x8C379A000000000000000000000000000000000000000000000000000000000 DUP2 MSTORE PUSH1 0x4 ADD PUSH2 0x191D SWAP1 PUSH2 0x359C JUMP JUMPDEST PUSH1 0x40 MLOAD DUP1 SWAP2 SUB SWAP1 REVERT JUMPDEST PUSH1 0x0 PUSH1 0x8 PUSH1 0x0 CALLER PUSH20 0xFFFFFFFFFFFFFFFFFFFFFFFFFFFFFFFFFFFFFFFF AND PUSH20 0xFFFFFFFFFFFFFFFFFFFFFFFFFFFFFFFFFFFFFFFF AND DUP2 MSTORE PUSH1 0x20 ADD SWAP1 DUP2 MSTORE PUSH1 0x20 ADD PUSH1 0x0 KECCAK256 SLOAD GT PUSH2 0x19A8 JUMPI PUSH1 0x40 MLOAD PUSH32 0x8C379A000000000000000000000000000000000000000000000000000000000 DUP2 MSTORE PUSH1 0x4 ADD PUSH2 0x199F SWAP1 PUSH2 0x38F0 JUMP JUMPDEST PUSH1 0x40 MLOAD DUP1 SWAP2 SUB SWAP1 REVERT JUMPDEST PUSH1 0x0 PUSH1 0x8 PUSH1 0x0 CALLER PUSH20 0xFFFFFFFFFFFFFFFFFFFFFFFFFFFFFFFFFFFFFFFF AND PUSH20 0xFFFFFFFFFFFFFFFFFFFFFFFFFFFFFFFFFFFFFFFF AND DUP2 MSTORE PUSH1 0x20 ADD SWAP1 DUP2 MSTORE PUSH1 0x20 ADD PUSH1 0x0 KECCAK256 DUP2 SWAP1 SSTORE POP PUSH2 0x1A37 ADDRESS CALLER PUSH1 0x8 PUSH1 0x0 CALLER PUSH20 0xFFFFFFFFFFFFFFFFFFFFFFFFFFFFFFFFFFFFFFFF AND PUSH20 0xFFFFFFFFFFFFFFFFFFFFFFFFFFFFFFFFFFFFFFFF AND DUP2 MSTORE PUSH1 0x20 ADD SWAP1 DUP2 MSTORE PUSH1 0x20 ADD PUSH1 0x0 KECCAK256 SLOAD PUSH2 0x1ED1 JUMP JUMPDEST PUSH2 0x1A3F PUSH2 0x22C3 JUMP JUMPDEST JUMP JUMPDEST PUSH1 0xB PUSH1 0x0 ADD PUSH1 0x4 SWAP1 SLOAD SWAP1 PUSH2 0x100 EXP SWAP1 DIV PUSH1 0xFF AND PUSH2 0x1A93 JUMPI PUSH1 0x40 MLOAD PUSH32 0x8C379A000000000000000000000000000000000000000000000000000000000 DUP2 MSTORE PUSH1 0x4 ADD PUSH2 0x1A8A SWAP1 PUSH2 0x39A8 JUMP JUMPDEST PUSH1 0x40 MLOAD DUP1 SWAP2 SUB SWAP1 REVERT JUMPDEST PUSH2 0x1A9B PUSH2 0x1D75 JUMP JUMPDEST PUSH2 0x1AA4 DUP2 PUSH2 0x206F JUMP JUMPDEST POP JUMP JUMPDEST PUSH1 0xB DUP1 PUSH1 0x0 ADD PUSH1 0x0 SWAP1 SLOAD SWAP1 PUSH2 0x100 EXP SWAP1 DIV PUSH1 0xFF AND SWAP1 DUP1 PUSH1 0x0 ADD PUSH1 0x1 SWAP1 SLOAD SWAP1 PUSH2 0x100 EXP SWAP1 DIV PUSH1 0xFF AND SWAP1 DUP1 PUSH1 0x0 ADD PUSH1 0x2 SWAP1 SLOAD SWAP1 PUSH2 0x100 EXP SWAP1 DIV PUSH1 0xFF AND SWAP1 DUP1 PUSH1 0x0 ADD PUSH1 0x3 SWAP1 SLOAD SWAP1 PUSH2 0x100 EXP SWAP1 DIV PUSH1 0xFF AND SWAP1 DUP1 PUSH1 0x0 ADD PUSH1 0x4 SWAP1 SLOAD SWAP1 PUSH2 0x100 EXP SWAP1 DIV PUSH1 0xFF AND SWAP1 DUP1 PUSH1 0x0 ADD PUSH1 0x5 SWAP1 SLOAD SWAP1 PUSH2 0x100 EXP SWAP1 DIV PUSH1 0xFF AND SWAP1 DUP1 PUSH1 0x0 ADD PUSH1 0x6 SWAP1 SLOAD SWAP1 PUSH2 0x100 EXP SWAP1 DIV PUSH1 0xFF AND SWAP1 DUP1 PUSH1 0x0 ADD PUSH1 0x7 SWAP1 SLOAD SWAP1 PUSH2 0x100 EXP SWAP1 DIV PUSH1 0xFF AND SWAP1 POP DUP9 JUMP JUMPDEST PUSH1 0xB PUSH1 0x0 ADD PUSH1 0x6 SWAP1 SLOAD SWAP1 PUSH2 0x100 EXP SWAP1 DIV PUSH1 0xFF AND PUSH2 0x1B97 JUMPI PUSH1 0x40 MLOAD PUSH32 0x8C379A000000000000000000000000000000000000000000000000000000000 DUP2 MSTORE PUSH1 0x4 ADD PUSH2 0x1B8E SWAP1 PUSH2 0x3A60 JUMP JUMPDEST PUSH1 0x40 MLOAD DUP1 SWAP2 SUB SWAP1 REVERT JUMPDEST PUSH2 0x1B9F PUSH2 0x1DFC JUMP JUMPDEST PUSH1 0x0 PUSH1 0x2 PUSH8 0xFFFFFFFFFFFFFFFF DUP2 GT ISZERO PUSH2 0x1BBC JUMPI PUSH2 0x1BBB PUSH2 0x3A80 JUMP JUMPDEST JUMPDEST PUSH1 0x40 MLOAD SWAP1 DUP1 DUP3 MSTORE DUP1 PUSH1 0x20 MUL PUSH1 0x20 ADD DUP3 ADD PUSH1 0x40 MSTORE DUP1 ISZERO PUSH2 0x1BEA JUMPI DUP2 PUSH1 0x20 ADD PUSH1 0x20 DUP3 MUL DUP1 CALLDATASIZE DUP4 CALLDATACOPY DUP1 DUP3 ADD SWAP2 POP POP SWAP1 POP JUMPDEST POP SWAP1 POP PUSH20 0xAB8483F64D9C6D1ECF9B849AE677DD3315835CB2 DUP2 PUSH1 0x0 DUP2 MLOAD DUP2 LT PUSH2 0x1C16 JUMPI PUSH2 0x1C15 PUSH2 0x3AAF JUMP JUMPDEST JUMPDEST PUSH1 0x20 MUL PUSH1 0x20 ADD ADD SWAP1 PUSH20 0xFFFFFFFFFFFFFFFFFFFFFFFFFFFFFFFFFFFFFFFF AND SWAP1 DUP2 PUSH20 0xFFFFFFFFFFFFFFFFFFFFFFFFFFFFFFFFFFFFFFFF AND DUP2 MSTORE POP POP ADDRESS DUP2 PUSH1 0x1 DUP2 MLOAD DUP2 LT PUSH2 0x1C65 JUMPI PUSH2 0x1C64 PUSH2 0x3AAF JUMP JUMPDEST JUMPDEST PUSH1 0x20 MUL PUSH1 0x20 ADD ADD SWAP1 PUSH20 0xFFFFFFFFFFFFFFFFFFFFFFFFFFFFFFFFFFFFFFFF AND SWAP1 DUP2 PUSH20 0xFFFFFFFFFFFFFFFFFFFFFFFFFFFFFFFFFFFFFFFF AND DUP2 MSTORE POP POP PUSH1 0xA PUSH1 0x0 SWAP1 SLOAD SWAP1 PUSH2 0x100 EXP SWAP1 DIV PUSH20 0xFFFFFFFFFFFFFFFFFFFFFFFFFFFFFFFFFFFFFFFF AND PUSH20 0xFFFFFFFFFFFFFFFFFFFFFFFFFFFFFFFFFFFFFFFF AND PUSH4 0x7FF36AB5 CALLVALUE DUP5 DUP5 ADDRESS PUSH2 0x12C TIMESTAMP PUSH2 0x1CEF SWAP2 SWAP1 PUSH2 0x374C JUMP JUMPDEST PUSH1 0x40 MLOAD DUP7 PUSH4 0xFFFFFFFF AND PUSH1 0xE0 SHL DUP2 MSTORE PUSH1 0x4 ADD PUSH2 0x1D0E SWAP5 SWAP4 SWAP3 SWAP2 SWAP1 PUSH2 0x3B9C JUMP JUMPDEST PUSH1 0x0 PUSH1 0x40 MLOAD DUP1 DUP4 SUB DUP2 DUP6 DUP9 GAS CALL ISZERO DUP1 ISZERO PUSH2 0x1D2C JUMPI RETURNDATASIZE PUSH1 0x0 DUP1 RETURNDATACOPY RETURNDATASIZE PUSH1 0x0 REVERT JUMPDEST POP POP POP POP POP PUSH1 0x40 MLOAD RETURNDATASIZE PUSH1 0x0 DUP3 RETURNDATACOPY RETURNDATASIZE PUSH1 0x1F NOT PUSH1 0x1F DUP3 ADD AND DUP3 ADD DUP1 PUSH1 0x40 MSTORE POP DUP2 ADD SWAP1 PUSH2 0x1D56 SWAP2 SWAP1 PUSH2 0x3D16 JUMP JUMPDEST POP POP POP JUMP JUMPDEST PUSH1 0x0 CALLER SWAP1 POP SWAP1 JUMP JUMPDEST PUSH2 0x1D70 DUP4 DUP4 DUP4 PUSH1 0x1 PUSH2 0x22CD JUMP JUMPDEST POP POP POP JUMP JUMPDEST PUSH2 0x1D7D PUSH2 0x1D5B JUMP JUMPDEST PUSH20 0xFFFFFFFFFFFFFFFFFFFFFFFFFFFFFFFFFFFFFFFF AND PUSH2 0x1D9B PUSH2 0x11B0 JUMP JUMPDEST PUSH20 0xFFFFFFFFFFFFFFFFFFFFFFFFFFFFFFFFFFFFFFFF AND EQ PUSH2 0x1DFA JUMPI PUSH2 0x1DBE PUSH2 0x1D5B JUMP JUMPDEST PUSH1 0x40 MLOAD PUSH32 0x118CDAA700000000000000000000000000000000000000000000000000000000 DUP2 MSTORE PUSH1 0x4 ADD PUSH2 0x1DF1 SWAP2 SWAP1 PUSH2 0x2AC3 JUMP JUMPDEST PUSH1 0x40 MLOAD DUP1 SWAP2 SUB SWAP1 REVERT JUMPDEST JUMP JUMPDEST PUSH2 0x1E04 PUSH2 0xD20 JUMP JUMPDEST ISZERO PUSH2 0x1E3B JUMPI PUSH1 0x40 MLOAD PUSH32 0xD93C066500000000000000000000000000000000000000000000000000000000 DUP2 MSTORE PUSH1 0x4 ADD PUSH1 0x40 MLOAD DUP1 SWAP2 SUB SWAP1 REVERT JUMPDEST JUMP JUMPDEST PUSH1 0x0 PUSH2 0x1E49 DUP5 DUP5 PUSH2 0x17B0 JUMP JUMPDEST SWAP1 POP PUSH32 0xFFFFFFFFFFFFFFFFFFFFFFFFFFFFFFFFFFFFFFFFFFFFFFFFFFFFFFFFFFFFFFFF DUP2 EQ PUSH2 0x1ECB JUMPI DUP2 DUP2 LT ISZERO PUSH2 0x1EBB JUMPI DUP3 DUP2 DUP4 PUSH1 0x40 MLOAD PUSH32 0xFB8F41B200000000000000000000000000000000000000000000000000000000 DUP2 MSTORE PUSH1 0x4 ADD PUSH2 0x1EB2 SWAP4 SWAP3 SWAP2 SWAP1 PUSH2 0x3D5F JUMP JUMPDEST PUSH1 0x40 MLOAD DUP1 SWAP2 SUB SWAP1 REVERT JUMPDEST PUSH2 0x1ECA DUP5 DUP5 DUP5 DUP5 SUB PUSH1 0x0 PUSH2 0x22CD JUMP JUMPDEST JUMPDEST POP POP POP POP JUMP JUMPDEST PUSH1 0x0 PUSH20 0xFFFFFFFFFFFFFFFFFFFFFFFFFFFFFFFFFFFFFFFF AND DUP4 PUSH20 0xFFFFFFFFFFFFFFFFFFFFFFFFFFFFFFFFFFFFFFFF AND SUB PUSH2 0x1F43 JUMPI PUSH1 0x0 PUSH1 0x40 MLOAD PUSH32 0x96C6FD1E00000000000000000000000000000000000000000000000000000000 DUP2 MSTORE PUSH1 0x4 ADD PUSH2 0x1F3A SWAP2 SWAP1 PUSH2 0x2AC3 JUMP JUMPDEST PUSH1 0x40 MLOAD DUP1 SWAP2 SUB SWAP1 REVERT JUMPDEST PUSH1 0x0 PUSH20 0xFFFFFFFFFFFFFFFFFFFFFFFFFFFFFFFFFFFFFFFF AND DUP3 PUSH20 0xFFFFFFFFFFFFFFFFFFFFFFFFFFFFFFFFFFFFFFFF AND SUB PUSH2 0x1FB5 JUMPI PUSH1 0x0 PUSH1 0x40 MLOAD PUSH32 0xEC442F0500000000000000000000000000000000000000000000000000000000 DUP2 MSTORE PUSH1 0x4 ADD PUSH2 0x1FAC SWAP2 SWAP1 PUSH2 0x2AC3 JUMP JUMPDEST PUSH1 0x40 MLOAD DUP1 SWAP2 SUB SWAP1 REVERT JUMPDEST PUSH2 0x1FC0 DUP4 DUP4 DUP4 PUSH2 0x24A4 JUMP JUMPDEST POP POP POP JUMP JUMPDEST PUSH1 0x0 PUSH2 0x1FCF PUSH2 0xCF6 JUMP JUMPDEST PUSH1 0xA PUSH2 0x1FDB SWAP2 SWAP1 PUSH2 0x3EC9 JUMP JUMPDEST DUP3 PUSH2 0x1FE6 SWAP2 SWAP1 PUSH2 0x33B6 JUMP JUMPDEST SWAP1 POP SWAP2 SWAP1 POP JUMP JUMPDEST PUSH1 0x0 PUSH20 0xFFFFFFFFFFFFFFFFFFFFFFFFFFFFFFFFFFFFFFFF AND DUP3 PUSH20 0xFFFFFFFFFFFFFFFFFFFFFFFFFFFFFFFFFFFFFFFF AND SUB PUSH2 0x205F JUMPI PUSH1 0x0 PUSH1 0x40 MLOAD PUSH32 0xEC442F0500000000000000000000000000000000000000000000000000000000 DUP2 MSTORE PUSH1 0x4 ADD PUSH2 0x2056 SWAP2 SWAP1 PUSH2 0x2AC3 JUMP JUMPDEST PUSH1 0x40 MLOAD DUP1 SWAP2 SUB SWAP1 REVERT JUMPDEST PUSH2 0x206B PUSH1 0x0 DUP4 DUP4 PUSH2 0x24A4 JUMP JUMPDEST POP POP JUMP JUMPDEST PUSH1 0x0 PUSH1 0x5 PUSH1 0x0 SWAP1 SLOAD SWAP1 PUSH2 0x100 EXP SWAP1 DIV PUSH20 0xFFFFFFFFFFFFFFFFFFFFFFFFFFFFFFFFFFFFFFFF AND SWAP1 POP DUP2 PUSH1 0x5 PUSH1 0x0 PUSH2 0x100 EXP DUP2 SLOAD DUP2 PUSH20 0xFFFFFFFFFFFFFFFFFFFFFFFFFFFFFFFFFFFFFFFF MUL NOT AND SWAP1 DUP4 PUSH20 0xFFFFFFFFFFFFFFFFFFFFFFFFFFFFFFFFFFFFFFFF AND MUL OR SWAP1 SSTORE POP DUP2 PUSH20 0xFFFFFFFFFFFFFFFFFFFFFFFFFFFFFFFFFFFFFFFF AND DUP2 PUSH20 0xFFFFFFFFFFFFFFFFFFFFFFFFFFFFFFFFFFFFFFFF AND PUSH32 0x8BE0079C531659141344CD1FD0A4F28419497F9722A3DAAFE3B4186F6B6457E0 PUSH1 0x40 MLOAD PUSH1 0x40 MLOAD DUP1 SWAP2 SUB SWAP1 LOG3 POP POP JUMP JUMPDEST PUSH2 0x213D PUSH2 0x1DFC JUMP JUMPDEST PUSH1 0x1 PUSH1 0x5 PUSH1 0x14 PUSH2 0x100 EXP DUP2 SLOAD DUP2 PUSH1 0xFF MUL NOT AND SWAP1 DUP4 ISZERO ISZERO MUL OR SWAP1 SSTORE POP PUSH32 0x62E78CEA01BEE320CD4E420270B5EA74000D11B0C9F74754EBDBFC544B05A258 PUSH2 0x2181 PUSH2 0x1D5B JUMP JUMPDEST PUSH1 0x40 MLOAD PUSH2 0x218E SWAP2 SWAP1 PUSH2 0x2AC3 JUMP JUMPDEST PUSH1 0x40 MLOAD DUP1 SWAP2 SUB SWAP1 LOG1 JUMP JUMPDEST PUSH2 0x21A0 PUSH2 0x26C9 JUMP JUMPDEST PUSH1 0x0 PUSH1 0x5 PUSH1 0x14 PUSH2 0x100 EXP DUP2 SLOAD DUP2 PUSH1 0xFF MUL NOT AND SWAP1 DUP4 ISZERO ISZERO MUL OR SWAP1 SSTORE POP PUSH32 0x5DB9EE0A495BF2E6FF9C91A7834C1BA4FDD244A5E8AA4E537BD38AEAE4B073AA PUSH2 0x21E4 PUSH2 0x1D5B JUMP JUMPDEST PUSH1 0x40 MLOAD PUSH2 0x21F1 SWAP2 SWAP1 PUSH2 0x2AC3 JUMP JUMPDEST PUSH1 0x40 MLOAD DUP1 SWAP2 SUB SWAP1 LOG1 JUMP JUMPDEST PUSH1 0x0 PUSH20 0xFFFFFFFFFFFFFFFFFFFFFFFFFFFFFFFFFFFFFFFF AND DUP3 PUSH20 0xFFFFFFFFFFFFFFFFFFFFFFFFFFFFFFFFFFFFFFFF AND SUB PUSH2 0x226D JUMPI PUSH1 0x0 PUSH1 0x40 MLOAD PUSH32 0x96C6FD1E00000000000000000000000000000000000000000000000000000000 DUP2 MSTORE PUSH1 0x4 ADD PUSH2 0x2264 SWAP2 SWAP1 PUSH2 0x2AC3 JUMP JUMPDEST PUSH1 0x40 MLOAD DUP1 SWAP2 SUB SWAP1 REVERT JUMPDEST PUSH2 0x2279 DUP3 PUSH1 0x0 DUP4 PUSH2 0x24A4 JUMP JUMPDEST POP POP JUMP JUMPDEST PUSH1 0x2 PUSH1 0x6 SLOAD SUB PUSH2 0x22B9 JUMPI PUSH1 0x40 MLOAD PUSH32 0x3EE5AEB500000000000000000000000000000000000000000000000000000000 DUP2 MSTORE PUSH1 0x4 ADD PUSH1 0x40 MLOAD DUP1 SWAP2 SUB SWAP1 REVERT JUMPDEST PUSH1 0x2 PUSH1 0x6 DUP2 SWAP1 SSTORE POP JUMP JUMPDEST PUSH1 0x1 PUSH1 0x6 DUP2 SWAP1 SSTORE POP JUMP JUMPDEST PUSH1 0x0 PUSH20 0xFFFFFFFFFFFFFFFFFFFFFFFFFFFFFFFFFFFFFFFF AND DUP5 PUSH20 0xFFFFFFFFFFFFFFFFFFFFFFFFFFFFFFFFFFFFFFFF AND SUB PUSH2 0x233F JUMPI PUSH1 0x0 PUSH1 0x40 MLOAD PUSH32 0xE602DF0500000000000000000000000000000000000000000000000000000000 DUP2 MSTORE PUSH1 0x4 ADD PUSH2 0x2336 SWAP2 SWAP1 PUSH2 0x2AC3 JUMP JUMPDEST PUSH1 0x40 MLOAD DUP1 SWAP2 SUB SWAP1 REVERT JUMPDEST PUSH1 0x0 PUSH20 0xFFFFFFFFFFFFFFFFFFFFFFFFFFFFFFFFFFFFFFFF AND DUP4 PUSH20 0xFFFFFFFFFFFFFFFFFFFFFFFFFFFFFFFFFFFFFFFF AND SUB PUSH2 0x23B1 JUMPI PUSH1 0x0 PUSH1 0x40 MLOAD PUSH32 0x94280D6200000000000000000000000000000000000000000000000000000000 DUP2 MSTORE PUSH1 0x4 ADD PUSH2 0x23A8 SWAP2 SWAP1 PUSH2 0x2AC3 JUMP JUMPDEST PUSH1 0x40 MLOAD DUP1 SWAP2 SUB SWAP1 REVERT JUMPDEST DUP2 PUSH1 0x1 PUSH1 0x0 DUP7 PUSH20 0xFFFFFFFFFFFFFFFFFFFFFFFFFFFFFFFFFFFFFFFF AND PUSH20 0xFFFFFFFFFFFFFFFFFFFFFFFFFFFFFFFFFFFFFFFF AND DUP2 MSTORE PUSH1 0x20 ADD SWAP1 DUP2 MSTORE PUSH1 0x20 ADD PUSH1 0x0 KECCAK256 PUSH1 0x0 DUP6 PUSH20 0xFFFFFFFFFFFFFFFFFFFFFFFFFFFFFFFFFFFFFFFF AND PUSH20 0xFFFFFFFFFFFFFFFFFFFFFFFFFFFFFFFFFFFFFFFF AND DUP2 MSTORE PUSH1 0x20 ADD SWAP1 DUP2 MSTORE PUSH1 0x20 ADD PUSH1 0x0 KECCAK256 DUP2 SWAP1 SSTORE POP DUP1 ISZERO PUSH2 0x249E JUMPI DUP3 PUSH20 0xFFFFFFFFFFFFFFFFFFFFFFFFFFFFFFFFFFFFFFFF AND DUP5 PUSH20 0xFFFFFFFFFFFFFFFFFFFFFFFFFFFFFFFFFFFFFFFF AND PUSH32 0x8C5BE1E5EBEC7D5BD14F71427D1E84F3DD0314C0F7B2291E5B200AC8C7C3B925 DUP5 PUSH1 0x40 MLOAD PUSH2 0x2495 SWAP2 SWAP1 PUSH2 0x2915 JUMP JUMPDEST PUSH1 0x40 MLOAD DUP1 SWAP2 SUB SWAP1 LOG3 JUMPDEST POP POP POP POP JUMP JUMPDEST PUSH1 0x0 PUSH20 0xFFFFFFFFFFFFFFFFFFFFFFFFFFFFFFFFFFFFFFFF AND DUP4 PUSH20 0xFFFFFFFFFFFFFFFFFFFFFFFFFFFFFFFFFFFFFFFF AND SUB PUSH2 0x24F6 JUMPI DUP1 PUSH1 0x2 PUSH1 0x0 DUP3 DUP3 SLOAD PUSH2 0x24EA SWAP2 SWAP1 PUSH2 0x374C JUMP JUMPDEST SWAP3 POP POP DUP2 SWAP1 SSTORE POP PUSH2 0x25C9 JUMP JUMPDEST PUSH1 0x0 DUP1 PUSH1 0x0 DUP6 PUSH20 0xFFFFFFFFFFFFFFFFFFFFFFFFFFFFFFFFFFFFFFFF AND PUSH20 0xFFFFFFFFFFFFFFFFFFFFFFFFFFFFFFFFFFFFFFFF AND DUP2 MSTORE PUSH1 0x20 ADD SWAP1 DUP2 MSTORE PUSH1 0x20 ADD PUSH1 0x0 KECCAK256 SLOAD SWAP1 POP DUP2 DUP2 LT ISZERO PUSH2 0x2582 JUMPI DUP4 DUP2 DUP4 PUSH1 0x40 MLOAD PUSH32 0xE450D38C00000000000000000000000000000000000000000000000000000000 DUP2 MSTORE PUSH1 0x4 ADD PUSH2 0x2579 SWAP4 SWAP3 SWAP2 SWAP1 PUSH2 0x3D5F JUMP JUMPDEST PUSH1 0x40 MLOAD DUP1 SWAP2 SUB SWAP1 REVERT JUMPDEST DUP2 DUP2 SUB PUSH1 0x0 DUP1 DUP7 PUSH20 0xFFFFFFFFFFFFFFFFFFFFFFFFFFFFFFFFFFFFFFFF AND PUSH20 0xFFFFFFFFFFFFFFFFFFFFFFFFFFFFFFFFFFFFFFFF AND DUP2 MSTORE PUSH1 0x20 ADD SWAP1 DUP2 MSTORE PUSH1 0x20 ADD PUSH1 0x0 KECCAK256 DUP2 SWAP1 SSTORE POP POP JUMPDEST PUSH1 0x0 PUSH20 0xFFFFFFFFFFFFFFFFFFFFFFFFFFFFFFFFFFFFFFFF AND DUP3 PUSH20 0xFFFFFFFFFFFFFFFFFFFFFFFFFFFFFFFFFFFFFFFF AND SUB PUSH2 0x2612 JUMPI DUP1 PUSH1 0x2 PUSH1 0x0 DUP3 DUP3 SLOAD SUB SWAP3 POP POP DUP2 SWAP1 SSTORE POP PUSH2 0x265F JUMP JUMPDEST DUP1 PUSH1 0x0 DUP1 DUP5 PUSH20 0xFFFFFFFFFFFFFFFFFFFFFFFFFFFFFFFFFFFFFFFF AND PUSH20 0xFFFFFFFFFFFFFFFFFFFFFFFFFFFFFFFFFFFFFFFF AND DUP2 MSTORE PUSH1 0x20 ADD SWAP1 DUP2 MSTORE PUSH1 0x20 ADD PUSH1 0x0 KECCAK256 PUSH1 0x0 DUP3 DUP3 SLOAD ADD SWAP3 POP POP DUP2 SWAP1 SSTORE POP JUMPDEST DUP2 PUSH20 0xFFFFFFFFFFFFFFFFFFFFFFFFFFFFFFFFFFFFFFFF AND DUP4 PUSH20 0xFFFFFFFFFFFFFFFFFFFFFFFFFFFFFFFFFFFFFFFF AND PUSH32 0xDDF252AD1BE2C89B69C2B068FC378DAA952BA7F163C4A11628F55A4DF523B3EF DUP4 PUSH1 0x40 MLOAD PUSH2 0x26BC SWAP2 SWAP1 PUSH2 0x2915 JUMP JUMPDEST PUSH1 0x40 MLOAD DUP1 SWAP2 SUB SWAP1 LOG3 POP POP POP JUMP JUMPDEST PUSH2 0x26D1 PUSH2 0xD20 JUMP JUMPDEST PUSH2 0x2707 JUMPI PUSH1 0x40 MLOAD PUSH32 0x8DFC202B00000000000000000000000000000000000000000000000000000000 DUP2 MSTORE PUSH1 0x4 ADD PUSH1 0x40 MLOAD DUP1 SWAP2 SUB SWAP1 REVERT JUMPDEST JUMP JUMPDEST PUSH1 0x0 DUP2 MLOAD SWAP1 POP SWAP2 SWAP1 POP JUMP JUMPDEST PUSH1 0x0 DUP3 DUP3 MSTORE PUSH1 0x20 DUP3 ADD SWAP1 POP SWAP3 SWAP2 POP POP JUMP JUMPDEST PUSH1 0x0 JUMPDEST DUP4 DUP2 LT ISZERO PUSH2 0x2743 JUMPI DUP1 DUP3 ADD MLOAD DUP2 DUP5 ADD MSTORE PUSH1 0x20 DUP2 ADD SWAP1 POP PUSH2 0x2728 JUMP JUMPDEST PUSH1 0x0 DUP5 DUP5 ADD MSTORE POP POP POP POP JUMP JUMPDEST PUSH1 0x0 PUSH1 0x1F NOT PUSH1 0x1F DUP4 ADD AND SWAP1 POP SWAP2 SWAP1 POP JUMP JUMPDEST PUSH1 0x0 PUSH2 0x276B DUP3 PUSH2 0x2709 JUMP JUMPDEST PUSH2 0x2775 DUP2 DUP6 PUSH2 0x2714 JUMP JUMPDEST SWAP4 POP PUSH2 0x2785 DUP2 DUP6 PUSH1 0x20 DUP7 ADD PUSH2 0x2725 JUMP JUMPDEST PUSH2 0x278E DUP2 PUSH2 0x274F JUMP JUMPDEST DUP5 ADD SWAP2 POP POP SWAP3 SWAP2 POP POP JUMP JUMPDEST PUSH1 0x0 PUSH1 0x20 DUP3 ADD SWAP1 POP DUP2 DUP2 SUB PUSH1 0x0 DUP4 ADD MSTORE PUSH2 0x27B3 DUP2 DUP5 PUSH2 0x2760 JUMP JUMPDEST SWAP1 POP SWAP3 SWAP2 POP POP JUMP JUMPDEST PUSH1 0x0 PUSH1 0x40 MLOAD SWAP1 POP SWAP1 JUMP JUMPDEST PUSH1 0x0 DUP1 REVERT JUMPDEST PUSH1 0x0 DUP1 REVERT JUMPDEST PUSH1 0x0 PUSH20 0xFFFFFFFFFFFFFFFFFFFFFFFFFFFFFFFFFFFFFFFF DUP3 AND SWAP1 POP SWAP2 SWAP1 POP JUMP JUMPDEST PUSH1 0x0 PUSH2 0x27FA DUP3 PUSH2 0x27CF JUMP JUMPDEST SWAP1 POP SWAP2 SWAP1 POP JUMP JUMPDEST PUSH2 0x280A DUP2 PUSH2 0x27EF JUMP JUMPDEST DUP2 EQ PUSH2 0x2815 JUMPI PUSH1 0x0 DUP1 REVERT JUMPDEST POP JUMP JUMPDEST PUSH1 0x0 DUP2 CALLDATALOAD SWAP1 POP PUSH2 0x2827 DUP2 PUSH2 0x2801 JUMP JUMPDEST SWAP3 SWAP2 POP POP JUMP JUMPDEST PUSH1 0x0 DUP2 SWAP1 POP SWAP2 SWAP1 POP JUMP JUMPDEST PUSH2 0x2840 DUP2 PUSH2 0x282D JUMP JUMPDEST DUP2 EQ PUSH2 0x284B JUMPI PUSH1 0x0 DUP1 REVERT JUMPDEST POP JUMP JUMPDEST PUSH1 0x0 DUP2 CALLDATALOAD SWAP1 POP PUSH2 0x285D DUP2 PUSH2 0x2837 JUMP JUMPDEST SWAP3 SWAP2 POP POP JUMP JUMPDEST PUSH1 0x0 DUP1 PUSH1 0x40 DUP4 DUP6 SUB SLT ISZERO PUSH2 0x287A JUMPI PUSH2 0x2879 PUSH2 0x27C5 JUMP JUMPDEST JUMPDEST PUSH1 0x0 PUSH2 0x2888 DUP6 DUP3 DUP7 ADD PUSH2 0x2818 JUMP JUMPDEST SWAP3 POP POP PUSH1 0x20 PUSH2 0x2899 DUP6 DUP3 DUP7 ADD PUSH2 0x284E JUMP JUMPDEST SWAP2 POP POP SWAP3 POP SWAP3 SWAP1 POP JUMP JUMPDEST PUSH1 0x0 DUP2 ISZERO ISZERO SWAP1 POP SWAP2 SWAP1 POP JUMP JUMPDEST PUSH2 0x28B8 DUP2 PUSH2 0x28A3 JUMP JUMPDEST DUP3 MSTORE POP POP JUMP JUMPDEST PUSH1 0x0 PUSH1 0x20 DUP3 ADD SWAP1 POP PUSH2 0x28D3 PUSH1 0x0 DUP4 ADD DUP5 PUSH2 0x28AF JUMP JUMPDEST SWAP3 SWAP2 POP POP JUMP JUMPDEST PUSH1 0x0 PUSH1 0x20 DUP3 DUP5 SUB SLT ISZERO PUSH2 0x28EF JUMPI PUSH2 0x28EE PUSH2 0x27C5 JUMP JUMPDEST JUMPDEST PUSH1 0x0 PUSH2 0x28FD DUP5 DUP3 DUP6 ADD PUSH2 0x2818 JUMP JUMPDEST SWAP2 POP POP SWAP3 SWAP2 POP POP JUMP JUMPDEST PUSH2 0x290F DUP2 PUSH2 0x282D JUMP JUMPDEST DUP3 MSTORE POP POP JUMP JUMPDEST PUSH1 0x0 PUSH1 0x20 DUP3 ADD SWAP1 POP PUSH2 0x292A PUSH1 0x0 DUP4 ADD DUP5 PUSH2 0x2906 JUMP JUMPDEST SWAP3 SWAP2 POP POP JUMP JUMPDEST PUSH1 0x0 DUP1 PUSH1 0x0 PUSH1 0x60 DUP5 DUP7 SUB SLT ISZERO PUSH2 0x2949 JUMPI PUSH2 0x2948 PUSH2 0x27C5 JUMP JUMPDEST JUMPDEST PUSH1 0x0 PUSH2 0x2957 DUP7 DUP3 DUP8 ADD PUSH2 0x2818 JUMP JUMPDEST SWAP4 POP POP PUSH1 0x20 PUSH2 0x2968 DUP7 DUP3 DUP8 ADD PUSH2 0x2818 JUMP JUMPDEST SWAP3 POP POP PUSH1 0x40 PUSH2 0x2979 DUP7 DUP3 DUP8 ADD PUSH2 0x284E JUMP JUMPDEST SWAP2 POP POP SWAP3 POP SWAP3 POP SWAP3 JUMP JUMPDEST PUSH1 0x0 PUSH1 0x20 DUP3 DUP5 SUB SLT ISZERO PUSH2 0x2999 JUMPI PUSH2 0x2998 PUSH2 0x27C5 JUMP JUMPDEST JUMPDEST PUSH1 0x0 PUSH2 0x29A7 DUP5 DUP3 DUP6 ADD PUSH2 0x284E JUMP JUMPDEST SWAP2 POP POP SWAP3 SWAP2 POP POP JUMP JUMPDEST PUSH1 0x0 PUSH1 0xFF DUP3 AND SWAP1 POP SWAP2 SWAP1 POP JUMP JUMPDEST PUSH2 0x29C6 DUP2 PUSH2 0x29B0 JUMP JUMPDEST DUP3 MSTORE POP POP JUMP JUMPDEST PUSH1 0x0 PUSH1 0x20 DUP3 ADD SWAP1 POP PUSH2 0x29E1 PUSH1 0x0 DUP4 ADD DUP5 PUSH2 0x29BD JUMP JUMPDEST SWAP3 SWAP2 POP POP JUMP JUMPDEST PUSH1 0x0 DUP2 SWAP1 POP SWAP2 SWAP1 POP JUMP JUMPDEST PUSH1 0x0 PUSH2 0x2A0C PUSH2 0x2A07 PUSH2 0x2A02 DUP5 PUSH2 0x27CF JUMP JUMPDEST PUSH2 0x29E7 JUMP JUMPDEST PUSH2 0x27CF JUMP JUMPDEST SWAP1 POP SWAP2 SWAP1 POP JUMP JUMPDEST PUSH1 0x0 PUSH2 0x2A1E DUP3 PUSH2 0x29F1 JUMP JUMPDEST SWAP1 POP SWAP2 SWAP1 POP JUMP JUMPDEST PUSH1 0x0 PUSH2 0x2A30 DUP3 PUSH2 0x2A13 JUMP JUMPDEST SWAP1 POP SWAP2 SWAP1 POP JUMP JUMPDEST PUSH2 0x2A40 DUP2 PUSH2 0x2A25 JUMP JUMPDEST DUP3 MSTORE POP POP JUMP JUMPDEST PUSH1 0x0 PUSH1 0x20 DUP3 ADD SWAP1 POP PUSH2 0x2A5B PUSH1 0x0 DUP4 ADD DUP5 PUSH2 0x2A37 JUMP JUMPDEST SWAP3 SWAP2 POP POP JUMP JUMPDEST PUSH1 0x0 DUP1 PUSH1 0x0 PUSH1 0x60 DUP5 DUP7 SUB SLT ISZERO PUSH2 0x2A7A JUMPI PUSH2 0x2A79 PUSH2 0x27C5 JUMP JUMPDEST JUMPDEST PUSH1 0x0 PUSH2 0x2A88 DUP7 DUP3 DUP8 ADD PUSH2 0x2818 JUMP JUMPDEST SWAP4 POP POP PUSH1 0x20 PUSH2 0x2A99 DUP7 DUP3 DUP8 ADD PUSH2 0x284E JUMP JUMPDEST SWAP3 POP POP PUSH1 0x40 PUSH2 0x2AAA DUP7 DUP3 DUP8 ADD PUSH2 0x284E JUMP JUMPDEST SWAP2 POP POP SWAP3 POP SWAP3 POP SWAP3 JUMP JUMPDEST PUSH2 0x2ABD DUP2 PUSH2 0x27EF JUMP JUMPDEST DUP3 MSTORE POP POP JUMP JUMPDEST PUSH1 0x0 PUSH1 0x20 DUP3 ADD SWAP1 POP PUSH2 0x2AD8 PUSH1 0x0 DUP4 ADD DUP5 PUSH2 0x2AB4 JUMP JUMPDEST SWAP3 SWAP2 POP POP JUMP JUMPDEST PUSH2 0x2AE7 DUP2 PUSH2 0x29B0 JUMP JUMPDEST DUP2 EQ PUSH2 0x2AF2 JUMPI PUSH1 0x0 DUP1 REVERT JUMPDEST POP JUMP JUMPDEST PUSH1 0x0 DUP2 CALLDATALOAD SWAP1 POP PUSH2 0x2B04 DUP2 PUSH2 0x2ADE JUMP JUMPDEST SWAP3 SWAP2 POP POP JUMP JUMPDEST PUSH1 0x0 PUSH1 0x20 DUP3 DUP5 SUB SLT ISZERO PUSH2 0x2B20 JUMPI PUSH2 0x2B1F PUSH2 0x27C5 JUMP JUMPDEST JUMPDEST PUSH1 0x0 PUSH2 0x2B2E DUP5 DUP3 DUP6 ADD PUSH2 0x2AF5 JUMP JUMPDEST SWAP2 POP POP SWAP3 SWAP2 POP POP JUMP JUMPDEST PUSH1 0x0 DUP1 PUSH1 0x40 DUP4 DUP6 SUB SLT ISZERO PUSH2 0x2B4E JUMPI PUSH2 0x2B4D PUSH2 0x27C5 JUMP JUMPDEST JUMPDEST PUSH1 0x0 PUSH2 0x2B5C DUP6 DUP3 DUP7 ADD PUSH2 0x2818 JUMP JUMPDEST SWAP3 POP POP PUSH1 0x20 PUSH2 0x2B6D DUP6 DUP3 DUP7 ADD PUSH2 0x2818 JUMP JUMPDEST SWAP2 POP POP SWAP3 POP SWAP3 SWAP1 POP JUMP JUMPDEST PUSH1 0x0 PUSH2 0x100 DUP3 ADD SWAP1 POP PUSH2 0x2B8D PUSH1 0x0 DUP4 ADD DUP12 PUSH2 0x28AF JUMP JUMPDEST PUSH2 0x2B9A PUSH1 0x20 DUP4 ADD DUP11 PUSH2 0x28AF JUMP JUMPDEST PUSH2 0x2BA7 PUSH1 0x40 DUP4 ADD DUP10 PUSH2 0x28AF JUMP JUMPDEST PUSH2 0x2BB4 PUSH1 0x60 DUP4 ADD DUP9 PUSH2 0x28AF JUMP JUMPDEST PUSH2 0x2BC1 PUSH1 0x80 DUP4 ADD DUP8 PUSH2 0x28AF JUMP JUMPDEST PUSH2 0x2BCE PUSH1 0xA0 DUP4 ADD DUP7 PUSH2 0x28AF JUMP JUMPDEST PUSH2 0x2BDB PUSH1 0xC0 DUP4 ADD DUP6 PUSH2 0x28AF JUMP JUMPDEST PUSH2 0x2BE8 PUSH1 0xE0 DUP4 ADD DUP5 PUSH2 0x28AF JUMP JUMPDEST SWAP10 SWAP9 POP POP POP POP POP POP POP POP POP JUMP JUMPDEST PUSH32 0x4E487B7100000000000000000000000000000000000000000000000000000000 PUSH1 0x0 MSTORE PUSH1 0x22 PUSH1 0x4 MSTORE PUSH1 0x24 PUSH1 0x0 REVERT JUMPDEST PUSH1 0x0 PUSH1 0x2 DUP3 DIV SWAP1 POP PUSH1 0x1 DUP3 AND DUP1 PUSH2 0x2C3C JUMPI PUSH1 0x7F DUP3 AND SWAP2 POP JUMPDEST PUSH1 0x20 DUP3 LT DUP2 SUB PUSH2 0x2C4F JUMPI PUSH2 0x2C4E PUSH2 0x2BF5 JUMP JUMPDEST JUMPDEST POP SWAP2 SWAP1 POP JUMP JUMPDEST PUSH32 0x426C61636B6C69737420416464726573732046756E6374696F6E616C69747920 PUSH1 0x0 DUP3 ADD MSTORE PUSH32 0x6973206E6F7420656E61626C656420696E207468697320736D61727420636F6E PUSH1 0x20 DUP3 ADD MSTORE PUSH32 0x7472616374210000000000000000000000000000000000000000000000000000 PUSH1 0x40 DUP3 ADD MSTORE POP JUMP JUMPDEST PUSH1 0x0 PUSH2 0x2CD7 PUSH1 0x46 DUP4 PUSH2 0x2714 JUMP JUMPDEST SWAP2 POP PUSH2 0x2CE2 DUP3 PUSH2 0x2C55 JUMP JUMPDEST PUSH1 0x60 DUP3 ADD SWAP1 POP SWAP2 SWAP1 POP JUMP JUMPDEST PUSH1 0x0 PUSH1 0x20 DUP3 ADD SWAP1 POP DUP2 DUP2 SUB PUSH1 0x0 DUP4 ADD MSTORE PUSH2 0x2D06 DUP2 PUSH2 0x2CCA JUMP JUMPDEST SWAP1 POP SWAP2 SWAP1 POP JUMP JUMPDEST PUSH32 0x557365722041646472657373206973206E6F7420626C61636B6C697374656400 PUSH1 0x0 DUP3 ADD MSTORE POP JUMP JUMPDEST PUSH1 0x0 PUSH2 0x2D43 PUSH1 0x1F DUP4 PUSH2 0x2714 JUMP JUMPDEST SWAP2 POP PUSH2 0x2D4E DUP3 PUSH2 0x2D0D JUMP JUMPDEST PUSH1 0x20 DUP3 ADD SWAP1 POP SWAP2 SWAP1 POP JUMP JUMPDEST PUSH1 0x0 PUSH1 0x20 DUP3 ADD SWAP1 POP DUP2 DUP2 SUB PUSH1 0x0 DUP4 ADD MSTORE PUSH2 0x2D72 DUP2 PUSH2 0x2D36 JUMP JUMPDEST SWAP1 POP SWAP2 SWAP1 POP JUMP JUMPDEST PUSH32 0x55736572204164647265737320697320616C726561647920626C61636B6C6973 PUSH1 0x0 DUP3 ADD MSTORE PUSH32 0x7465640000000000000000000000000000000000000000000000000000000000 PUSH1 0x20 DUP3 ADD MSTORE POP JUMP JUMPDEST PUSH1 0x0 PUSH2 0x2DD5 PUSH1 0x23 DUP4 PUSH2 0x2714 JUMP JUMPDEST SWAP2 POP PUSH2 0x2DE0 DUP3 PUSH2 0x2D79 JUMP JUMPDEST PUSH1 0x40 DUP3 ADD SWAP1 POP SWAP2 SWAP1 POP JUMP JUMPDEST PUSH1 0x0 PUSH1 0x20 DUP3 ADD SWAP1 POP DUP2 DUP2 SUB PUSH1 0x0 DUP4 ADD MSTORE PUSH2 0x2E04 DUP2 PUSH2 0x2DC8 JUMP JUMPDEST SWAP1 POP SWAP2 SWAP1 POP JUMP JUMPDEST PUSH32 0x54786E205461782046756E6374696F6E616C697479206973206E6F7420656E61 PUSH1 0x0 DUP3 ADD MSTORE PUSH32 0x626C656420696E207468697320736D61727420636F6E74726163742100000000 PUSH1 0x20 DUP3 ADD MSTORE POP JUMP JUMPDEST PUSH1 0x0 PUSH2 0x2E67 PUSH1 0x3C DUP4 PUSH2 0x2714 JUMP JUMPDEST SWAP2 POP PUSH2 0x2E72 DUP3 PUSH2 0x2E0B JUMP JUMPDEST PUSH1 0x40 DUP3 ADD SWAP1 POP SWAP2 SWAP1 POP JUMP JUMPDEST PUSH1 0x0 PUSH1 0x20 DUP3 ADD SWAP1 POP DUP2 DUP2 SUB PUSH1 0x0 DUP4 ADD MSTORE PUSH2 0x2E96 DUP2 PUSH2 0x2E5A JUMP JUMPDEST SWAP1 POP SWAP2 SWAP1 POP JUMP JUMPDEST PUSH32 0x54786E207461782077616C6C65742063616E277420626520656D707479000000 PUSH1 0x0 DUP3 ADD MSTORE POP JUMP JUMPDEST PUSH1 0x0 PUSH2 0x2ED3 PUSH1 0x1D DUP4 PUSH2 0x2714 JUMP JUMPDEST SWAP2 POP PUSH2 0x2EDE DUP3 PUSH2 0x2E9D JUMP JUMPDEST PUSH1 0x20 DUP3 ADD SWAP1 POP SWAP2 SWAP1 POP JUMP JUMPDEST PUSH1 0x0 PUSH1 0x20 DUP3 ADD SWAP1 POP DUP2 DUP2 SUB PUSH1 0x0 DUP4 ADD MSTORE PUSH2 0x2F02 DUP2 PUSH2 0x2EC6 JUMP JUMPDEST SWAP1 POP SWAP2 SWAP1 POP JUMP JUMPDEST PUSH32 0x4D696E74696E672046756E6374696F6E616C697479206973206E6F7420656E61 PUSH1 0x0 DUP3 ADD MSTORE PUSH32 0x626C656420696E207468697320736D61727420636F6E74726163742100000000 PUSH1 0x20 DUP3 ADD MSTORE POP JUMP JUMPDEST PUSH1 0x0 PUSH2 0x2F65 PUSH1 0x3C DUP4 PUSH2 0x2714 JUMP JUMPDEST SWAP2 POP PUSH2 0x2F70 DUP3 PUSH2 0x2F09 JUMP JUMPDEST PUSH1 0x40 DUP3 ADD SWAP1 POP SWAP2 SWAP1 POP JUMP JUMPDEST PUSH1 0x0 PUSH1 0x20 DUP3 ADD SWAP1 POP DUP2 DUP2 SUB PUSH1 0x0 DUP4 ADD MSTORE PUSH2 0x2F94 DUP2 PUSH2 0x2F58 JUMP JUMPDEST SWAP1 POP SWAP2 SWAP1 POP JUMP JUMPDEST PUSH32 0x4D696E74206D6F7265207468616E205A65726F00000000000000000000000000 PUSH1 0x0 DUP3 ADD MSTORE POP JUMP JUMPDEST PUSH1 0x0 PUSH2 0x2FD1 PUSH1 0x13 DUP4 PUSH2 0x2714 JUMP JUMPDEST SWAP2 POP PUSH2 0x2FDC DUP3 PUSH2 0x2F9B JUMP JUMPDEST PUSH1 0x20 DUP3 ADD SWAP1 POP SWAP2 SWAP1 POP JUMP JUMPDEST PUSH1 0x0 PUSH1 0x20 DUP3 ADD SWAP1 POP DUP2 DUP2 SUB PUSH1 0x0 DUP4 ADD MSTORE PUSH2 0x3000 DUP2 PUSH2 0x2FC4 JUMP JUMPDEST SWAP1 POP SWAP2 SWAP1 POP JUMP JUMPDEST PUSH32 0x50617573652F556E70617573652046756E6374696F6E616C697479206973206E PUSH1 0x0 DUP3 ADD MSTORE PUSH32 0x6F7420656E61626C656420696E207468697320736D61727420636F6E74726163 PUSH1 0x20 DUP3 ADD MSTORE PUSH32 0x7421000000000000000000000000000000000000000000000000000000000000 PUSH1 0x40 DUP3 ADD MSTORE POP JUMP JUMPDEST PUSH1 0x0 PUSH2 0x3089 PUSH1 0x42 DUP4 PUSH2 0x2714 JUMP JUMPDEST SWAP2 POP PUSH2 0x3094 DUP3 PUSH2 0x3007 JUMP JUMPDEST PUSH1 0x60 DUP3 ADD SWAP1 POP SWAP2 SWAP1 POP JUMP JUMPDEST PUSH1 0x0 PUSH1 0x20 DUP3 ADD SWAP1 POP DUP2 DUP2 SUB PUSH1 0x0 DUP4 ADD MSTORE PUSH2 0x30B8 DUP2 PUSH2 0x307C JUMP JUMPDEST SWAP1 POP SWAP2 SWAP1 POP JUMP JUMPDEST PUSH32 0x436F6E747261637420697320616C7265616479207061757365642E0000000000 PUSH1 0x0 DUP3 ADD MSTORE POP JUMP JUMPDEST PUSH1 0x0 PUSH2 0x30F5 PUSH1 0x1B DUP4 PUSH2 0x2714 JUMP JUMPDEST SWAP2 POP PUSH2 0x3100 DUP3 PUSH2 0x30BF JUMP JUMPDEST PUSH1 0x20 DUP3 ADD SWAP1 POP SWAP2 SWAP1 POP JUMP JUMPDEST PUSH1 0x0 PUSH1 0x20 DUP3 ADD SWAP1 POP DUP2 DUP2 SUB PUSH1 0x0 DUP4 ADD MSTORE PUSH2 0x3124 DUP2 PUSH2 0x30E8 JUMP JUMPDEST SWAP1 POP SWAP2 SWAP1 POP JUMP JUMPDEST PUSH32 0x436F6E7472616374206973206E6F74207061757365642E000000000000000000 PUSH1 0x0 DUP3 ADD MSTORE POP JUMP JUMPDEST PUSH1 0x0 PUSH2 0x3161 PUSH1 0x17 DUP4 PUSH2 0x2714 JUMP JUMPDEST SWAP2 POP PUSH2 0x316C DUP3 PUSH2 0x312B JUMP JUMPDEST PUSH1 0x20 DUP3 ADD SWAP1 POP SWAP2 SWAP1 POP JUMP JUMPDEST PUSH1 0x0 PUSH1 0x20 DUP3 ADD SWAP1 POP DUP2 DUP2 SUB PUSH1 0x0 DUP4 ADD MSTORE PUSH2 0x3190 DUP2 PUSH2 0x3154 JUMP JUMPDEST SWAP1 POP SWAP2 SWAP1 POP JUMP JUMPDEST PUSH32 0x436F6E747261637420646F6573206E6F74206861766520656E6F75676820746F PUSH1 0x0 DUP3 ADD MSTORE PUSH32 0x6B656E7300000000000000000000000000000000000000000000000000000000 PUSH1 0x20 DUP3 ADD MSTORE POP JUMP JUMPDEST PUSH1 0x0 PUSH2 0x31F3 PUSH1 0x24 DUP4 PUSH2 0x2714 JUMP JUMPDEST SWAP2 POP PUSH2 0x31FE DUP3 PUSH2 0x3197 JUMP JUMPDEST PUSH1 0x40 DUP3 ADD SWAP1 POP SWAP2 SWAP1 POP JUMP JUMPDEST PUSH1 0x0 PUSH1 0x20 DUP3 ADD SWAP1 POP DUP2 DUP2 SUB PUSH1 0x0 DUP4 ADD MSTORE PUSH2 0x3222 DUP2 PUSH2 0x31E6 JUMP JUMPDEST SWAP1 POP SWAP2 SWAP1 POP JUMP JUMPDEST PUSH32 0x5573657220697320626C61636B6C697374656400000000000000000000000000 PUSH1 0x0 DUP3 ADD MSTORE POP JUMP JUMPDEST PUSH1 0x0 PUSH2 0x325F PUSH1 0x13 DUP4 PUSH2 0x2714 JUMP JUMPDEST SWAP2 POP PUSH2 0x326A DUP3 PUSH2 0x3229 JUMP JUMPDEST PUSH1 0x20 DUP3 ADD SWAP1 POP SWAP2 SWAP1 POP JUMP JUMPDEST PUSH1 0x0 PUSH1 0x20 DUP3 ADD SWAP1 POP DUP2 DUP2 SUB PUSH1 0x0 DUP4 ADD MSTORE PUSH2 0x328E DUP2 PUSH2 0x3252 JUMP JUMPDEST SWAP1 POP SWAP2 SWAP1 POP JUMP JUMPDEST PUSH32 0x5472616E7366657220616D6F756E7420697320677261746572207468616E207A PUSH1 0x0 DUP3 ADD MSTORE PUSH32 0x65726F0000000000000000000000000000000000000000000000000000000000 PUSH1 0x20 DUP3 ADD MSTORE POP JUMP JUMPDEST PUSH1 0x0 PUSH2 0x32F1 PUSH1 0x23 DUP4 PUSH2 0x2714 JUMP JUMPDEST SWAP2 POP PUSH2 0x32FC DUP3 PUSH2 0x3295 JUMP JUMPDEST PUSH1 0x40 DUP3 ADD SWAP1 POP SWAP2 SWAP1 POP JUMP JUMPDEST PUSH1 0x0 PUSH1 0x20 DUP3 ADD SWAP1 POP DUP2 DUP2 SUB PUSH1 0x0 DUP4 ADD MSTORE PUSH2 0x3320 DUP2 PUSH2 0x32E4 JUMP JUMPDEST SWAP1 POP SWAP2 SWAP1 POP JUMP JUMPDEST PUSH32 0x4E487B7100000000000000000000000000000000000000000000000000000000 PUSH1 0x0 MSTORE PUSH1 0x12 PUSH1 0x4 MSTORE PUSH1 0x24 PUSH1 0x0 REVERT JUMPDEST PUSH32 0x4E487B7100000000000000000000000000000000000000000000000000000000 PUSH1 0x0 MSTORE PUSH1 0x11 PUSH1 0x4 MSTORE PUSH1 0x24 PUSH1 0x0 REVERT JUMPDEST PUSH1 0x0 PUSH2 0x3390 DUP3 PUSH2 0x282D JUMP JUMPDEST SWAP2 POP PUSH2 0x339B DUP4 PUSH2 0x282D JUMP JUMPDEST SWAP3 POP DUP3 PUSH2 0x33AB JUMPI PUSH2 0x33AA PUSH2 0x3327 JUMP JUMPDEST JUMPDEST DUP3 DUP3 DIV SWAP1 POP SWAP3 SWAP2 POP POP JUMP JUMPDEST PUSH1 0x0 PUSH2 0x33C1 DUP3 PUSH2 0x282D JUMP JUMPDEST SWAP2 POP PUSH2 0x33CC DUP4 PUSH2 0x282D JUMP JUMPDEST SWAP3 POP DUP3 DUP3 MUL PUSH2 0x33DA DUP2 PUSH2 0x282D JUMP JUMPDEST SWAP2 POP DUP3 DUP3 DIV DUP5 EQ DUP4 ISZERO OR PUSH2 0x33F1 JUMPI PUSH2 0x33F0 PUSH2 0x3356 JUMP JUMPDEST JUMPDEST POP SWAP3 SWAP2 POP POP JUMP JUMPDEST PUSH1 0x0 PUSH2 0x3403 DUP3 PUSH2 0x282D JUMP JUMPDEST SWAP2 POP PUSH2 0x340E DUP4 PUSH2 0x282D JUMP JUMPDEST SWAP3 POP DUP3 DUP3 SUB SWAP1 POP DUP2 DUP2 GT ISZERO PUSH2 0x3426 JUMPI PUSH2 0x3425 PUSH2 0x3356 JUMP JUMPDEST JUMPDEST SWAP3 SWAP2 POP POP JUMP JUMPDEST PUSH32 0x4275726E20616D6F756E74206578636565647320616C6C6F77616E6365000000 PUSH1 0x0 DUP3 ADD MSTORE POP JUMP JUMPDEST PUSH1 0x0 PUSH2 0x3462 PUSH1 0x1D DUP4 PUSH2 0x2714 JUMP JUMPDEST SWAP2 POP PUSH2 0x346D DUP3 PUSH2 0x342C JUMP JUMPDEST PUSH1 0x20 DUP3 ADD SWAP1 POP SWAP2 SWAP1 POP JUMP JUMPDEST PUSH1 0x0 PUSH1 0x20 DUP3 ADD SWAP1 POP DUP2 DUP2 SUB PUSH1 0x0 DUP4 ADD MSTORE PUSH2 0x3491 DUP2 PUSH2 0x3455 JUMP JUMPDEST SWAP1 POP SWAP2 SWAP1 POP JUMP JUMPDEST PUSH32 0x5374616B696E67207265776172642046756E6374696F6E616C69747920697320 PUSH1 0x0 DUP3 ADD MSTORE PUSH32 0x6E6F7420656E61626C656420696E207468697320736D61727420636F6E747261 PUSH1 0x20 DUP3 ADD MSTORE PUSH32 0x6374210000000000000000000000000000000000000000000000000000000000 PUSH1 0x40 DUP3 ADD MSTORE POP JUMP JUMPDEST PUSH1 0x0 PUSH2 0x351A PUSH1 0x43 DUP4 PUSH2 0x2714 JUMP JUMPDEST SWAP2 POP PUSH2 0x3525 DUP3 PUSH2 0x3498 JUMP JUMPDEST PUSH1 0x60 DUP3 ADD SWAP1 POP SWAP2 SWAP1 POP JUMP JUMPDEST PUSH1 0x0 PUSH1 0x20 DUP3 ADD SWAP1 POP DUP2 DUP2 SUB PUSH1 0x0 DUP4 ADD MSTORE PUSH2 0x3549 DUP2 PUSH2 0x350D JUMP JUMPDEST SWAP1 POP SWAP2 SWAP1 POP JUMP JUMPDEST PUSH32 0x5573657220697320626C61636B6C697374656421000000000000000000000000 PUSH1 0x0 DUP3 ADD MSTORE POP JUMP JUMPDEST PUSH1 0x0 PUSH2 0x3586 PUSH1 0x14 DUP4 PUSH2 0x2714 JUMP JUMPDEST SWAP2 POP PUSH2 0x3591 DUP3 PUSH2 0x3550 JUMP JUMPDEST PUSH1 0x20 DUP3 ADD SWAP1 POP SWAP2 SWAP1 POP JUMP JUMPDEST PUSH1 0x0 PUSH1 0x20 DUP3 ADD SWAP1 POP DUP2 DUP2 SUB PUSH1 0x0 DUP4 ADD MSTORE PUSH2 0x35B5 DUP2 PUSH2 0x3579 JUMP JUMPDEST SWAP1 POP SWAP2 SWAP1 POP JUMP JUMPDEST PUSH32 0x5573657220646F65736E2774206861766520656E6F756768207374616B656420 PUSH1 0x0 DUP3 ADD MSTORE PUSH32 0x746F6B656E210000000000000000000000000000000000000000000000000000 PUSH1 0x20 DUP3 ADD MSTORE POP JUMP JUMPDEST PUSH1 0x0 PUSH2 0x3618 PUSH1 0x26 DUP4 PUSH2 0x2714 JUMP JUMPDEST SWAP2 POP PUSH2 0x3623 DUP3 PUSH2 0x35BC JUMP JUMPDEST PUSH1 0x40 DUP3 ADD SWAP1 POP SWAP2 SWAP1 POP JUMP JUMPDEST PUSH1 0x0 PUSH1 0x20 DUP3 ADD SWAP1 POP DUP2 DUP2 SUB PUSH1 0x0 DUP4 ADD MSTORE PUSH2 0x3647 DUP2 PUSH2 0x360B JUMP JUMPDEST SWAP1 POP SWAP2 SWAP1 POP JUMP JUMPDEST PUSH32 0x52617465206D75737420626520677261746572207468616E2030000000000000 PUSH1 0x0 DUP3 ADD MSTORE POP JUMP JUMPDEST PUSH1 0x0 PUSH2 0x3684 PUSH1 0x1A DUP4 PUSH2 0x2714 JUMP JUMPDEST SWAP2 POP PUSH2 0x368F DUP3 PUSH2 0x364E JUMP JUMPDEST PUSH1 0x20 DUP3 ADD SWAP1 POP SWAP2 SWAP1 POP JUMP JUMPDEST PUSH1 0x0 PUSH1 0x20 DUP3 ADD SWAP1 POP DUP2 DUP2 SUB PUSH1 0x0 DUP4 ADD MSTORE PUSH2 0x36B3 DUP2 PUSH2 0x3677 JUMP JUMPDEST SWAP1 POP SWAP2 SWAP1 POP JUMP JUMPDEST PUSH32 0x496E73756666696369656E7420746F6B656E2062616C616E636520746F207374 PUSH1 0x0 DUP3 ADD MSTORE PUSH32 0x616B650000000000000000000000000000000000000000000000000000000000 PUSH1 0x20 DUP3 ADD MSTORE POP JUMP JUMPDEST PUSH1 0x0 PUSH2 0x3716 PUSH1 0x23 DUP4 PUSH2 0x2714 JUMP JUMPDEST SWAP2 POP PUSH2 0x3721 DUP3 PUSH2 0x36BA JUMP JUMPDEST PUSH1 0x40 DUP3 ADD SWAP1 POP SWAP2 SWAP1 POP JUMP JUMPDEST PUSH1 0x0 PUSH1 0x20 DUP3 ADD SWAP1 POP DUP2 DUP2 SUB PUSH1 0x0 DUP4 ADD MSTORE PUSH2 0x3745 DUP2 PUSH2 0x3709 JUMP JUMPDEST SWAP1 POP SWAP2 SWAP1 POP JUMP JUMPDEST PUSH1 0x0 PUSH2 0x3757 DUP3 PUSH2 0x282D JUMP JUMPDEST SWAP2 POP PUSH2 0x3762 DUP4 PUSH2 0x282D JUMP JUMPDEST SWAP3 POP DUP3 DUP3 ADD SWAP1 POP DUP1 DUP3 GT ISZERO PUSH2 0x377A JUMPI PUSH2 0x3779 PUSH2 0x3356 JUMP JUMPDEST JUMPDEST SWAP3 SWAP2 POP POP JUMP JUMPDEST PUSH32 0x4275726E696E672046756E6374696F6E616C697479206973206E6F7420656E61 PUSH1 0x0 DUP3 ADD MSTORE PUSH32 0x626C656420696E207468697320736D61727420636F6E74726163742100000000 PUSH1 0x20 DUP3 ADD MSTORE POP JUMP JUMPDEST PUSH1 0x0 PUSH2 0x37DC PUSH1 0x3C DUP4 PUSH2 0x2714 JUMP JUMPDEST SWAP2 POP PUSH2 0x37E7 DUP3 PUSH2 0x3780 JUMP JUMPDEST PUSH1 0x40 DUP3 ADD SWAP1 POP SWAP2 SWAP1 POP JUMP JUMPDEST PUSH1 0x0 PUSH1 0x20 DUP3 ADD SWAP1 POP DUP2 DUP2 SUB PUSH1 0x0 DUP4 ADD MSTORE PUSH2 0x380B DUP2 PUSH2 0x37CF JUMP JUMPDEST SWAP1 POP SWAP2 SWAP1 POP JUMP JUMPDEST PUSH32 0x4275726E206D6F7265207468616E205A65726F00000000000000000000000000 PUSH1 0x0 DUP3 ADD MSTORE POP JUMP JUMPDEST PUSH1 0x0 PUSH2 0x3848 PUSH1 0x13 DUP4 PUSH2 0x2714 JUMP JUMPDEST SWAP2 POP PUSH2 0x3853 DUP3 PUSH2 0x3812 JUMP JUMPDEST PUSH1 0x20 DUP3 ADD SWAP1 POP SWAP2 SWAP1 POP JUMP JUMPDEST PUSH1 0x0 PUSH1 0x20 DUP3 ADD SWAP1 POP DUP2 DUP2 SUB PUSH1 0x0 DUP4 ADD MSTORE PUSH2 0x3877 DUP2 PUSH2 0x383B JUMP JUMPDEST SWAP1 POP SWAP2 SWAP1 POP JUMP JUMPDEST PUSH32 0x5573657220646F65736E2774206861766520616E79207374616B656420746F6B PUSH1 0x0 DUP3 ADD MSTORE PUSH32 0x656E210000000000000000000000000000000000000000000000000000000000 PUSH1 0x20 DUP3 ADD MSTORE POP JUMP JUMPDEST PUSH1 0x0 PUSH2 0x38DA PUSH1 0x23 DUP4 PUSH2 0x2714 JUMP JUMPDEST SWAP2 POP PUSH2 0x38E5 DUP3 PUSH2 0x387E JUMP JUMPDEST PUSH1 0x40 DUP3 ADD SWAP1 POP SWAP2 SWAP1 POP JUMP JUMPDEST PUSH1 0x0 PUSH1 0x20 DUP3 ADD SWAP1 POP DUP2 DUP2 SUB PUSH1 0x0 DUP4 ADD MSTORE PUSH2 0x3909 DUP2 PUSH2 0x38CD JUMP JUMPDEST SWAP1 POP SWAP2 SWAP1 POP JUMP JUMPDEST PUSH32 0x4368616E6765204F776E65722046756E6374696F6E616C697479206973206E6F PUSH1 0x0 DUP3 ADD MSTORE PUSH32 0x7420656E61626C656420696E207468697320736D61727420636F6E7472616374 PUSH1 0x20 DUP3 ADD MSTORE PUSH32 0x2100000000000000000000000000000000000000000000000000000000000000 PUSH1 0x40 DUP3 ADD MSTORE POP JUMP JUMPDEST PUSH1 0x0 PUSH2 0x3992 PUSH1 0x41 DUP4 PUSH2 0x2714 JUMP JUMPDEST SWAP2 POP PUSH2 0x399D DUP3 PUSH2 0x3910 JUMP JUMPDEST PUSH1 0x60 DUP3 ADD SWAP1 POP SWAP2 SWAP1 POP JUMP JUMPDEST PUSH1 0x0 PUSH1 0x20 DUP3 ADD SWAP1 POP DUP2 DUP2 SUB PUSH1 0x0 DUP4 ADD MSTORE PUSH2 0x39C1 DUP2 PUSH2 0x3985 JUMP JUMPDEST SWAP1 POP SWAP2 SWAP1 POP JUMP JUMPDEST PUSH32 0x4275796261636B20546F6B656E2046756E6374696F6E616C697479206973206E PUSH1 0x0 DUP3 ADD MSTORE PUSH32 0x6F7420656E61626C656420696E207468697320736D61727420636F6E74726163 PUSH1 0x20 DUP3 ADD MSTORE PUSH32 0x7421000000000000000000000000000000000000000000000000000000000000 PUSH1 0x40 DUP3 ADD MSTORE POP JUMP JUMPDEST PUSH1 0x0 PUSH2 0x3A4A PUSH1 0x42 DUP4 PUSH2 0x2714 JUMP JUMPDEST SWAP2 POP PUSH2 0x3A55 DUP3 PUSH2 0x39C8 JUMP JUMPDEST PUSH1 0x60 DUP3 ADD SWAP1 POP SWAP2 SWAP1 POP JUMP JUMPDEST PUSH1 0x0 PUSH1 0x20 DUP3 ADD SWAP1 POP DUP2 DUP2 SUB PUSH1 0x0 DUP4 ADD MSTORE PUSH2 0x3A79 DUP2 PUSH2 0x3A3D JUMP JUMPDEST SWAP1 POP SWAP2 SWAP1 POP JUMP JUMPDEST PUSH32 0x4E487B7100000000000000000000000000000000000000000000000000000000 PUSH1 0x0 MSTORE PUSH1 0x41 PUSH1 0x4 MSTORE PUSH1 0x24 PUSH1 0x0 REVERT JUMPDEST PUSH32 0x4E487B7100000000000000000000000000000000000000000000000000000000 PUSH1 0x0 MSTORE PUSH1 0x32 PUSH1 0x4 MSTORE PUSH1 0x24 PUSH1 0x0 REVERT JUMPDEST PUSH1 0x0 DUP2 MLOAD SWAP1 POP SWAP2 SWAP1 POP JUMP JUMPDEST PUSH1 0x0 DUP3 DUP3 MSTORE PUSH1 0x20 DUP3 ADD SWAP1 POP SWAP3 SWAP2 POP POP JUMP JUMPDEST PUSH1 0x0 DUP2 SWAP1 POP PUSH1 0x20 DUP3 ADD SWAP1 POP SWAP2 SWAP1 POP JUMP JUMPDEST PUSH2 0x3B13 DUP2 PUSH2 0x27EF JUMP JUMPDEST DUP3 MSTORE POP POP JUMP JUMPDEST PUSH1 0x0 PUSH2 0x3B25 DUP4 DUP4 PUSH2 0x3B0A JUMP JUMPDEST PUSH1 0x20 DUP4 ADD SWAP1 POP SWAP3 SWAP2 POP POP JUMP JUMPDEST PUSH1 0x0 PUSH1 0x20 DUP3 ADD SWAP1 POP SWAP2 SWAP1 POP JUMP JUMPDEST PUSH1 0x0 PUSH2 0x3B49 DUP3 PUSH2 0x3ADE JUMP JUMPDEST PUSH2 0x3B53 DUP2 DUP6 PUSH2 0x3AE9 JUMP JUMPDEST SWAP4 POP PUSH2 0x3B5E DUP4 PUSH2 0x3AFA JUMP JUMPDEST DUP1 PUSH1 0x0 JUMPDEST DUP4 DUP2 LT ISZERO PUSH2 0x3B8F JUMPI DUP2 MLOAD PUSH2 0x3B76 DUP9 DUP3 PUSH2 0x3B19 JUMP JUMPDEST SWAP8 POP PUSH2 0x3B81 DUP4 PUSH2 0x3B31 JUMP JUMPDEST SWAP3 POP POP PUSH1 0x1 DUP2 ADD SWAP1 POP PUSH2 0x3B62 JUMP JUMPDEST POP DUP6 SWAP4 POP POP POP POP SWAP3 SWAP2 POP POP JUMP JUMPDEST PUSH1 0x0 PUSH1 0x80 DUP3 ADD SWAP1 POP PUSH2 0x3BB1 PUSH1 0x0 DUP4 ADD DUP8 PUSH2 0x2906 JUMP JUMPDEST DUP2 DUP2 SUB PUSH1 0x20 DUP4 ADD MSTORE PUSH2 0x3BC3 DUP2 DUP7 PUSH2 0x3B3E JUMP JUMPDEST SWAP1 POP PUSH2 0x3BD2 PUSH1 0x40 DUP4 ADD DUP6 PUSH2 0x2AB4 JUMP JUMPDEST PUSH2 0x3BDF PUSH1 0x60 DUP4 ADD DUP5 PUSH2 0x2906 JUMP JUMPDEST SWAP6 SWAP5 POP POP POP POP POP JUMP JUMPDEST PUSH1 0x0 DUP1 REVERT JUMPDEST PUSH2 0x3BF6 DUP3 PUSH2 0x274F JUMP JUMPDEST DUP2 ADD DUP2 DUP2 LT PUSH8 0xFFFFFFFFFFFFFFFF DUP3 GT OR ISZERO PUSH2 0x3C15 JUMPI PUSH2 0x3C14 PUSH2 0x3A80 JUMP JUMPDEST JUMPDEST DUP1 PUSH1 0x40 MSTORE POP POP POP JUMP JUMPDEST PUSH1 0x0 PUSH2 0x3C28 PUSH2 0x27BB JUMP JUMPDEST SWAP1 POP PUSH2 0x3C34 DUP3 DUP3 PUSH2 0x3BED JUMP JUMPDEST SWAP2 SWAP1 POP JUMP JUMPDEST PUSH1 0x0 PUSH8 0xFFFFFFFFFFFFFFFF DUP3 GT ISZERO PUSH2 0x3C54 JUMPI PUSH2 0x3C53 PUSH2 0x3A80 JUMP JUMPDEST JUMPDEST PUSH1 0x20 DUP3 MUL SWAP1 POP PUSH1 0x20 DUP2 ADD SWAP1 POP SWAP2 SWAP1 POP JUMP JUMPDEST PUSH1 0x0 DUP1 REVERT JUMPDEST PUSH1 0x0 DUP2 MLOAD SWAP1 POP PUSH2 0x3C79 DUP2 PUSH2 0x2837 JUMP JUMPDEST SWAP3 SWAP2 POP POP JUMP JUMPDEST PUSH1 0x0 PUSH2 0x3C92 PUSH2 0x3C8D DUP5 PUSH2 0x3C39 JUMP JUMPDEST PUSH2 0x3C1E JUMP JUMPDEST SWAP1 POP DUP1 DUP4 DUP3 MSTORE PUSH1 0x20 DUP3 ADD SWAP1 POP PUSH1 0x20 DUP5 MUL DUP4 ADD DUP6 DUP2 GT ISZERO PUSH2 0x3CB5 JUMPI PUSH2 0x3CB4 PUSH2 0x3C65 JUMP JUMPDEST JUMPDEST DUP4 JUMPDEST DUP2 DUP2 LT ISZERO PUSH2 0x3CDE JUMPI DUP1 PUSH2 0x3CCA DUP9 DUP3 PUSH2 0x3C6A JUMP JUMPDEST DUP5 MSTORE PUSH1 0x20 DUP5 ADD SWAP4 POP POP PUSH1 0x20 DUP2 ADD SWAP1 POP PUSH2 0x3CB7 JUMP JUMPDEST POP POP POP SWAP4 SWAP3 POP POP POP JUMP JUMPDEST PUSH1 0x0 DUP3 PUSH1 0x1F DUP4 ADD SLT PUSH2 0x3CFD JUMPI PUSH2 0x3CFC PUSH2 0x3BE8 JUMP JUMPDEST JUMPDEST DUP2 MLOAD PUSH2 0x3D0D DUP5 DUP3 PUSH1 0x20 DUP7 ADD PUSH2 0x3C7F JUMP JUMPDEST SWAP2 POP POP SWAP3 SWAP2 POP POP JUMP JUMPDEST PUSH1 0x0 PUSH1 0x20 DUP3 DUP5 SUB SLT ISZERO PUSH2 0x3D2C JUMPI PUSH2 0x3D2B PUSH2 0x27C5 JUMP JUMPDEST JUMPDEST PUSH1 0x0 DUP3 ADD MLOAD PUSH8 0xFFFFFFFFFFFFFFFF DUP2 GT ISZERO PUSH2 0x3D4A JUMPI PUSH2 0x3D49 PUSH2 0x27CA JUMP JUMPDEST JUMPDEST PUSH2 0x3D56 DUP5 DUP3 DUP6 ADD PUSH2 0x3CE8 JUMP JUMPDEST SWAP2 POP POP SWAP3 SWAP2 POP POP JUMP JUMPDEST PUSH1 0x0 PUSH1 0x60 DUP3 ADD SWAP1 POP PUSH2 0x3D74 PUSH1 0x0 DUP4 ADD DUP7 PUSH2 0x2AB4 JUMP JUMPDEST PUSH2 0x3D81 PUSH1 0x20 DUP4 ADD DUP6 PUSH2 0x2906 JUMP JUMPDEST PUSH2 0x3D8E PUSH1 0x40 DUP4 ADD DUP5 PUSH2 0x2906 JUMP JUMPDEST SWAP5 SWAP4 POP POP POP POP JUMP JUMPDEST PUSH1 0x0 DUP2 PUSH1 0x1 SHR SWAP1 POP SWAP2 SWAP1 POP JUMP JUMPDEST PUSH1 0x0 DUP1 DUP3 SWAP2 POP DUP4 SWAP1 POP JUMPDEST PUSH1 0x1 DUP6 GT ISZERO PUSH2 0x3DED JUMPI DUP1 DUP7 DIV DUP2 GT ISZERO PUSH2 0x3DC9 JUMPI PUSH2 0x3DC8 PUSH2 0x3356 JUMP JUMPDEST JUMPDEST PUSH1 0x1 DUP6 AND ISZERO PUSH2 0x3DD8 JUMPI DUP1 DUP3 MUL SWAP2 POP JUMPDEST DUP1 DUP2 MUL SWAP1 POP PUSH2 0x3DE6 DUP6 PUSH2 0x3D96 JUMP JUMPDEST SWAP5 POP PUSH2 0x3DAD JUMP JUMPDEST SWAP5 POP SWAP5 SWAP3 POP POP POP JUMP JUMPDEST PUSH1 0x0 DUP3 PUSH2 0x3E06 JUMPI PUSH1 0x1 SWAP1 POP PUSH2 0x3EC2 JUMP JUMPDEST DUP2 PUSH2 0x3E14 JUMPI PUSH1 0x0 SWAP1 POP PUSH2 0x3EC2 JUMP JUMPDEST DUP2 PUSH1 0x1 DUP2 EQ PUSH2 0x3E2A JUMPI PUSH1 0x2 DUP2 EQ PUSH2 0x3E34 JUMPI PUSH2 0x3E63 JUMP JUMPDEST PUSH1 0x1 SWAP2 POP POP PUSH2 0x3EC2 JUMP JUMPDEST PUSH1 0xFF DUP5 GT ISZERO PUSH2 0x3E46 JUMPI PUSH2 0x3E45 PUSH2 0x3356 JUMP JUMPDEST JUMPDEST DUP4 PUSH1 0x2 EXP SWAP2 POP DUP5 DUP3 GT ISZERO PUSH2 0x3E5D JUMPI PUSH2 0x3E5C PUSH2 0x3356 JUMP JUMPDEST JUMPDEST POP PUSH2 0x3EC2 JUMP JUMPDEST POP PUSH1 0x20 DUP4 LT PUSH2 0x133 DUP4 LT AND PUSH1 0x4E DUP5 LT PUSH1 0xB DUP5 LT AND OR ISZERO PUSH2 0x3E98 JUMPI DUP3 DUP3 EXP SWAP1 POP DUP4 DUP2 GT ISZERO PUSH2 0x3E93 JUMPI PUSH2 0x3E92 PUSH2 0x3356 JUMP JUMPDEST JUMPDEST PUSH2 0x3EC2 JUMP JUMPDEST PUSH2 0x3EA5 DUP5 DUP5 DUP5 PUSH1 0x1 PUSH2 0x3DA3 JUMP JUMPDEST SWAP3 POP SWAP1 POP DUP2 DUP5 DIV DUP2 GT ISZERO PUSH2 0x3EBC JUMPI PUSH2 0x3EBB PUSH2 0x3356 JUMP JUMPDEST JUMPDEST DUP2 DUP2 MUL SWAP1 POP JUMPDEST SWAP4 SWAP3 POP POP POP JUMP JUMPDEST PUSH1 0x0 PUSH2 0x3ED4 DUP3 PUSH2 0x282D JUMP JUMPDEST SWAP2 POP PUSH2 0x3EDF DUP4 PUSH2 0x29B0 JUMP JUMPDEST SWAP3 POP PUSH2 0x3F0C PUSH32 0xFFFFFFFFFFFFFFFFFFFFFFFFFFFFFFFFFFFFFFFFFFFFFFFFFFFFFFFFFFFFFFFF DUP5 DUP5 PUSH2 0x3DF6 JUMP JUMPDEST SWAP1 POP SWAP3 SWAP2 POP POP JUMP INVALID LOG2 PUSH5 0x6970667358 0x22 SLT KECCAK256 DUP6 0xC7 PUSH30 0x2BDED8548ADAB3B8A852D7532BA6766CB5365CEBC5B0F9EC82F4558B5A64 PUSH20 0x6F6C634300081400330000000000000000000000 "
        },
        "methodIdentifiers": {
          "actions()": "f99e36bc",
          "allowance(address,address)": "dd62ed3e",
          "approve(address,uint256)": "095ea7b3",
          "balanceOf(address)": "70a08231",
          "blackListUser(address)": "16f3a12d",
          "blackListedAddress(address)": "7057a5c5",
          "burnFrom(address,uint256)": "79cc6790",
          "burnSupply(uint256)": "d595c331",
          "buyBackTokens(uint256)": "fc155d1d",
          "decimals()": "313ce567",
          "mintSupply(uint256)": "26364aec",
          "name()": "06fdde03",
          "owner()": "8da5cb5b",
          "pauseTokenTransfers()": "74097a80",
          "paused()": "5c975abb",
          "renounceOwnership()": "715018a6",
          "setTxnTaxRate(uint8)": "aace63a3",
          "setTxnTaxWallet(address)": "17619064",
          "stakeToken(uint256)": "cda6b847",
          "stakes(address)": "16934fc4",
          "symbol()": "95d89b41",
          "totalSupply()": "18160ddd",
          "transfer(address,uint256)": "a9059cbb",
          "transferFrom(address,address,uint256)": "23b872dd",
          "transferOwnership(address)": "f2fde38b",
          "transferTokensToUser(address,uint256,uint256)": "78f723df",
          "txnTaxRate()": "3851686f",
          "txnTaxWallet()": "93c7346f",
          "unPauseTokenTransfers()": "77f2ca5e",
          "uniswapRouter()": "735de9f7",
          "whiteListUser(address)": "1536ca40",
          "withdrawFull()": "e0dd89ec",
          "withdrawTokenAmount(uint256)": "a8a37906"
        }
      }
    }
  }
}