{
  "_format": "hh-sol-artifact-1",
  "contractName": "UTToken",
  "sourceName": "contracts/UTToken.sol",
  "abi": [
    {
      "inputs": [
        {
          "internalType": "uint256",
          "name": "preMintValue",
          "type": "uint256"
        },
        {
          "internalType": "string",
          "name": "_tokenTicker",
          "type": "string"
        },
        {
          "internalType": "string",
          "name": "_tokenName",
          "type": "string"
        },
        {
          "internalType": "address",
          "name": "_initialAddress",
          "type": "address"
        },
        {
          "components": [
            {
              "internalType": "bool",
              "name": "canMint",
              "type": "bool"
            },
            {
              "internalType": "bool",
              "name": "canBurn",
              "type": "bool"
            },
            {
              "internalType": "bool",
              "name": "canPause",
              "type": "bool"
            },
            {
              "internalType": "bool",
              "name": "canBlacklist",
              "type": "bool"
            },
            {
              "internalType": "bool",
              "name": "canChangeOwner",
              "type": "bool"
            },
            {
              "internalType": "bool",
              "name": "canTxTax",
              "type": "bool"
            },
            {
              "internalType": "bool",
              "name": "canBuyBack",
              "type": "bool"
            },
            {
              "internalType": "bool",
              "name": "canStake",
              "type": "bool"
            }
          ],
          "internalType": "struct UTToken.smartContractActions",
          "name": "_actions",
          "type": "tuple"
        },
        {
          "internalType": "uint8",
          "name": "_txnTaxRate",
          "type": "uint8"
        },
        {
          "internalType": "address",
          "name": "_txnTaxWallet",
          "type": "address"
        },
        {
          "internalType": "uint8",
          "name": "decimals_",
          "type": "uint8"
        }
      ],
      "stateMutability": "nonpayable",
      "type": "constructor"
    },
    {
      "inputs": [
        {
          "internalType": "address",
          "name": "spender",
          "type": "address"
        },
        {
          "internalType": "uint256",
          "name": "allowance",
          "type": "uint256"
        },
        {
          "internalType": "uint256",
          "name": "needed",
          "type": "uint256"
        }
      ],
      "name": "ERC20InsufficientAllowance",
      "type": "error"
    },
    {
      "inputs": [
        {
          "internalType": "address",
          "name": "sender",
          "type": "address"
        },
        {
          "internalType": "uint256",
          "name": "balance",
          "type": "uint256"
        },
        {
          "internalType": "uint256",
          "name": "needed",
          "type": "uint256"
        }
      ],
      "name": "ERC20InsufficientBalance",
      "type": "error"
    },
    {
      "inputs": [
        {
          "internalType": "address",
          "name": "approver",
          "type": "address"
        }
      ],
      "name": "ERC20InvalidApprover",
      "type": "error"
    },
    {
      "inputs": [
        {
          "internalType": "address",
          "name": "receiver",
          "type": "address"
        }
      ],
      "name": "ERC20InvalidReceiver",
      "type": "error"
    },
    {
      "inputs": [
        {
          "internalType": "address",
          "name": "sender",
          "type": "address"
        }
      ],
      "name": "ERC20InvalidSender",
      "type": "error"
    },
    {
      "inputs": [
        {
          "internalType": "address",
          "name": "spender",
          "type": "address"
        }
      ],
      "name": "ERC20InvalidSpender",
      "type": "error"
    },
    {
      "inputs": [],
      "name": "EnforcedPause",
      "type": "error"
    },
    {
      "inputs": [],
      "name": "ExpectedPause",
      "type": "error"
    },
    {
      "inputs": [
        {
          "internalType": "address",
          "name": "owner",
          "type": "address"
        }
      ],
      "name": "OwnableInvalidOwner",
      "type": "error"
    },
    {
      "inputs": [
        {
          "internalType": "address",
          "name": "account",
          "type": "address"
        }
      ],
      "name": "OwnableUnauthorizedAccount",
      "type": "error"
    },
    {
      "inputs": [],
      "name": "ReentrancyGuardReentrantCall",
      "type": "error"
    },
    {
      "anonymous": false,
      "inputs": [
        {
          "indexed": true,
          "internalType": "address",
          "name": "owner",
          "type": "address"
        },
        {
          "indexed": true,
          "internalType": "address",
          "name": "spender",
          "type": "address"
        },
        {
          "indexed": false,
          "internalType": "uint256",
          "name": "value",
          "type": "uint256"
        }
      ],
      "name": "Approval",
      "type": "event"
    },
    {
      "anonymous": false,
      "inputs": [
        {
          "indexed": true,
          "internalType": "address",
          "name": "owner",
          "type": "address"
        },
        {
          "indexed": true,
          "internalType": "address",
          "name": "spender",
          "type": "address"
        },
        {
          "indexed": false,
          "internalType": "uint256",
          "name": "value",
          "type": "uint256"
        }
      ],
      "name": "LogApproval",
      "type": "event"
    },
    {
      "anonymous": false,
      "inputs": [
        {
          "indexed": false,
          "internalType": "uint256",
          "name": "totalSupply",
          "type": "uint256"
        },
        {
          "indexed": false,
          "internalType": "uint256",
          "name": "decimals",
          "type": "uint256"
        }
      ],
      "name": "LogTotalSupply",
      "type": "event"
    },
    {
      "anonymous": false,
      "inputs": [
        {
          "indexed": true,
          "internalType": "address",
          "name": "previousOwner",
          "type": "address"
        },
        {
          "indexed": true,
          "internalType": "address",
          "name": "newOwner",
          "type": "address"
        }
      ],
      "name": "OwnershipTransferred",
      "type": "event"
    },
    {
      "anonymous": false,
      "inputs": [
        {
          "indexed": false,
          "internalType": "address",
          "name": "account",
          "type": "address"
        }
      ],
      "name": "Paused",
      "type": "event"
    },
    {
      "anonymous": false,
      "inputs": [
        {
          "indexed": true,
          "internalType": "address",
          "name": "from",
          "type": "address"
        },
        {
          "indexed": true,
          "internalType": "address",
          "name": "to",
          "type": "address"
        },
        {
          "indexed": false,
          "internalType": "uint256",
          "name": "value",
          "type": "uint256"
        }
      ],
      "name": "Transfer",
      "type": "event"
    },
    {
      "anonymous": false,
      "inputs": [
        {
          "indexed": false,
          "internalType": "address",
          "name": "account",
          "type": "address"
        }
      ],
      "name": "Unpaused",
      "type": "event"
    },
    {
      "inputs": [],
      "name": "actions",
      "outputs": [
        {
          "internalType": "bool",
          "name": "canMint",
          "type": "bool"
        },
        {
          "internalType": "bool",
          "name": "canBurn",
          "type": "bool"
        },
        {
          "internalType": "bool",
          "name": "canPause",
          "type": "bool"
        },
        {
          "internalType": "bool",
          "name": "canBlacklist",
          "type": "bool"
        },
        {
          "internalType": "bool",
          "name": "canChangeOwner",
          "type": "bool"
        },
        {
          "internalType": "bool",
          "name": "canTxTax",
          "type": "bool"
        },
        {
          "internalType": "bool",
          "name": "canBuyBack",
          "type": "bool"
        },
        {
          "internalType": "bool",
          "name": "canStake",
          "type": "bool"
        }
      ],
      "stateMutability": "view",
      "type": "function"
    },
    {
      "inputs": [
        {
          "internalType": "address",
          "name": "owner",
          "type": "address"
        },
        {
          "internalType": "address",
          "name": "spender",
          "type": "address"
        }
      ],
      "name": "allowance",
      "outputs": [
        {
          "internalType": "uint256",
          "name": "",
          "type": "uint256"
        }
      ],
      "stateMutability": "view",
      "type": "function"
    },
    {
      "inputs": [
        {
          "internalType": "address",
          "name": "spender",
          "type": "address"
        },
        {
          "internalType": "uint256",
          "name": "value",
          "type": "uint256"
        }
      ],
      "name": "approve",
      "outputs": [
        {
          "internalType": "bool",
          "name": "",
          "type": "bool"
        }
      ],
      "stateMutability": "nonpayable",
      "type": "function"
    },
    {
      "inputs": [
        {
          "internalType": "address",
          "name": "account",
          "type": "address"
        }
      ],
      "name": "balanceOf",
      "outputs": [
        {
          "internalType": "uint256",
          "name": "",
          "type": "uint256"
        }
      ],
      "stateMutability": "view",
      "type": "function"
    },
    {
      "inputs": [
        {
          "internalType": "address",
          "name": "_user",
          "type": "address"
        }
      ],
      "name": "blackListUser",
      "outputs": [],
      "stateMutability": "nonpayable",
      "type": "function"
    },
    {
      "inputs": [
        {
          "internalType": "address",
          "name": "",
          "type": "address"
        }
      ],
      "name": "blackListedAddress",
      "outputs": [
        {
          "internalType": "bool",
          "name": "",
          "type": "bool"
        }
      ],
      "stateMutability": "view",
      "type": "function"
    },
    {
      "inputs": [
        {
          "internalType": "address",
          "name": "_user",
          "type": "address"
        },
        {
          "internalType": "uint256",
          "name": "_amount",
          "type": "uint256"
        }
      ],
      "name": "burnFrom",
      "outputs": [],
      "stateMutability": "nonpayable",
      "type": "function"
    },
    {
      "inputs": [
        {
          "internalType": "uint256",
          "name": "_amount",
          "type": "uint256"
        }
      ],
      "name": "burnSupply",
      "outputs": [],
      "stateMutability": "nonpayable",
      "type": "function"
    },
    {
      "inputs": [
        {
          "internalType": "uint256",
          "name": "amountOutMin",
          "type": "uint256"
        }
      ],
      "name": "buyBackTokens",
      "outputs": [],
      "stateMutability": "payable",
      "type": "function"
    },
    {
      "inputs": [],
      "name": "decimals",
      "outputs": [
        {
          "internalType": "uint8",
          "name": "",
          "type": "uint8"
        }
      ],
      "stateMutability": "view",
      "type": "function"
    },
    {
      "inputs": [
        {
          "internalType": "uint256",
          "name": "_amount",
          "type": "uint256"
        }
      ],
      "name": "mintSupply",
      "outputs": [],
      "stateMutability": "nonpayable",
      "type": "function"
    },
    {
      "inputs": [],
      "name": "name",
      "outputs": [
        {
          "internalType": "string",
          "name": "",
          "type": "string"
        }
      ],
      "stateMutability": "view",
      "type": "function"
    },
    {
      "inputs": [],
      "name": "owner",
      "outputs": [
        {
          "internalType": "address",
          "name": "",
          "type": "address"
        }
      ],
      "stateMutability": "view",
      "type": "function"
    },
    {
      "inputs": [],
      "name": "pauseTokenTransfers",
      "outputs": [],
      "stateMutability": "nonpayable",
      "type": "function"
    },
    {
      "inputs": [],
      "name": "paused",
      "outputs": [
        {
          "internalType": "bool",
          "name": "",
          "type": "bool"
        }
      ],
      "stateMutability": "view",
      "type": "function"
    },
    {
      "inputs": [],
      "name": "renounceOwnership",
      "outputs": [],
      "stateMutability": "nonpayable",
      "type": "function"
    },
    {
      "inputs": [
        {
          "internalType": "uint8",
          "name": "_rateValue",
          "type": "uint8"
        }
      ],
      "name": "setTxnTaxRate",
      "outputs": [],
      "stateMutability": "nonpayable",
      "type": "function"
    },
    {
      "inputs": [
        {
          "internalType": "address",
          "name": "_txnTaxWallet",
          "type": "address"
        }
      ],
      "name": "setTxnTaxWallet",
      "outputs": [],
      "stateMutability": "nonpayable",
      "type": "function"
    },
    {
      "inputs": [
        {
          "internalType": "uint256",
          "name": "_amount",
          "type": "uint256"
        }
      ],
      "name": "stakeToken",
      "outputs": [],
      "stateMutability": "nonpayable",
      "type": "function"
    },
    {
      "inputs": [
        {
          "internalType": "address",
          "name": "",
          "type": "address"
        }
      ],
      "name": "stakes",
      "outputs": [
        {
          "internalType": "uint256",
          "name": "",
          "type": "uint256"
        }
      ],
      "stateMutability": "view",
      "type": "function"
    },
    {
      "inputs": [],
      "name": "symbol",
      "outputs": [
        {
          "internalType": "string",
          "name": "",
          "type": "string"
        }
      ],
      "stateMutability": "view",
      "type": "function"
    },
    {
      "inputs": [],
      "name": "totalSupply",
      "outputs": [
        {
          "internalType": "uint256",
          "name": "",
          "type": "uint256"
        }
      ],
      "stateMutability": "view",
      "type": "function"
    },
    {
      "inputs": [
        {
          "internalType": "address",
          "name": "to",
          "type": "address"
        },
        {
          "internalType": "uint256",
          "name": "value",
          "type": "uint256"
        }
      ],
      "name": "transfer",
      "outputs": [
        {
          "internalType": "bool",
          "name": "",
          "type": "bool"
        }
      ],
      "stateMutability": "nonpayable",
      "type": "function"
    },
    {
      "inputs": [
        {
          "internalType": "address",
          "name": "from",
          "type": "address"
        },
        {
          "internalType": "address",
          "name": "to",
          "type": "address"
        },
        {
          "internalType": "uint256",
          "name": "value",
          "type": "uint256"
        }
      ],
      "name": "transferFrom",
      "outputs": [
        {
          "internalType": "bool",
          "name": "",
          "type": "bool"
        }
      ],
      "stateMutability": "nonpayable",
      "type": "function"
    },
    {
      "inputs": [
        {
          "internalType": "address",
          "name": "newOwner",
          "type": "address"
        }
      ],
      "name": "transferOwnership",
      "outputs": [],
      "stateMutability": "nonpayable",
      "type": "function"
    },
    {
      "inputs": [
        {
          "internalType": "address",
          "name": "user",
          "type": "address"
        },
        {
          "internalType": "uint256",
          "name": "amount",
          "type": "uint256"
        },
        {
          "internalType": "uint256",
          "name": "_duration",
          "type": "uint256"
        }
      ],
      "name": "transferTokensToUser",
      "outputs": [],
      "stateMutability": "nonpayable",
      "type": "function"
    },
    {
      "inputs": [],
      "name": "txnTaxRate",
      "outputs": [
        {
          "internalType": "uint8",
          "name": "",
          "type": "uint8"
        }
      ],
      "stateMutability": "view",
      "type": "function"
    },
    {
      "inputs": [],
      "name": "txnTaxWallet",
      "outputs": [
        {
          "internalType": "address",
          "name": "",
          "type": "address"
        }
      ],
      "stateMutability": "view",
      "type": "function"
    },
    {
      "inputs": [],
      "name": "unPauseTokenTransfers",
      "outputs": [],
      "stateMutability": "nonpayable",
      "type": "function"
    },
    {
      "inputs": [],
      "name": "uniswapRouter",
      "outputs": [
        {
          "internalType": "contract IUniswapV2Router02",
          "name": "",
          "type": "address"
        }
      ],
      "stateMutability": "view",
      "type": "function"
    },
    {
      "inputs": [
        {
          "internalType": "address",
          "name": "_user",
          "type": "address"
        }
      ],
      "name": "whiteListUser",
      "outputs": [],
      "stateMutability": "nonpayable",
      "type": "function"
    },
    {
      "inputs": [],
      "name": "withdrawFull",
      "outputs": [],
      "stateMutability": "nonpayable",
      "type": "function"
    },
    {
      "inputs": [
        {
          "internalType": "uint256",
          "name": "_amount",
          "type": "uint256"
        }
      ],
      "name": "withdrawTokenAmount",
      "outputs": [],
      "stateMutability": "nonpayable",
      "type": "function"
    }
  ],
  "bytecode": "0x60806040523480156200001157600080fd5b50604051620055fc380380620055fc833981810160405281019062000037919062000dfc565b84868881600390816200004b919062001147565b5080600490816200005d919062001147565b505050600073ffffffffffffffffffffffffffffffffffffffff168173ffffffffffffffffffffffffffffffffffffffff1603620000d55760006040517f1e4fbdf7000000000000000000000000000000000000000000000000000000008152600401620000cc91906200123f565b60405180910390fd5b620000e6816200016760201b60201c565b506000600560146101000a81548160ff021916908315150217905550600160068190555080600960156101000a81548160ff021916908360ff16021790555062000136886200022d60201b60201c565b620001488383620002d360201b60201c565b6200015984620003ee60201b60201c565b5050505050505050620016a2565b6000600560009054906101000a900473ffffffffffffffffffffffffffffffffffffffff16905081600560006101000a81548173ffffffffffffffffffffffffffffffffffffffff021916908373ffffffffffffffffffffffffffffffffffffffff1602179055508173ffffffffffffffffffffffffffffffffffffffff168173ffffffffffffffffffffffffffffffffffffffff167f8be0079c531659141344cd1fd0a4f28419497f9722a3daafe3b4186f6b6457e060405160405180910390a35050565b60006200024082620004f960201b60201c565b90506200025430826200052d60201b60201c565b6200027562000268620005ba60201b60201c565b82620005e460201b60201c565b507f255d63610a0acc0d201b7200021a02f21438763bd8545af3f4b664719a9dfcad620002a76200061760201b60201c565b620002b76200062160201b60201c565b604051620002c7929190620012a6565b60405180910390a15050565b600073ffffffffffffffffffffffffffffffffffffffff168173ffffffffffffffffffffffffffffffffffffffff160362000345576040517f08c379a00000000000000000000000000000000000000000000000000000000081526004016200033c9062001334565b60405180910390fd5b60008260ff16116200038e576040517f08c379a00000000000000000000000000000000000000000000000000000000081526004016200038590620013cc565b60405180910390fd5b80600960016101000a81548173ffffffffffffffffffffffffffffffffffffffff021916908373ffffffffffffffffffffffffffffffffffffffff16021790555081600960006101000a81548160ff021916908360ff1602179055505050565b8060e00151600b60000160076101000a81548160ff0219169083151502179055508060200151600b60000160016101000a81548160ff0219169083151502179055508060000151600b60000160006101000a81548160ff0219169083151502179055508060400151600b60000160026101000a81548160ff0219169083151502179055508060600151600b60000160036101000a81548160ff0219169083151502179055508060800151600b60000160046101000a81548160ff0219169083151502179055508060a00151600b60000160056101000a81548160ff0219169083151502179055508060c00151600b60000160066101000a81548160ff02191690831515021790555050565b60006200050b6200062160201b60201c565b600a62000519919062001571565b82620005269190620015c2565b9050919050565b600073ffffffffffffffffffffffffffffffffffffffff168273ffffffffffffffffffffffffffffffffffffffff1603620005a25760006040517fec442f050000000000000000000000000000000000000000000000000000000081526004016200059991906200123f565b60405180910390fd5b620005b6600083836200063860201b60201c565b5050565b6000600560009054906101000a900473ffffffffffffffffffffffffffffffffffffffff16905090565b600080620005f76200086860201b60201c565b90506200060c8185856200087060201b60201c565b600191505092915050565b6000600254905090565b6000600960159054906101000a900460ff16905090565b600073ffffffffffffffffffffffffffffffffffffffff168373ffffffffffffffffffffffffffffffffffffffff16036200068e5780600260008282546200068191906200160d565b9250508190555062000764565b60008060008573ffffffffffffffffffffffffffffffffffffffff1673ffffffffffffffffffffffffffffffffffffffff168152602001908152602001600020549050818110156200071d578381836040517fe450d38c000000000000000000000000000000000000000000000000000000008152600401620007149392919062001648565b60405180910390fd5b8181036000808673ffffffffffffffffffffffffffffffffffffffff1673ffffffffffffffffffffffffffffffffffffffff16815260200190815260200160002081905550505b600073ffffffffffffffffffffffffffffffffffffffff168273ffffffffffffffffffffffffffffffffffffffff1603620007af5780600260008282540392505081905550620007fc565b806000808473ffffffffffffffffffffffffffffffffffffffff1673ffffffffffffffffffffffffffffffffffffffff168152602001908152602001600020600082825401925050819055505b8173ffffffffffffffffffffffffffffffffffffffff168373ffffffffffffffffffffffffffffffffffffffff167fddf252ad1be2c89b69c2b068fc378daa952ba7f163c4a11628f55a4df523b3ef836040516200085b919062001685565b60405180910390a3505050565b600033905090565b6200088583838360016200088a60201b60201c565b505050565b600073ffffffffffffffffffffffffffffffffffffffff168473ffffffffffffffffffffffffffffffffffffffff1603620008ff5760006040517fe602df05000000000000000000000000000000000000000000000000000000008152600401620008f691906200123f565b60405180910390fd5b600073ffffffffffffffffffffffffffffffffffffffff168373ffffffffffffffffffffffffffffffffffffffff1603620009745760006040517f94280d620000000000000000000000000000000000000000000000000000000081526004016200096b91906200123f565b60405180910390fd5b81600160008673ffffffffffffffffffffffffffffffffffffffff1673ffffffffffffffffffffffffffffffffffffffff16815260200190815260200160002060008573ffffffffffffffffffffffffffffffffffffffff1673ffffffffffffffffffffffffffffffffffffffff16815260200190815260200160002081905550801562000a64578273ffffffffffffffffffffffffffffffffffffffff168473ffffffffffffffffffffffffffffffffffffffff167f8c5be1e5ebec7d5bd14f71427d1e84f3dd0314c0f7b2291e5b200ac8c7c3b9258460405162000a5b919062001685565b60405180910390a35b50505050565b6000604051905090565b600080fd5b600080fd5b6000819050919050565b62000a938162000a7e565b811462000a9f57600080fd5b50565b60008151905062000ab38162000a88565b92915050565b600080fd5b600080fd5b6000601f19601f8301169050919050565b7f4e487b7100000000000000000000000000000000000000000000000000000000600052604160045260246000fd5b62000b0e8262000ac3565b810181811067ffffffffffffffff8211171562000b305762000b2f62000ad4565b5b80604052505050565b600062000b4562000a6a565b905062000b53828262000b03565b919050565b600067ffffffffffffffff82111562000b765762000b7562000ad4565b5b62000b818262000ac3565b9050602081019050919050565b60005b8381101562000bae57808201518184015260208101905062000b91565b60008484015250505050565b600062000bd162000bcb8462000b58565b62000b39565b90508281526020810184848401111562000bf05762000bef62000abe565b5b62000bfd84828562000b8e565b509392505050565b600082601f83011262000c1d5762000c1c62000ab9565b5b815162000c2f84826020860162000bba565b91505092915050565b600073ffffffffffffffffffffffffffffffffffffffff82169050919050565b600062000c658262000c38565b9050919050565b62000c778162000c58565b811462000c8357600080fd5b50565b60008151905062000c978162000c6c565b92915050565b600080fd5b60008115159050919050565b62000cb98162000ca2565b811462000cc557600080fd5b50565b60008151905062000cd98162000cae565b92915050565b6000610100828403121562000cf95762000cf862000c9d565b5b62000d0661010062000b39565b9050600062000d188482850162000cc8565b600083015250602062000d2e8482850162000cc8565b602083015250604062000d448482850162000cc8565b604083015250606062000d5a8482850162000cc8565b606083015250608062000d708482850162000cc8565b60808301525060a062000d868482850162000cc8565b60a08301525060c062000d9c8482850162000cc8565b60c08301525060e062000db28482850162000cc8565b60e08301525092915050565b600060ff82169050919050565b62000dd68162000dbe565b811462000de257600080fd5b50565b60008151905062000df68162000dcb565b92915050565b6000806000806000806000806101e0898b03121562000e205762000e1f62000a74565b5b600062000e308b828c0162000aa2565b985050602089015167ffffffffffffffff81111562000e545762000e5362000a79565b5b62000e628b828c0162000c05565b975050604089015167ffffffffffffffff81111562000e865762000e8562000a79565b5b62000e948b828c0162000c05565b965050606062000ea78b828c0162000c86565b955050608062000eba8b828c0162000cdf565b94505061018062000ece8b828c0162000de5565b9350506101a062000ee28b828c0162000c86565b9250506101c062000ef68b828c0162000de5565b9150509295985092959890939650565b600081519050919050565b7f4e487b7100000000000000000000000000000000000000000000000000000000600052602260045260246000fd5b6000600282049050600182168062000f5957607f821691505b60208210810362000f6f5762000f6e62000f11565b5b50919050565b60008190508160005260206000209050919050565b60006020601f8301049050919050565b600082821b905092915050565b60006008830262000fd97fffffffffffffffffffffffffffffffffffffffffffffffffffffffffffffffff8262000f9a565b62000fe5868362000f9a565b95508019841693508086168417925050509392505050565b6000819050919050565b600062001028620010226200101c8462000a7e565b62000ffd565b62000a7e565b9050919050565b6000819050919050565b620010448362001007565b6200105c62001053826200102f565b84845462000fa7565b825550505050565b600090565b6200107362001064565b6200108081848462001039565b505050565b5b81811015620010a8576200109c60008262001069565b60018101905062001086565b5050565b601f821115620010f757620010c18162000f75565b620010cc8462000f8a565b81016020851015620010dc578190505b620010f4620010eb8562000f8a565b83018262001085565b50505b505050565b600082821c905092915050565b60006200111c60001984600802620010fc565b1980831691505092915050565b600062001137838362001109565b9150826002028217905092915050565b620011528262000f06565b67ffffffffffffffff8111156200116e576200116d62000ad4565b5b6200117a825462000f40565b62001187828285620010ac565b600060209050601f831160018114620011bf5760008415620011aa578287015190505b620011b6858262001129565b86555062001226565b601f198416620011cf8662000f75565b60005b82811015620011f957848901518255600182019150602085019450602081019050620011d2565b8683101562001219578489015162001215601f89168262001109565b8355505b6001600288020188555050505b505050505050565b620012398162000c58565b82525050565b60006020820190506200125660008301846200122e565b92915050565b620012678162000a7e565b82525050565b60006200128e62001288620012828462000dbe565b62000ffd565b62000a7e565b9050919050565b620012a0816200126d565b82525050565b6000604082019050620012bd60008301856200125c565b620012cc602083018462001295565b9392505050565b600082825260208201905092915050565b7f54786e5461782057616c6c65742063616e277420626520656d70747900000000600082015250565b60006200131c601c83620012d3565b91506200132982620012e4565b602082019050919050565b600060208201905081810360008301526200134f816200130d565b9050919050565b7f5472616e73616374696f6e2072617465206d757374206265206772617465722060008201527f7468616e20300000000000000000000000000000000000000000000000000000602082015250565b6000620013b4602683620012d3565b9150620013c18262001356565b604082019050919050565b60006020820190508181036000830152620013e781620013a5565b9050919050565b7f4e487b7100000000000000000000000000000000000000000000000000000000600052601160045260246000fd5b60008160011c9050919050565b6000808291508390505b60018511156200147c57808604811115620014545762001453620013ee565b5b6001851615620014645780820291505b808102905062001474856200141d565b945062001434565b94509492505050565b6000826200149757600190506200156a565b81620014a757600090506200156a565b8160018114620014c05760028114620014cb5762001501565b60019150506200156a565b60ff841115620014e057620014df620013ee565b5b8360020a915084821115620014fa57620014f9620013ee565b5b506200156a565b5060208310610133831016604e8410600b84101617156200153b5782820a905083811115620015355762001534620013ee565b5b6200156a565b6200154a84848460016200142a565b92509050818404811115620015645762001563620013ee565b5b81810290505b9392505050565b60006200157e8262000a7e565b91506200158b8362000dbe565b9250620015ba7fffffffffffffffffffffffffffffffffffffffffffffffffffffffffffffffff848462001485565b905092915050565b6000620015cf8262000a7e565b9150620015dc8362000a7e565b9250828202620015ec8162000a7e565b91508282048414831517620016065762001605620013ee565b5b5092915050565b60006200161a8262000a7e565b9150620016278362000a7e565b9250828201905080821115620016425762001641620013ee565b5b92915050565b60006060820190506200165f60008301866200122e565b6200166e60208301856200125c565b6200167d60408301846200125c565b949350505050565b60006020820190506200169c60008301846200125c565b92915050565b613f4a80620016b26000396000f3fe6080604052600436106101ee5760003560e01c806374097a801161010d578063a9059cbb116100a0578063dd62ed3e1161006f578063dd62ed3e146106c3578063e0dd89ec14610700578063f2fde38b14610717578063f99e36bc14610740578063fc155d1d14610772576101ee565b8063a9059cbb1461060b578063aace63a314610648578063cda6b84714610671578063d595c3311461069a576101ee565b80638da5cb5b116100dc5780638da5cb5b1461056157806393c7346f1461058c57806395d89b41146105b7578063a8a37906146105e2576101ee565b806374097a80146104e157806377f2ca5e146104f857806378f723df1461050f57806379cc679014610538576101ee565b806326364aec116101855780637057a5c5116101545780637057a5c51461042557806370a0823114610462578063715018a61461049f578063735de9f7146104b6576101ee565b806326364aec1461037b578063313ce567146103a45780633851686f146103cf5780635c975abb146103fa576101ee565b806316f3a12d116101c157806316f3a12d146102c157806317619064146102ea57806318160ddd1461031357806323b872dd1461033e576101ee565b806306fdde03146101f3578063095ea7b31461021e5780631536ca401461025b57806316934fc414610284575b600080fd5b3480156101ff57600080fd5b5061020861078e565b6040516102159190612799565b60405180910390f35b34801561022a57600080fd5b5061024560048036038101906102409190612863565b610820565b60405161025291906128be565b60405180910390f35b34801561026757600080fd5b50610282600480360381019061027d91906128d9565b610843565b005b34801561029057600080fd5b506102ab60048036038101906102a691906128d9565b61098c565b6040516102b89190612915565b60405180910390f35b3480156102cd57600080fd5b506102e860048036038101906102e391906128d9565b6109a4565b005b3480156102f657600080fd5b50610311600480360381019061030c91906128d9565b610aee565b005b34801561031f57600080fd5b50610328610c03565b6040516103359190612915565b60405180910390f35b34801561034a57600080fd5b5061036560048036038101906103609190612930565b610c0d565b60405161037291906128be565b60405180910390f35b34801561038757600080fd5b506103a2600480360381019061039d9190612983565b610c3c565b005b3480156103b057600080fd5b506103b9610cf6565b6040516103c691906129cc565b60405180910390f35b3480156103db57600080fd5b506103e4610d0d565b6040516103f191906129cc565b60405180910390f35b34801561040657600080fd5b5061040f610d20565b60405161041c91906128be565b60405180910390f35b34801561043157600080fd5b5061044c600480360381019061044791906128d9565b610d37565b60405161045991906128be565b60405180910390f35b34801561046e57600080fd5b50610489600480360381019061048491906128d9565b610d57565b6040516104969190612915565b60405180910390f35b3480156104ab57600080fd5b506104b4610d9f565b005b3480156104c257600080fd5b506104cb610db3565b6040516104d89190612a46565b60405180910390f35b3480156104ed57600080fd5b506104f6610dd9565b005b34801561050457600080fd5b5061050d610e85565b005b34801561051b57600080fd5b5061053660048036038101906105319190612a61565b610f30565b005b34801561054457600080fd5b5061055f600480360381019061055a9190612863565b611117565b005b34801561056d57600080fd5b506105766111b0565b6040516105839190612ac3565b60405180910390f35b34801561059857600080fd5b506105a16111da565b6040516105ae9190612ac3565b60405180910390f35b3480156105c357600080fd5b506105cc611200565b6040516105d99190612799565b60405180910390f35b3480156105ee57600080fd5b5061060960048036038101906106049190612983565b611292565b005b34801561061757600080fd5b50610632600480360381019061062d9190612863565b611467565b60405161063f91906128be565b60405180910390f35b34801561065457600080fd5b5061066f600480360381019061066a9190612b0a565b61148a565b005b34801561067d57600080fd5b5061069860048036038101906106939190612983565b611550565b005b3480156106a657600080fd5b506106c160048036038101906106bc9190612983565b6116f6565b005b3480156106cf57600080fd5b506106ea60048036038101906106e59190612b37565b6117b0565b6040516106f79190612915565b60405180910390f35b34801561070c57600080fd5b50610715611837565b005b34801561072357600080fd5b5061073e600480360381019061073991906128d9565b611a41565b005b34801561074c57600080fd5b50610755611aa7565b604051610769989796959493929190612b77565b60405180910390f35b61078c60048036038101906107879190612983565b611b45565b005b60606003805461079d90612c24565b80601f01602080910402602001604051908101604052809291908181526020018280546107c990612c24565b80156108165780601f106107eb57610100808354040283529160200191610816565b820191906000526020600020905b8154815290600101906020018083116107f957829003601f168201915b5050505050905090565b60008061082b611d5b565b9050610838818585611d63565b600191505092915050565b600b60000160039054906101000a900460ff16610895576040517f08c379a000000000000000000000000000000000000000000000000000000000815260040161088c90612ced565b60405180910390fd5b61089d611d75565b6108a5611dfc565b600760008273ffffffffffffffffffffffffffffffffffffffff1673ffffffffffffffffffffffffffffffffffffffff16815260200190815260200160002060009054906101000a900460ff16610931576040517f08c379a000000000000000000000000000000000000000000000000000000000815260040161092890612d59565b60405180910390fd5b6000600760008373ffffffffffffffffffffffffffffffffffffffff1673ffffffffffffffffffffffffffffffffffffffff16815260200190815260200160002060006101000a81548160ff02191690831515021790555050565b60086020528060005260406000206000915090505481565b600b60000160039054906101000a900460ff166109f6576040517f08c379a00000000000000000000000000000000000000000000000000000000081526004016109ed90612ced565b60405180910390fd5b6109fe611d75565b610a06611dfc565b600760008273ffffffffffffffffffffffffffffffffffffffff1673ffffffffffffffffffffffffffffffffffffffff16815260200190815260200160002060009054906101000a900460ff1615610a93576040517f08c379a0000000000000000000000000000000000000000000000000000000008152600401610a8a90612deb565b60405180910390fd5b6001600760008373ffffffffffffffffffffffffffffffffffffffff1673ffffffffffffffffffffffffffffffffffffffff16815260200190815260200160002060006101000a81548160ff02191690831515021790555050565b600b60000160059054906101000a900460ff16610b40576040517f08c379a0000000000000000000000000000000000000000000000000000000008152600401610b3790612e7d565b60405180910390fd5b610b48611d75565b610b50611dfc565b600073ffffffffffffffffffffffffffffffffffffffff168173ffffffffffffffffffffffffffffffffffffffff1603610bbf576040517f08c379a0000000000000000000000000000000000000000000000000000000008152600401610bb690612ee9565b60405180910390fd5b80600960016101000a81548173ffffffffffffffffffffffffffffffffffffffff021916908373ffffffffffffffffffffffffffffffffffffffff16021790555050565b6000600254905090565b600080610c18611d5b565b9050610c25858285611e3d565b610c30858585611ed1565b60019150509392505050565b600b60000160009054906101000a900460ff16610c8e576040517f08c379a0000000000000000000000000000000000000000000000000000000008152600401610c8590612f7b565b60405180910390fd5b610c96611d75565b610c9e611dfc565b60008111610ce1576040517f08c379a0000000000000000000000000000000000000000000000000000000008152600401610cd890612fe7565b60405180910390fd5b610cf330610cee83611fc5565b611fed565b50565b6000600960159054906101000a900460ff16905090565b600960009054906101000a900460ff1681565b6000600560149054906101000a900460ff16905090565b60076020528060005260406000206000915054906101000a900460ff1681565b60008060008373ffffffffffffffffffffffffffffffffffffffff1673ffffffffffffffffffffffffffffffffffffffff168152602001908152602001600020549050919050565b610da7611d75565b610db1600061206f565b565b600a60009054906101000a900473ffffffffffffffffffffffffffffffffffffffff1681565b600b60000160029054906101000a900460ff16610e2b576040517f08c379a0000000000000000000000000000000000000000000000000000000008152600401610e229061309f565b60405180910390fd5b610e33611d75565b610e3b610d20565b15610e7b576040517f08c379a0000000000000000000000000000000000000000000000000000000008152600401610e729061310b565b60405180910390fd5b610e83612135565b565b600b60000160029054906101000a900460ff16610ed7576040517f08c379a0000000000000000000000000000000000000000000000000000000008152600401610ece9061309f565b60405180910390fd5b610edf611d75565b610ee7610d20565b610f26576040517f08c379a0000000000000000000000000000000000000000000000000000000008152600401610f1d90613177565b60405180910390fd5b610f2e612198565b565b610f38611d75565b610f40611dfc565b81610f4a30610d57565b1015610f8b576040517f08c379a0000000000000000000000000000000000000000000000000000000008152600401610f8290613209565b60405180910390fd5b600760008473ffffffffffffffffffffffffffffffffffffffff1673ffffffffffffffffffffffffffffffffffffffff16815260200190815260200160002060009054906101000a900460ff1615611018576040517f08c379a000000000000000000000000000000000000000000000000000000000815260040161100f90613275565b60405180910390fd5b6000821161105b576040517f08c379a000000000000000000000000000000000000000000000000000000000815260040161105290613307565b60405180910390fd5b60008290506000828261106e9190613385565b9050600b60000160059054906101000a900460ff16156110f35760006064600960009054906101000a900460ff1660ff16846110aa91906133b6565b6110b49190613385565b905080836110c291906133f8565b92506110f130600960019054906101000a900473ffffffffffffffffffffffffffffffffffffffff1683611ed1565b505b6110fe308684611ed1565b6111108561110a6111b0565b83611d63565b5050505050565b61111f611d75565b60006111328361112d6111b0565b6117b0565b905081811015611177576040517f08c379a000000000000000000000000000000000000000000000000000000000815260040161116e90613478565b60405180910390fd5b600061118284610d57565b9050600081036111a05761119f846111986111b0565b6000611d63565b5b6111aa84846121fb565b50505050565b6000600560009054906101000a900473ffffffffffffffffffffffffffffffffffffffff16905090565b600960019054906101000a900473ffffffffffffffffffffffffffffffffffffffff1681565b60606004805461120f90612c24565b80601f016020809104026020016040519081016040528092919081815260200182805461123b90612c24565b80156112885780601f1061125d57610100808354040283529160200191611288565b820191906000526020600020905b81548152906001019060200180831161126b57829003601f168201915b5050505050905090565b600b60000160079054906101000a900460ff166112e4576040517f08c379a00000000000000000000000000000000000000000000000000000000081526004016112db90613530565b60405180910390fd5b6112ec61227d565b600760003373ffffffffffffffffffffffffffffffffffffffff1673ffffffffffffffffffffffffffffffffffffffff16815260200190815260200160002060009054906101000a900460ff1615611379576040517f08c379a00000000000000000000000000000000000000000000000000000000081526004016113709061359c565b60405180910390fd5b80600860003373ffffffffffffffffffffffffffffffffffffffff1673ffffffffffffffffffffffffffffffffffffffff1681526020019081526020016000205410156113fb576040517f08c379a00000000000000000000000000000000000000000000000000000000081526004016113f29061362e565b60405180910390fd5b80600860003373ffffffffffffffffffffffffffffffffffffffff1673ffffffffffffffffffffffffffffffffffffffff168152602001908152602001600020600082825461144a91906133f8565b9250508190555061145c303383611ed1565b6114646122c3565b50565b600080611472611d5b565b905061147f818585611ed1565b600191505092915050565b600b60000160059054906101000a900460ff166114dc576040517f08c379a00000000000000000000000000000000000000000000000000000000081526004016114d390612e7d565b60405180910390fd5b6114e4611d75565b6114ec611dfc565b60008160ff1611611532576040517f08c379a00000000000000000000000000000000000000000000000000000000081526004016115299061369a565b60405180910390fd5b80600960006101000a81548160ff021916908360ff16021790555050565b600b60000160079054906101000a900460ff166115a2576040517f08c379a000000000000000000000000000000000000000000000000000000000815260040161159990613530565b60405180910390fd5b6115aa61227d565b6115b2611dfc565b600760003373ffffffffffffffffffffffffffffffffffffffff1673ffffffffffffffffffffffffffffffffffffffff16815260200190815260200160002060009054906101000a900460ff161561163f576040517f08c379a00000000000000000000000000000000000000000000000000000000081526004016116369061359c565b60405180910390fd5b8061164933610d57565b101561168a576040517f08c379a00000000000000000000000000000000000000000000000000000000081526004016116819061372c565b60405180910390fd5b80600860003373ffffffffffffffffffffffffffffffffffffffff1673ffffffffffffffffffffffffffffffffffffffff16815260200190815260200160002060008282546116d9919061374c565b925050819055506116eb333083611ed1565b6116f36122c3565b50565b600b60000160019054906101000a900460ff16611748576040517f08c379a000000000000000000000000000000000000000000000000000000000815260040161173f906137f2565b60405180910390fd5b611750611d75565b611758611dfc565b6000811161179b576040517f08c379a00000000000000000000000000000000000000000000000000000000081526004016117929061385e565b60405180910390fd5b6117ad306117a883611fc5565b6121fb565b50565b6000600160008473ffffffffffffffffffffffffffffffffffffffff1673ffffffffffffffffffffffffffffffffffffffff16815260200190815260200160002060008373ffffffffffffffffffffffffffffffffffffffff1673ffffffffffffffffffffffffffffffffffffffff16815260200190815260200160002054905092915050565b600b60000160079054906101000a900460ff16611889576040517f08c379a000000000000000000000000000000000000000000000000000000000815260040161188090613530565b60405180910390fd5b61189161227d565b611899611dfc565b600760003373ffffffffffffffffffffffffffffffffffffffff1673ffffffffffffffffffffffffffffffffffffffff16815260200190815260200160002060009054906101000a900460ff1615611926576040517f08c379a000000000000000000000000000000000000000000000000000000000815260040161191d9061359c565b60405180910390fd5b6000600860003373ffffffffffffffffffffffffffffffffffffffff1673ffffffffffffffffffffffffffffffffffffffff16815260200190815260200160002054116119a8576040517f08c379a000000000000000000000000000000000000000000000000000000000815260040161199f906138f0565b60405180910390fd5b6000600860003373ffffffffffffffffffffffffffffffffffffffff1673ffffffffffffffffffffffffffffffffffffffff16815260200190815260200160002081905550611a373033600860003373ffffffffffffffffffffffffffffffffffffffff1673ffffffffffffffffffffffffffffffffffffffff16815260200190815260200160002054611ed1565b611a3f6122c3565b565b600b60000160049054906101000a900460ff16611a93576040517f08c379a0000000000000000000000000000000000000000000000000000000008152600401611a8a906139a8565b60405180910390fd5b611a9b611d75565b611aa48161206f565b50565b600b8060000160009054906101000a900460ff16908060000160019054906101000a900460ff16908060000160029054906101000a900460ff16908060000160039054906101000a900460ff16908060000160049054906101000a900460ff16908060000160059054906101000a900460ff16908060000160069054906101000a900460ff16908060000160079054906101000a900460ff16905088565b600b60000160069054906101000a900460ff16611b97576040517f08c379a0000000000000000000000000000000000000000000000000000000008152600401611b8e90613a60565b60405180910390fd5b611b9f611dfc565b6000600267ffffffffffffffff811115611bbc57611bbb613a80565b5b604051908082528060200260200182016040528015611bea5781602001602082028036833780820191505090505b50905073ab8483f64d9c6d1ecf9b849ae677dd3315835cb281600081518110611c1657611c15613aaf565b5b602002602001019073ffffffffffffffffffffffffffffffffffffffff16908173ffffffffffffffffffffffffffffffffffffffff16815250503081600181518110611c6557611c64613aaf565b5b602002602001019073ffffffffffffffffffffffffffffffffffffffff16908173ffffffffffffffffffffffffffffffffffffffff1681525050600a60009054906101000a900473ffffffffffffffffffffffffffffffffffffffff1673ffffffffffffffffffffffffffffffffffffffff16637ff36ab53484843061012c42611cef919061374c565b6040518663ffffffff1660e01b8152600401611d0e9493929190613b9c565b60006040518083038185885af1158015611d2c573d6000803e3d6000fd5b50505050506040513d6000823e3d601f19601f82011682018060405250810190611d569190613d16565b505050565b600033905090565b611d7083838360016122cd565b505050565b611d7d611d5b565b73ffffffffffffffffffffffffffffffffffffffff16611d9b6111b0565b73ffffffffffffffffffffffffffffffffffffffff1614611dfa57611dbe611d5b565b6040517f118cdaa7000000000000000000000000000000000000000000000000000000008152600401611df19190612ac3565b60405180910390fd5b565b611e04610d20565b15611e3b576040517fd93c066500000000000000000000000000000000000000000000000000000000815260040160405180910390fd5b565b6000611e4984846117b0565b90507fffffffffffffffffffffffffffffffffffffffffffffffffffffffffffffffff8114611ecb5781811015611ebb578281836040517ffb8f41b2000000000000000000000000000000000000000000000000000000008152600401611eb293929190613d5f565b60405180910390fd5b611eca848484840360006122cd565b5b50505050565b600073ffffffffffffffffffffffffffffffffffffffff168373ffffffffffffffffffffffffffffffffffffffff1603611f435760006040517f96c6fd1e000000000000000000000000000000000000000000000000000000008152600401611f3a9190612ac3565b60405180910390fd5b600073ffffffffffffffffffffffffffffffffffffffff168273ffffffffffffffffffffffffffffffffffffffff1603611fb55760006040517fec442f05000000000000000000000000000000000000000000000000000000008152600401611fac9190612ac3565b60405180910390fd5b611fc08383836124a4565b505050565b6000611fcf610cf6565b600a611fdb9190613ec9565b82611fe691906133b6565b9050919050565b600073ffffffffffffffffffffffffffffffffffffffff168273ffffffffffffffffffffffffffffffffffffffff160361205f5760006040517fec442f050000000000000000000000000000000000000000000000000000000081526004016120569190612ac3565b60405180910390fd5b61206b600083836124a4565b5050565b6000600560009054906101000a900473ffffffffffffffffffffffffffffffffffffffff16905081600560006101000a81548173ffffffffffffffffffffffffffffffffffffffff021916908373ffffffffffffffffffffffffffffffffffffffff1602179055508173ffffffffffffffffffffffffffffffffffffffff168173ffffffffffffffffffffffffffffffffffffffff167f8be0079c531659141344cd1fd0a4f28419497f9722a3daafe3b4186f6b6457e060405160405180910390a35050565b61213d611dfc565b6001600560146101000a81548160ff0219169083151502179055507f62e78cea01bee320cd4e420270b5ea74000d11b0c9f74754ebdbfc544b05a258612181611d5b565b60405161218e9190612ac3565b60405180910390a1565b6121a06126c9565b6000600560146101000a81548160ff0219169083151502179055507f5db9ee0a495bf2e6ff9c91a7834c1ba4fdd244a5e8aa4e537bd38aeae4b073aa6121e4611d5b565b6040516121f19190612ac3565b60405180910390a1565b600073ffffffffffffffffffffffffffffffffffffffff168273ffffffffffffffffffffffffffffffffffffffff160361226d5760006040517f96c6fd1e0000000000000000000000000000000000000000000000000000000081526004016122649190612ac3565b60405180910390fd5b612279826000836124a4565b5050565b6002600654036122b9576040517f3ee5aeb500000000000000000000000000000000000000000000000000000000815260040160405180910390fd5b6002600681905550565b6001600681905550565b600073ffffffffffffffffffffffffffffffffffffffff168473ffffffffffffffffffffffffffffffffffffffff160361233f5760006040517fe602df050000000000000000000000000000000000000000000000000000000081526004016123369190612ac3565b60405180910390fd5b600073ffffffffffffffffffffffffffffffffffffffff168373ffffffffffffffffffffffffffffffffffffffff16036123b15760006040517f94280d620000000000000000000000000000000000000000000000000000000081526004016123a89190612ac3565b60405180910390fd5b81600160008673ffffffffffffffffffffffffffffffffffffffff1673ffffffffffffffffffffffffffffffffffffffff16815260200190815260200160002060008573ffffffffffffffffffffffffffffffffffffffff1673ffffffffffffffffffffffffffffffffffffffff16815260200190815260200160002081905550801561249e578273ffffffffffffffffffffffffffffffffffffffff168473ffffffffffffffffffffffffffffffffffffffff167f8c5be1e5ebec7d5bd14f71427d1e84f3dd0314c0f7b2291e5b200ac8c7c3b925846040516124959190612915565b60405180910390a35b50505050565b600073ffffffffffffffffffffffffffffffffffffffff168373ffffffffffffffffffffffffffffffffffffffff16036124f65780600260008282546124ea919061374c565b925050819055506125c9565b60008060008573ffffffffffffffffffffffffffffffffffffffff1673ffffffffffffffffffffffffffffffffffffffff16815260200190815260200160002054905081811015612582578381836040517fe450d38c00000000000000000000000000000000000000000000000000000000815260040161257993929190613d5f565b60405180910390fd5b8181036000808673ffffffffffffffffffffffffffffffffffffffff1673ffffffffffffffffffffffffffffffffffffffff16815260200190815260200160002081905550505b600073ffffffffffffffffffffffffffffffffffffffff168273ffffffffffffffffffffffffffffffffffffffff1603612612578060026000828254039250508190555061265f565b806000808473ffffffffffffffffffffffffffffffffffffffff1673ffffffffffffffffffffffffffffffffffffffff168152602001908152602001600020600082825401925050819055505b8173ffffffffffffffffffffffffffffffffffffffff168373ffffffffffffffffffffffffffffffffffffffff167fddf252ad1be2c89b69c2b068fc378daa952ba7f163c4a11628f55a4df523b3ef836040516126bc9190612915565b60405180910390a3505050565b6126d1610d20565b612707576040517f8dfc202b00000000000000000000000000000000000000000000000000000000815260040160405180910390fd5b565b600081519050919050565b600082825260208201905092915050565b60005b83811015612743578082015181840152602081019050612728565b60008484015250505050565b6000601f19601f8301169050919050565b600061276b82612709565b6127758185612714565b9350612785818560208601612725565b61278e8161274f565b840191505092915050565b600060208201905081810360008301526127b38184612760565b905092915050565b6000604051905090565b600080fd5b600080fd5b600073ffffffffffffffffffffffffffffffffffffffff82169050919050565b60006127fa826127cf565b9050919050565b61280a816127ef565b811461281557600080fd5b50565b60008135905061282781612801565b92915050565b6000819050919050565b6128408161282d565b811461284b57600080fd5b50565b60008135905061285d81612837565b92915050565b6000806040838503121561287a576128796127c5565b5b600061288885828601612818565b92505060206128998582860161284e565b9150509250929050565b60008115159050919050565b6128b8816128a3565b82525050565b60006020820190506128d360008301846128af565b92915050565b6000602082840312156128ef576128ee6127c5565b5b60006128fd84828501612818565b91505092915050565b61290f8161282d565b82525050565b600060208201905061292a6000830184612906565b92915050565b600080600060608486031215612949576129486127c5565b5b600061295786828701612818565b935050602061296886828701612818565b92505060406129798682870161284e565b9150509250925092565b600060208284031215612999576129986127c5565b5b60006129a78482850161284e565b91505092915050565b600060ff82169050919050565b6129c6816129b0565b82525050565b60006020820190506129e160008301846129bd565b92915050565b6000819050919050565b6000612a0c612a07612a02846127cf565b6129e7565b6127cf565b9050919050565b6000612a1e826129f1565b9050919050565b6000612a3082612a13565b9050919050565b612a4081612a25565b82525050565b6000602082019050612a5b6000830184612a37565b92915050565b600080600060608486031215612a7a57612a796127c5565b5b6000612a8886828701612818565b9350506020612a998682870161284e565b9250506040612aaa8682870161284e565b9150509250925092565b612abd816127ef565b82525050565b6000602082019050612ad86000830184612ab4565b92915050565b612ae7816129b0565b8114612af257600080fd5b50565b600081359050612b0481612ade565b92915050565b600060208284031215612b2057612b1f6127c5565b5b6000612b2e84828501612af5565b91505092915050565b60008060408385031215612b4e57612b4d6127c5565b5b6000612b5c85828601612818565b9250506020612b6d85828601612818565b9150509250929050565b600061010082019050612b8d600083018b6128af565b612b9a602083018a6128af565b612ba760408301896128af565b612bb460608301886128af565b612bc160808301876128af565b612bce60a08301866128af565b612bdb60c08301856128af565b612be860e08301846128af565b9998505050505050505050565b7f4e487b7100000000000000000000000000000000000000000000000000000000600052602260045260246000fd5b60006002820490506001821680612c3c57607f821691505b602082108103612c4f57612c4e612bf5565b5b50919050565b7f426c61636b6c69737420416464726573732046756e6374696f6e616c6974792060008201527f6973206e6f7420656e61626c656420696e207468697320736d61727420636f6e60208201527f7472616374210000000000000000000000000000000000000000000000000000604082015250565b6000612cd7604683612714565b9150612ce282612c55565b606082019050919050565b60006020820190508181036000830152612d0681612cca565b9050919050565b7f557365722041646472657373206973206e6f7420626c61636b6c697374656400600082015250565b6000612d43601f83612714565b9150612d4e82612d0d565b602082019050919050565b60006020820190508181036000830152612d7281612d36565b9050919050565b7f55736572204164647265737320697320616c726561647920626c61636b6c697360008201527f7465640000000000000000000000000000000000000000000000000000000000602082015250565b6000612dd5602383612714565b9150612de082612d79565b604082019050919050565b60006020820190508181036000830152612e0481612dc8565b9050919050565b7f54786e205461782046756e6374696f6e616c697479206973206e6f7420656e6160008201527f626c656420696e207468697320736d61727420636f6e74726163742100000000602082015250565b6000612e67603c83612714565b9150612e7282612e0b565b604082019050919050565b60006020820190508181036000830152612e9681612e5a565b9050919050565b7f54786e207461782077616c6c65742063616e277420626520656d707479000000600082015250565b6000612ed3601d83612714565b9150612ede82612e9d565b602082019050919050565b60006020820190508181036000830152612f0281612ec6565b9050919050565b7f4d696e74696e672046756e6374696f6e616c697479206973206e6f7420656e6160008201527f626c656420696e207468697320736d61727420636f6e74726163742100000000602082015250565b6000612f65603c83612714565b9150612f7082612f09565b604082019050919050565b60006020820190508181036000830152612f9481612f58565b9050919050565b7f4d696e74206d6f7265207468616e205a65726f00000000000000000000000000600082015250565b6000612fd1601383612714565b9150612fdc82612f9b565b602082019050919050565b6000602082019050818103600083015261300081612fc4565b9050919050565b7f50617573652f556e70617573652046756e6374696f6e616c697479206973206e60008201527f6f7420656e61626c656420696e207468697320736d61727420636f6e7472616360208201527f7421000000000000000000000000000000000000000000000000000000000000604082015250565b6000613089604283612714565b915061309482613007565b606082019050919050565b600060208201905081810360008301526130b88161307c565b9050919050565b7f436f6e747261637420697320616c7265616479207061757365642e0000000000600082015250565b60006130f5601b83612714565b9150613100826130bf565b602082019050919050565b60006020820190508181036000830152613124816130e8565b9050919050565b7f436f6e7472616374206973206e6f74207061757365642e000000000000000000600082015250565b6000613161601783612714565b915061316c8261312b565b602082019050919050565b6000602082019050818103600083015261319081613154565b9050919050565b7f436f6e747261637420646f6573206e6f74206861766520656e6f75676820746f60008201527f6b656e7300000000000000000000000000000000000000000000000000000000602082015250565b60006131f3602483612714565b91506131fe82613197565b604082019050919050565b60006020820190508181036000830152613222816131e6565b9050919050565b7f5573657220697320626c61636b6c697374656400000000000000000000000000600082015250565b600061325f601383612714565b915061326a82613229565b602082019050919050565b6000602082019050818103600083015261328e81613252565b9050919050565b7f5472616e7366657220616d6f756e7420697320677261746572207468616e207a60008201527f65726f0000000000000000000000000000000000000000000000000000000000602082015250565b60006132f1602383612714565b91506132fc82613295565b604082019050919050565b60006020820190508181036000830152613320816132e4565b9050919050565b7f4e487b7100000000000000000000000000000000000000000000000000000000600052601260045260246000fd5b7f4e487b7100000000000000000000000000000000000000000000000000000000600052601160045260246000fd5b60006133908261282d565b915061339b8361282d565b9250826133ab576133aa613327565b5b828204905092915050565b60006133c18261282d565b91506133cc8361282d565b92508282026133da8161282d565b915082820484148315176133f1576133f0613356565b5b5092915050565b60006134038261282d565b915061340e8361282d565b925082820390508181111561342657613425613356565b5b92915050565b7f4275726e20616d6f756e74206578636565647320616c6c6f77616e6365000000600082015250565b6000613462601d83612714565b915061346d8261342c565b602082019050919050565b6000602082019050818103600083015261349181613455565b9050919050565b7f5374616b696e67207265776172642046756e6374696f6e616c6974792069732060008201527f6e6f7420656e61626c656420696e207468697320736d61727420636f6e74726160208201527f6374210000000000000000000000000000000000000000000000000000000000604082015250565b600061351a604383612714565b915061352582613498565b606082019050919050565b600060208201905081810360008301526135498161350d565b9050919050565b7f5573657220697320626c61636b6c697374656421000000000000000000000000600082015250565b6000613586601483612714565b915061359182613550565b602082019050919050565b600060208201905081810360008301526135b581613579565b9050919050565b7f5573657220646f65736e2774206861766520656e6f756768207374616b65642060008201527f746f6b656e210000000000000000000000000000000000000000000000000000602082015250565b6000613618602683612714565b9150613623826135bc565b604082019050919050565b600060208201905081810360008301526136478161360b565b9050919050565b7f52617465206d75737420626520677261746572207468616e2030000000000000600082015250565b6000613684601a83612714565b915061368f8261364e565b602082019050919050565b600060208201905081810360008301526136b381613677565b9050919050565b7f496e73756666696369656e7420746f6b656e2062616c616e636520746f20737460008201527f616b650000000000000000000000000000000000000000000000000000000000602082015250565b6000613716602383612714565b9150613721826136ba565b604082019050919050565b6000602082019050818103600083015261374581613709565b9050919050565b60006137578261282d565b91506137628361282d565b925082820190508082111561377a57613779613356565b5b92915050565b7f4275726e696e672046756e6374696f6e616c697479206973206e6f7420656e6160008201527f626c656420696e207468697320736d61727420636f6e74726163742100000000602082015250565b60006137dc603c83612714565b91506137e782613780565b604082019050919050565b6000602082019050818103600083015261380b816137cf565b9050919050565b7f4275726e206d6f7265207468616e205a65726f00000000000000000000000000600082015250565b6000613848601383612714565b915061385382613812565b602082019050919050565b600060208201905081810360008301526138778161383b565b9050919050565b7f5573657220646f65736e2774206861766520616e79207374616b656420746f6b60008201527f656e210000000000000000000000000000000000000000000000000000000000602082015250565b60006138da602383612714565b91506138e58261387e565b604082019050919050565b60006020820190508181036000830152613909816138cd565b9050919050565b7f4368616e6765204f776e65722046756e6374696f6e616c697479206973206e6f60008201527f7420656e61626c656420696e207468697320736d61727420636f6e747261637460208201527f2100000000000000000000000000000000000000000000000000000000000000604082015250565b6000613992604183612714565b915061399d82613910565b606082019050919050565b600060208201905081810360008301526139c181613985565b9050919050565b7f4275796261636b20546f6b656e2046756e6374696f6e616c697479206973206e60008201527f6f7420656e61626c656420696e207468697320736d61727420636f6e7472616360208201527f7421000000000000000000000000000000000000000000000000000000000000604082015250565b6000613a4a604283612714565b9150613a55826139c8565b606082019050919050565b60006020820190508181036000830152613a7981613a3d565b9050919050565b7f4e487b7100000000000000000000000000000000000000000000000000000000600052604160045260246000fd5b7f4e487b7100000000000000000000000000000000000000000000000000000000600052603260045260246000fd5b600081519050919050565b600082825260208201905092915050565b6000819050602082019050919050565b613b13816127ef565b82525050565b6000613b258383613b0a565b60208301905092915050565b6000602082019050919050565b6000613b4982613ade565b613b538185613ae9565b9350613b5e83613afa565b8060005b83811015613b8f578151613b768882613b19565b9750613b8183613b31565b925050600181019050613b62565b5085935050505092915050565b6000608082019050613bb16000830187612906565b8181036020830152613bc38186613b3e565b9050613bd26040830185612ab4565b613bdf6060830184612906565b95945050505050565b600080fd5b613bf68261274f565b810181811067ffffffffffffffff82111715613c1557613c14613a80565b5b80604052505050565b6000613c286127bb565b9050613c348282613bed565b919050565b600067ffffffffffffffff821115613c5457613c53613a80565b5b602082029050602081019050919050565b600080fd5b600081519050613c7981612837565b92915050565b6000613c92613c8d84613c39565b613c1e565b90508083825260208201905060208402830185811115613cb557613cb4613c65565b5b835b81811015613cde5780613cca8882613c6a565b845260208401935050602081019050613cb7565b5050509392505050565b600082601f830112613cfd57613cfc613be8565b5b8151613d0d848260208601613c7f565b91505092915050565b600060208284031215613d2c57613d2b6127c5565b5b600082015167ffffffffffffffff811115613d4a57613d496127ca565b5b613d5684828501613ce8565b91505092915050565b6000606082019050613d746000830186612ab4565b613d816020830185612906565b613d8e6040830184612906565b949350505050565b60008160011c9050919050565b6000808291508390505b6001851115613ded57808604811115613dc957613dc8613356565b5b6001851615613dd85780820291505b8081029050613de685613d96565b9450613dad565b94509492505050565b600082613e065760019050613ec2565b81613e145760009050613ec2565b8160018114613e2a5760028114613e3457613e63565b6001915050613ec2565b60ff841115613e4657613e45613356565b5b8360020a915084821115613e5d57613e5c613356565b5b50613ec2565b5060208310610133831016604e8410600b8410161715613e985782820a905083811115613e9357613e92613356565b5b613ec2565b613ea58484846001613da3565b92509050818404811115613ebc57613ebb613356565b5b81810290505b9392505050565b6000613ed48261282d565b9150613edf836129b0565b9250613f0c7fffffffffffffffffffffffffffffffffffffffffffffffffffffffffffffffff8484613df6565b90509291505056fea264697066735822122085c77d2bded8548adab3b8a852d7532ba6766cb5365cebc5b0f9ec82f4558b5a64736f6c63430008140033",
  "linkReferences": {},
  "deployedLinkReferences": {}
}